:100000000C9414010C943F060C9470060C94A106F9
:100010000C94D2060C9403070C9434070C946507D7
:100020000C9496070C9441010C9441010C944101ED
:100030000C9441010C9441010C9441010C94410138
:100040000C9441010C94610C0C9441010C944101FD
:100050000C9441010C9441010C9441010C94100842
:100060000C9441010C9443010C943F020C94410107
:100070000C9441010C9441010C9441010C944101F8
:100080000C94330C0C9441010C9441010C944101EB
:100090000C9482010C947E020C9441010C94410159
:1000A0000C9441010C9441010C94050C0C944101F9
:1000B0000C9441010C9441010C9441010C94D70B18
:1000C0000C9441010C9441010C94090D0C94C10154
:1000D0000C94BD020C9441010C9400020C94FC029F
:1000E0000C94410105A84CCDB2D44EB93836A902C2
:1000F0000C50B9918688083CA6AAAA2ABE00000026
:10010000803F00002100240027002A002D0030003D
:10011000330001010000040107010A010000220070
:10012000250028002B002E003100340002010000C1
:10013000050108010B010000200023002600290012
:100140002C002F003200000100000301060109010C
:1001500005050505070508080808020202020A0A43
:100160000808040404040101010101010101030361
:10017000030303030303040707070C0C0C0C0C0C0C
:100180000C0C0202020206060606060606060B0B09
:100190000B0B0B0B0B0B010210202008081020404A
:1001A000102040800201020108040201010204083B
:1001B00010204080804020100804020180040201C9
:1001C0008040201008040201080402010102040812
:1001D0001020408001020408102040800000090A1D
:1001E00002080B0C0D0706030401000000000000CC
:1001F00000000000000000000000000000000000FF
:10020000000000000000000011100F0000000000BE
:1002100000000000000000000000000000000000DE
:100220000000E5031B058F0C11241FBECFEFD1E2A8
:10023000DEBFCDBF00E00CBF12E0A0E0B2E0EEED0B
:10024000F1E200E00BBF02C007900D92A034B107AD
:10025000D9F71BBE16E0A0E4B2E001C01D92AB339B
:10026000B107E1F712E0C8E2D2E004C02297FE0134
:100270000E94E910C232D107C9F70E94A80C0C9461
:10028000ED100C9400001F920F920FB60F920BB658
:100290000F9211242F933F934F938F939F93EF933C
:1002A000FF938091C00082FD1DC04091C600209147
:1002B0008002309181022F5F3F4F2F733070809109
:1002C0008202909183022817390771F0E091800231
:1002D000F0918102E05CFD4F4083309381022093D6
:1002E000800202C08091C600FF91EF919F918F9193
:1002F0004F913F912F910F900BBE0F900FBE0F901B
:100300001F9018951F920F920FB60F920BB60F9277
:1003100011242F933F934F938F939F93EF93FF93CA
:100320008091C80082FD1DC04091CE00209108033D
:10033000309109032F5F3F4F2F73307080910A0374
:1003400090910B032817390771F0E0910803F091A1
:100350000903E853FD4F40833093090320930803BA
:1003600002C08091CE00FF91EF919F918F914F91AC
:100370003F912F910F900BBE0F900FBE0F901F90CB
:1003800018951F920F920FB60F920BB60F92112471
:100390002F933F934F938F939F93EF93FF9380916E
:1003A000D00082FD1DC04091D60020919003309175
:1003B00091032F5F3F4F2F73307080919203909184
:1003C00093032817390771F0E0919003F09191039E
:1003D000E05BFC4F4083309391032093900302C075
:1003E0008091D600FF91EF919F918F914F913F9116
:1003F0002F910F900BBE0F900FBE0F901F9018956E
:100400001F920F920FB60F920BB60F9211242F93DB
:100410003F934F938F939F93EF93FF93809130017E
:1004200082FD1DC0409136012091180430911904BD
:100430002F5F3F4F2F73307080911A0490911B04EF
:100440002817390771F0E0911804F0911904E85267
:10045000FC4F4083309319042093180402C080910C
:100460003601FF91EF919F918F914F913F912F9185
:100470000F900BBE0F900FBE0F901F9018951F92FC
:100480000F920FB60F920BB60F9211242F933F933A
:100490008F939F93EF93FF932091C4023091C502F5
:1004A0008091C6029091C7022817390731F48091D4
:1004B000C1008F7D8093C10014C0E091C602F0910D
:1004C000C702EC57FD4F20818091C6029091C70270
:1004D00001968F7390709093C7028093C602209309
:1004E000C600FF91EF919F918F913F912F910F90B7
:1004F0000BBE0F900FBE0F901F9018951F920F927A
:100500000FB60F920BB60F9211242F933F938F9338
:100510009F93EF93FF9320914C0330914D03809173
:100520004E0390914F032817390731F48091C90089
:100530008F7D8093C90014C0E0914E03F0914F036A
:10054000E45FFC4F208180914E0390914F03019610
:100550008F73907090934F0380934E032093CE003F
:10056000FF91EF919F918F913F912F910F900BBE33
:100570000F900FBE0F901F9018951F920F920FB6FD
:100580000F920BB60F9211242F933F938F939F934B
:10059000EF93FF932091D4033091D5038091D6033C
:1005A0009091D7032817390731F48091D1008F7DBE
:1005B0008093D10014C0E091D603F091D703EC569C
:1005C000FC4F20818091D6039091D70301968F73C1
:1005D00090709093D7038093D6032093D600FF9119
:1005E000EF919F918F913F912F910F900BBE0F90A4
:1005F0000FBE0F901F9018951F920F920FB60F927B
:100600000BB60F9211242F933F938F939F93EF93E9
:10061000FF9320915C0430915D0480915E04909181
:100620005F042817390731F4809131018F7D809361
:10063000310114C0E0915E04F0915F04E45EFB4F71
:10064000208180915E0490915F0401968F73907079
:1006500090935F0480935E0420933601FF91EF91A5
:100660009F918F913F912F910F900BBE0F900FBED6
:100670000F901F901895DC011C96ED91FC911D9731
:10068000E05CFF4F2191319180819181281B390BD2
:100690002F733070C9010895DC011C96ED91FC9117
:1006A0001D97E05CFF4F20813181E054F040DF0175
:1006B000AE5BBF4F8D919C9111972817390719F4A4
:1006C0002FEF3FEF07C08D919C91E80FF91F8081BC
:1006D000282F30E0C9010895DC011C96ED91FC91B2
:1006E0001D97E05CFF4F20813181E054F040DF0135
:1006F000AE5BBF4F8D919C9111972817390719F464
:100700002FEF3FEF10C08D919C911197E80FF91FCB
:1007100020818D919C91119701968F739070119605
:100720009C938E9330E0C9010895DC0191968C91E1
:100730009197882339F05496ED91FC9155978081DB
:1007400086FFF9CF91961C920895CF93DF93EC0129
:10075000EE85FF85E05CFF4F20813181E054F04061
:100760002F5F3F4F2F733070DF01AE5BBF4F8D9116
:100770009C91119728173907D1F3E05CFF4F8081D6
:100780009181E054F040E80FF91F6083EE85FF850A
:10079000E05CFF4F31832083EE89FF89208181E077
:1007A00090E00F8C02C0880F991F0A94E2F7282B63
:1007B000208381E089A3EC89FD8980818064808326
:1007C00081E090E0DF91CF9108951F931092630430
:1007D0001092620428EE33E040E050E0209364047D
:1007E0003093650440936604509367046BE272E0B3
:1007F000709361046093600480E492E090936D04D0
:1008000080936C0484E892E090936F0480936E046C
:1008100085EC90E0909371048093700484EC90E0F8
:10082000909373048093720480EC90E0909375042D
:100830008093740481EC90E0909377048093760425
:1008400082EC90E0909379048093780486EC90E0B9
:1008500090937B0480937A0414E010937C04B3E0BB
:10086000B0937D04A7E0A0937E04F5E0F0937F04AD
:10087000E1E0E093800410928504109284042093B8
:1008800086043093870440938804509389047093BE
:1008900083046093820488EC92E090938F048093A9
:1008A0008E048CE093E090939104809390048DECFF
:1008B00090E090939304809392048CEC90E090935A
:1008C00095048093940488EC90E09093970480932F
:1008D000960489EC90E090939904809398048AECB4
:1008E00090E090939B0480939A048EEC90E0909318
:1008F0009D0480939C0410939E04B0939F04A09346
:10090000A004F093A104E093A2041092A704109213
:10091000A6042093A8043093A9044093AA045093FA
:10092000AB047093A5046093A40480E593E09093D6
:10093000B1048093B00484E993E09093B30480936E
:10094000B20485ED90E09093B5048093B40484EDF7
:1009500090E09093B7048093B60480ED90E090937C
:10096000B9048093B80481ED90E09093BB04809328
:10097000BA0482ED90E09093BD048093BC0486EDB0
:1009800090E09093BF048093BE041093C004B09392
:10099000C104A093C204F093C304E093C404109272
:1009A000C9041092C8042093CA043093CB04409326
:1009B000CC045093CD047093C7046093C60488EDB3
:1009C00093E09093D3048093D2048CE194E09093CD
:1009D000D5048093D40485E391E09093D704809369
:1009E000D60484E391E09093D9048093D80480E303
:1009F00091E09093DB048093DA0481E391E090939B
:100A0000DD048093DC0482E391E09093DF04809323
:100A1000DE0486E391E09093E1048093E004109378
:100A2000E204B093E304A093E404F093E504E093BC
:100A3000E6041F9108958BE392E09093E90480937C
:100A4000E8041092EA041092EB041092EC04109265
:100A5000ED0408958F929F92AF92BF92CF92DF9252
:100A6000EF92FF920F931F93CF93DF934C016B0193
:100A70007C01AA24BB24C0E0D0E0C601F70162815A
:100A80004AE050E00E942D068C01C6016EE20E94F1
:100A90009605080F191FA00EB11E21960894E11C9F
:100AA000F11CC330D10549F7C601F40165814AE064
:100AB00050E00E942D069501280F391FC901DF91D2
:100AC000CF911F910F91FF90EF90DF90CF90BF904B
:100AD000AF909F908F900895CF92DF92EF92FF9208
:100AE0000F931F93CF93DF937C016B018A01C0E0CA
:100AF000D0E00FC0D6016D916D01D701ED91FC9151
:100B00000190F081E02DC7011995C80FD91F015040
:100B100010400115110571F7CE01DF91CF911F91A2
:100B20000F91FF90EF90DF90CF900895DC01ED9151
:100B3000FC910190F081E02D19950895CF93DF93FA
:100B4000EC016115710519F420E030E00FC0DB0104
:100B50000D900020E9F71197A61BB70BE881F981EA
:100B60000280F381E02DAD0119959C01C901DF914F
:100B7000CF9108954F925F927F928F929F92AF9202
:100B8000BF92CF92DF92EF92FF920F931F93DF936A
:100B9000CF93CDB7DEB7A1970FB6F894DEBF0FBEE7
:100BA000CDBF2C01742ECB01223008F42AE019A20B
:100BB00031E2C32ED12CCC0EDD1E822E9924AA2424
:100BC000BB24672D752FA50194010E949610790111
:100BD0008A01C801B701A50194010E945810472D50
:100BE000461B0894C108D1084A3014F4405D01C086
:100BF000495CF6014083E114F1040105110521F07F
:100C00007E2C5F2DC801DDCFC201B6010E949E057A
:100C1000A1960FB6F894DEBF0FBECDBFCF91DF9186
:100C20001F910F91FF90EF90DF90CF90BF90AF900A
:100C30009F908F907F905F904F900895DC012115D9
:100C4000310541F4ED91FC910190F081E02D642F8C
:100C5000199508950E94BA050895EF92FF920F9397
:100C60001F939A01E62EFF2400E010E0B801A701CF
:100C70000E941E061F910F91FF90EF9008951F9202
:100C80000F920FB60F920BB60F9211242F933F9332
:100C90004F935F936F937F938F939F93AF93BF9384
:100CA000EF93FF938091F2049091F304892B29F044
:100CB000E091F204F091F3041995FF91EF91BF9147
:100CC000AF919F918F917F916F915F914F913F91E4
:100CD0002F910F900BBE0F900FBE0F901F90189585
:100CE0001F920F920FB60F920BB60F9211242F93F3
:100CF0003F934F935F936F937F938F939F93AF93A4
:100D0000BF93EF93FF938091F4049091F504892BA6
:100D100029F0E091F404F091F5041995FF91EF9119
:100D2000BF91AF919F918F917F916F915F914F9103
:100D30003F912F910F900BBE0F900FBE0F901F9001
:100D400018951F920F920FB60F920BB60F921124A7
:100D50002F933F934F935F936F937F938F939F93C3
:100D6000AF93BF93EF93FF938091F6049091F704B4
:100D7000892B29F0E091F604F091F7041995FF9181
:100D8000EF91BF91AF919F918F917F916F915F9103
:100D90004F913F912F910F900BBE0F900FBE0F9070
:100DA0001F9018951F920F920FB60F920BB60F92CD
:100DB00011242F933F934F935F936F937F938F9360
:100DC0009F93AF93BF93EF93FF938091F80490911B
:100DD000F904892B29F0E091F804F091F9041995B0
:100DE000FF91EF91BF91AF919F918F917F916F9103
:100DF0005F914F913F912F910F900BBE0F900FBEBF
:100E00000F901F9018951F920F920FB60F920BB66E
:100E10000F9211242F933F934F935F936F937F9380
:100E20008F939F93AF93BF93EF93FF938091EE04C3
:100E30009091EF04892B29F0E091EE04F091EF04FA
:100E40001995FF91EF91BF91AF919F918F917F91F4
:100E50006F915F914F913F912F910F900BBE0F902B
:100E60000FBE0F901F9018951F920F920FB60F9202
:100E70000BB60F9211242F933F934F935F936F9371
:100E80007F938F939F93AF93BF93EF93FF93809143
:100E9000F0049091F104892B29F0E091F004F09195
:100EA000F1041995FF91EF91BF91AF919F918F91AF
:100EB0007F916F915F914F913F912F910F900BBE5A
:100EC0000F900FBE0F901F9018951F920F920FB6A4
:100ED0000F920BB60F9211242F933F934F935F9372
:100EE0006F937F938F939F93AF93BF93EF93FF93F2
:100EF0008091FA049091FB04892B29F0E091FA0487
:100F0000F091FB041995FF91EF91BF91AF919F91E3
:100F10008F917F916F915F914F913F912F910F90A2
:100F20000BBE0F900FBE0F901F9018951F920F923F
:100F30000FB60F920BB60F9211242F933F934F933E
:100F40005F936F937F938F939F93AF93BF93EF9331
:100F5000FF938091FC049091FD04892B29F0E0918E
:100F6000FC04F091FD041995FF91EF91BF91AF91B1
:100F70009F918F917F916F915F914F913F912F91B1
:100F80000F900BBE0F900FBE0F901F9018952F92D1
:100F90003F924F925F926F927F928F929F92AF9209
:100FA000BF92CF92DF92EF92FF920F931F93DF9346
:100FB000CF93CDB7DEB73B014C0119012A016E89F1
:100FC0007F89888D998D6A197B098C099D09621A20
:100FD000730A840A950AA40193010E945810E2182A
:100FE000F30804091509A80197010E94B8102A0DF9
:100FF0003B1D4C1D5D1DB901CA01CF91DF911F91B1
:101000000F91FF90EF90DF90CF90BF90AF909F90A7
:101010008F907F906F905F904F903F902F900895AA
:101020001F920F920FB60F9211242F933F938F931D
:101030009F93AF93BF938091020590910305A09178
:101040000405B0910505309106050196A11DB11D5D
:10105000232F2D5F2D3720F02D570196A11DB11D97
:10106000209306058093020590930305A093040541
:10107000B09305058091FE049091FF04A0910005B6
:10108000B09101050196A11DB11D8093FE049093BE
:10109000FF04A0930005B0930105BF91AF919F910C
:1010A0008F913F912F910F900FBE0F901F90189529
:1010B000789484B5826084BD84B5816084BD85B533
:1010C000826085BD85B5816085BDEEE6F0E08081FA
:1010D00081608083E1E8F0E010828081826080831B
:1010E000808181608083E0E8F0E08081816080839E
:1010F000E1EBF0E0808184608083E0EBF0E08081D0
:1011000081608083E1E9F0E080818260808380817A
:1011100081608083E0E9F0E0808181608083E1EAA2
:10112000F0E0808182608083808181608083E0EA5A
:10113000F0E0808181608083E1E2F1E08081826083
:101140008083808181608083E0E2F1E08081816042
:101150008083EAE7F0E08081846080838081826020
:101160008083808181608083808180688083109209
:10117000C1000895CF93DF93482F50E0CA018A56EB
:101180009E4FFC013491405B5E4FFA0184918823AD
:1011900069F190E0880F991FFC01EE5FFE4FA59169
:1011A000B491FC01E45EFE4FC591D491662351F4E5
:1011B0002FB7F8948C91932F909589238C938881E5
:1011C00089230BC0623061F42FB7F8948C91932F70
:1011D000909589238C938881832B88832FBF06C0A9
:1011E0009FB7F8948C91832B8C939FBFDF91CF9105
:1011F0000895893009F449C08A30A0F4843051F14F
:10120000853040F4823079F1833000F5813009F087
:1012100063C026C0873079F1883098F5863009F0B0
:101220005BC025C08D3009F442C08E3028F48B306D
:10123000B1F18C30C0F52DC0803109F442C081314C
:1012400009F445C08F3009F047C037C08091800055
:101250008F7703C0809180008F7D809380000895F8
:1012600084B58F7702C084B58F7D84BD0895809149
:10127000B0008F7703C08091B0008F7D8093B00065
:101280000895809190008F7707C0809190008F7DA6
:1012900003C080919000877F809390000895809193
:1012A000A0008F7707C08091A0008F7D03C0809140
:1012B000A000877F8093A0000895809120018F7700
:1012C00003C0809120018F7D80932001089580913B
:1012D0002001877F809320010895FF920F931F9331
:1012E000F62E482F50E0CA0184529E4FFC012491F3
:1012F000CA018A569E4FFC011491405B5E4FFA0171
:1013000004910023C9F0222319F0822F0E94F908CA
:10131000E02FF0E0EE0FFF1FE45EFE4FA591B491C9
:101320009FB7F894FF2021F48C911095812302C07F
:101330008C91812B8C939FBF1F910F91FF900895EB
:10134000FC0180910705803390F480838F5F809348
:101350000705815090E0FC01EE0FFF1FE80FF91F19
:10136000E85FFA4F88EB9BE09283818308958FEFCB
:1013700080830895FC0120812033B8F5818199276D
:1013800087FD909548E850E0481B590B440F551FC6
:10139000440F551F6417750784F08281992787FDD4
:1013A000909548E552E0481B590B440F551F440FD8
:1013B000551F641775070CF4AB0142505040CA0129
:1013C000AA2797FDA095BA2F880F991FAA1FBB1FA8
:1013D0004FB7F89430E0F901EE0FFF1FE20FF31F53
:1013E000E85FFA4F928381834FBF0895AF92BF9217
:1013F000CF92DF92EF92FF920F931F93CF93DF93E1
:10140000EC019B0182E0603278070CF048C077FF66
:1014100003C020E030E005C0653B710514F024EB0B
:1014200030E000D00F92B901882777FD8095982F82
:101430002981332727FD3095E8E8AE2EB12CA21A7A
:10144000B30AAA0CBB1CAA0CBB1CCC24B7FCC094CE
:10145000DC2CEA81FF27E7FDF09528E532E02E1B22
:101460003F0B220F331F220F331F442737FD4095B8
:10147000542FEDB7FEB7218332834383548320E09A
:1014800030E040E050E004EBE02EF12C012D112D76
:101490000E94C7079B010F900F900F900F90CE01F5
:1014A000B9010E94BA09DF91CF911F910F91FF906E
:1014B000EF90DF90CF90BF90AF900895CF92DF92E2
:1014C000EF92FF921F93CF93DF93EC01162F7A01D7
:1014D00069018881803308F093C0862F61E00E9403
:1014E000BA08888190E0FC01EE0FFF1FE80FF91F9A
:1014F000E85FFA4F1F738081807C812B808380E2BC
:1015000092E08E199F0964E070E00E948310698365
:1015100080E699E08C199D0964E070E00E948310D8
:101520006A83A8818A2F6CE00E947710682F70E090
:10153000AB01440F551F460F571F440F551F440F53
:10154000551F20E030E0C901840F951FFC01EE0F0C
:10155000FF1FE80FF91FE85FFA4F808186FD44C046
:101560002F5F3F4F2C30310571F753C01092800030
:1015700082E0809381001092850010928400B19ADD
:1015800080916F00826080936F002EC06230710581
:1015900069F41092900082E080939100109295007F
:1015A0001092940088BB809371001EC06330710557
:1015B00069F41092A00082E08093A1001092A5002F
:1015C0001092A40089BB809372000EC0672B61F457
:1015D0001092200182E08093210110922501109247
:1015E00024018ABB809373008A2F90E0FC01EE0FE8
:1015F000FF1FE80FF91FE85FFA4F80818064808346
:101600008881DF91CF911F91FF90EF90DF90CF9075
:1016100008956130710509F0B9CFA8CF40E252E0DA
:1016200020E639E00E945E0A0895EF92FF920F9340
:101630001F93CF93DF938B017A01EC01DC01A85655
:10164000BA4F8C9187FF04C0FB011182108237C012
:10165000AE01440F551F4C0F5D1F440F551F440F23
:10166000551F2C91332727FD3095240F351F80916E
:10167000070590E02817390714F58C91992787FD05
:101680009095840F951FFC01EE0FFF1FE80FF91FC7
:10169000E85FFA4F808186FF12C08C91992787FD01
:1016A0009095840F951FFC01EE0FFF1FE80FF91FA7
:1016B000E85FFA4F80818F7360E00E946D09DE0160
:1016C000A856BA4F8C918F5F8C93AE01440F551F73
:1016D0004C0F5D1F440F551F440F551F2C9133278E
:1016E00027FD3095240F351F8091070590E02817BE
:1016F00039070CF04DC08C918C300CF049C0F801CA
:10170000208131818C91992787FD9095840F951FB9
:10171000FC01EE0FFF1FE80FF91FE85FFA4F818110
:101720009281280F391FF701318320838C919927EB
:1017300087FD9095840F951FFC01EE0FFF1FE80FAA
:10174000F91FE85FFA4F808186FF2AC08C919927A4
:1017500087FD9095840F951FFC01EE0FFF1FE80F8A
:10176000F91FE85FFA4F80818F7361E00E946D0975
:1017700017C080E49CE904C0F8018081918104963F
:10178000F70191838083C856DA4F8FEF888308C0B2
:10179000F80180819181049680549C4950F3ECCFEC
:1017A000DF91CF911F910F91FF90EF9008951F92BD
:1017B0000F920FB60F920BB60F9211242F933F93F7
:1017C0004F935F936F937F938F939F93AF93BF9349
:1017D000EF93FF9380E090E064E271E048E251E033
:1017E0000E94150BFF91EF91BF91AF919F918F9147
:1017F0007F916F915F914F913F912F910F900BBE11
:101800000F900FBE0F901F9018951F920F920FB65A
:101810000F920BB60F9211242F933F934F935F9328
:101820006F937F938F939F93AF93BF93EF93FF93A8
:1018300083E090E064EA70E048EA50E00E94150B13
:10184000FF91EF91BF91AF919F918F917F916F9198
:101850005F914F913F912F910F900BBE0F900FBE54
:101860000F901F9018951F920F920FB60F920BB604
:101870000F9211242F933F934F935F936F937F9316
:101880008F939F93AF93BF93EF93FF9382E090E08A
:1018900064E970E048E950E00E94150BFF91EF9178
:1018A000BF91AF919F918F917F916F915F914F9178
:1018B0003F912F910F900BBE0F900FBE0F901F9076
:1018C00018951F920F920FB60F920BB60F9211241C
:1018D0002F933F934F935F936F937F938F939F9338
:1018E000AF93BF93EF93FF9381E090E064E870E0E3
:1018F00048E850E00E94150BFF91EF91BF91AF9126
:101900009F918F917F916F915F914F913F912F9117
:101910000F900BBE0F900FBE0F901F9018958CE983
:1019200095E00E94A009089593E0899FC0011124C9
:1019300084569A4F70E00E94F609089593E0899FBB
:10194000C001112484569A4F70E00E940E0B089536
:101950000E9458080E94740D8BEC93EF9093250120
:1019600080932401809173008E7F80937300809117
:1019700020018C7F8093200180912101877E8093BC
:1019800021018091210185608093210180912101B5
:101990008D7F80932101809173008160809373001B
:1019A000E0913D02F0913E0280819181892BE1F32B
:1019B0000E94730DF89480E090E008952091A105B5
:1019C0002F5F2093A105215049F081E090E0909392
:1019D000A00580939F052093A105089578940E9407
:1019E000BA0D0E94370DF8948091A1058150809323
:1019F000A1059091A405992359F08091A20588230F
:101A000039F47894F89491509093A4051092A2051B
:101A100008951F920F920FB60F920BB60F921124DA
:101A20002F933F934F935F936F937F938F939F93E6
:101A3000AF93BF93EF93FF938BEC93EF90932501BC
:101A4000809324010E94DE0CFF91EF91BF91AF9132
:101A50009F918F917F916F915F914F913F912F91C6
:101A60000F900BBE0F900FBE0F901F901895EF9226
:101A7000FF920F931F9301E316E0E0903106F09080
:101A80003206F8013E9760817181828193816F5F98
:101A90007F4F8F4F9F4F60837183828393830E9418
:101AA000B10E2091270630912806409129065091C9
:101AB0002A060E94670FF7016083718382839383F4
:101AC00006501040F80180819181A281B381019676
:101AD000A11DB11D80839183A283B3831F910F91B8
:101AE000FF90EF9008950895E6EAF5E085E9DF01BB
:101AF0001D928A95E9F78FE296E09093AB0580936B
:101B0000AA0581E396E097AF86AF87E296E09093CF
:101B1000B9058093B805F0930F06E0930E06F09395
:101B2000A905E093A80581E090E0909330068093AA
:101B30002F0680E092E09093AF058093AE0583E39B
:101B400096E090933206809331068DEC9CECACE4E9
:101B5000BEE38093270690932806A0932906B093AE
:101B60002A061092A50580912602609112020E9419
:101B70009E0C0895EF92FF920F931F93E091310610
:101B8000F091320660911E0270911F028091200236
:101B90009091210220813181428153810E94670FFF
:101BA000209122023091230240912402509125027B
:101BB0000E941D0E0E94CA0F20911602309117023A
:101BC00040911802509119020E94670F20911A0249
:101BD00030911B0240911C0250911D020E941D0E6B
:101BE0007B018C0120E030E040E853E40E94810E4C
:101BF0008823A4F4C801B70120E030E040E050E0C1
:101C00000E94630F88233CF0C801B7010E94850E33
:101C10006093A50506C01092A50503C08FEF8093C1
:101C2000A505809126026091A5050E94940C1F9144
:101C30000F91FF90EF9008955058BB27AA270ED020
:101C400008C1F9D030F0FED020F031F49F3F11F4FC
:101C50001EF4EEC00EF4E095E7FBE4C0E92F0AD1D4
:101C600080F3BA17620773078407950718F071F4B9
:101C70009EF522C10EF4E0950B2EBA2FA02D0B017C
:101C8000B90190010C01CA01A0011124FF27591BC1
:101C900099F0593F50F4503E68F11A16F040A22FC7
:101CA000232F342F4427585FF3CF46953795279538
:101CB000A795F0405395C9F77EF41F16BA0B620B37
:101CC000730B840BBAF09150A1F0FF0FBB1F661F7E
:101CD000771F881FC2F70EC0BA0F621F731F841FC1
:101CE00048F4879577956795B795F7959E3F08F0E7
:101CF000B3CF9395880F08F09927EE0F97958795A6
:101D000008956CD008F481E00895BCD088F09F5706
:101D100090F0B92F9927B751A0F0D1F0660F771F37
:101D2000881F991F1AF0BA95C9F712C0B13081F017
:101D3000C3D0B1E00895C0C0672F782F8827B85F5F
:101D400039F0B93FCCF3869577956795B395D9F778
:101D50003EF490958095709561957F4F8F4F9F4F82
:101D60000895E89409C097FB3EF49095809570958E
:101D700061957F4F8F4F9F4F9923A9F0F92F96E9D7
:101D8000BB279395F695879577956795B795F1114C
:101D9000F8CFFAF4BB0F11F460FF1BC06F5F7F4FE9
:101DA0008F4F9F4F16C0882311F096E911C07723FB
:101DB00021F09EE8872F762F05C0662371F096E804
:101DC000862F70E060E02AF09A95660F771F881FD3
:101DD000DAF7880F9695879597F90895990F000877
:101DE000550FAA0BE0E8FEEF16161706E807F907ED
:101DF000C0F012161306E407F50798F0621B730B88
:101E0000840B950B39F40A2661F0232B242B252B08
:101E100021F408950A2609F4A140A6958FEF811DAB
:101E2000811D089597F99F6780E870E060E008954C
:101E30009FEF80EC089500240A94161617061806E2
:101E40000906089500240A941216130614060506BE
:101E50000895092E0394000C11F4882352F0BB0F4F
:101E600040F4BF2B11F460FF04C06F5F7F4F8F4FB2
:101E70009F4F089557FD9058440F551F59F05F3FED
:101E800071F04795880F97FB991F61F09F3F79F09C
:101E900087950895121613061406551FF2CF46951E
:101EA000F1DF08C0161617061806991FF1CF8695A0
:101EB0007105610508940895E894BB276627772784
:101EC000CB0197F908958ADF08F48FEF08950BD0BE
:101ED000C0CFB1DF28F0B6DF18F0952309F0A2CF0C
:101EE000A7CF1124EACFC6DFA0F3959FD1F3950FBA
:101EF00050E0551F629FF001729FBB27F00DB11D8E
:101F0000639FAA27F00DB11DAA1F649F6627B00D1D
:101F1000A11D661F829F2227B00DA11D621F739F06
:101F2000B00DA11D621F839FA00D611D221F749F14
:101F30003327A00D611D231F849F600D211D822F5B
:101F4000762F6A2F11249F5750408AF0E1F08823A2
:101F50004AF0EE0FFF1FBB1F661F771F881F9150AF
:101F60005040A9F79E3F510570F05CCFA6CF5F3F70
:101F7000ECF3983EDCF3869577956795B795F795E2
:101F8000E7959F5FC1F7FE2B880F911D969587956A
:101F900097F908959F9305D00F9007FCEE5F31C02D
:101FA00047CF70DFE8F3E894EFEFBB273FE048EC62
:101FB0005FE76B3D73078407950708F1FF279F577D
:101FC000B25A6A4D7F40894CF04032F4BE556542AA
:101FD000704F8643FF4F0894EE1F915030F0BB0FB7
:101FE000661F771F881FFF1FEBCF9EE7882332F005
:101FF000BB0F661F771F881F9A95C1F79395E095D1
:1020000011C0EF93E0FF06C0A2EA2AED3FE049ECE1
:102010005FEB24DE1EDF0F90039401FC9058E4EE8A
:10202000F0E010C09F3F49F0915028F486957795D5
:102030006795B7959F5F80389F4F880F96958795D6
:1020400097F908959F938F937F936F93FF93EF93E7
:102050009B01AC013CDFEF91FF9105D02F913F91A7
:102060004F915F9134CFDF93CF931F930F93FF92E4
:10207000EF92DF927B018C01689405C0DA2EEF01AC
:1020800032DFFE01E894A591259135914591559156
:10209000AEF3EF01E3DDFE019701A801DA9479F7D1
:1020A000DF90EF90FF900F911F91CF91DF910895F6
:1020B000629FD001739FF001829FE00DF11D649F2C
:1020C000E00DF11D929FF00D839FF00D749FF00DB8
:1020D000659FF00D9927729FB00DE11DF91F639F59
:1020E000B00DE11DF91FBD01CF0111240895991B09
:1020F00079E004C0991F961708F0961B881F7A95FF
:10210000C9F78095089597FB092E07260AD077FD19
:1021100004D049D006D000201AF4709561957F4F05
:102120000895F6F7909581959F4F0895A1E21A2E94
:10213000AA1BBB1BFD010DC0AA1FBB1FEE1FFF1F6B
:10214000A217B307E407F50720F0A21BB30BE40BBB
:10215000F50B661F771F881F991F1A9469F7609502
:102160007095809590959B01AC01BD01CF010895BC
:1021700097FB092E05260ED057FD04D0D7DF0AD0D5
:10218000001C38F450954095309521953F4F4F4FA6
:102190005F4F0895F6F790958095709561957F4F04
:1021A0008F4F9F4F0895AA1BBB1B51E107C0AA1F69
:1021B000BB1FA617B70710F0A61BB70B881F991FE8
:1021C0005A95A9F780959095BC01CD010895EE0F21
:0E21D000FF1F0590F491E02D1994F894FFCFB5
:1021DE004669786564537465704469736372657497
:1021EE00650009000000000034420000B442000007
:1021FE00803F000000000000000000A5036C053BBE
:10220E00036C034C039503000000002A05A605008D
:00000001FF
