:100000000C9464000C9486080C94B3080C948C0037
:100010000C948C000C948C000C948C000C948C0030
:100020000C948C000C94EC000C948C000C94830BBE
:100030000C948C000C948C000C948C000C948C0010
:100040000C9429090C948C000C94EC050C94270654
:100050000C948C000C948C000C948C000C948C00F0
:100060000C948C000C948C000000000024002700ED
:100070002A0000000000250028002B0000000000DE
:1000800023002600290004040404040404040202DA
:100090000202020203030303030301020408102007
:1000A0004080010204081020010204081020000012
:1000B0000007000201000003040600000000000029
:1000C00000000C076207410C11241FBECFEFD8E0DF
:1000D000DEBFCDBF13E0A0E0B1E0E4E9FFE102C084
:1000E00005900D92A635B107D9F714E0A6E5B3E067
:1000F00001C01D92A93FB107E1F710E0C8ECD0E0C4
:1001000004C02297FE010E94C40FC23CD107C9F768
:100110000E948E000C94C80F0C9400000E9471097C
:100120000E942B0383E88093B200809170008E7F41
:10013000809370008091B0008C7F8093B00080919C
:10014000B100877F8093B1008091B1008660809379
:10015000B1008091B1008E7F8093B10080917000DA
:10016000816080937000E0913D03F0913E038081B7
:100170009181892BE1F30E942A03F89480E090E0BA
:100180000895209159032F5F20935903215049F07E
:1001900081E090E090935803809357032093590394
:1001A000089578940E946B040E94EE02F894809166
:1001B000590381508093590390915C03992359F01E
:1001C00080915A03882339F47894F894915090934D
:1001D0005C0310925A0308951F920F920FB60F926C
:1001E00011242F933F934F935F936F937F938F933C
:1001F0009F93AF93BF93EF93FF9383E88093B200F5
:10020000809156038F5F809356038091560385300B
:1002100021F4109256030E94C100FF91EF91BF910B
:10022000AF919F918F917F916F915F914F913F918E
:100230002F910F900FBE0F901F90189560E070E007
:1002400080E89FE7089560E070E080E89FE7089508
:1002500060E070E080E89FEF089560E070E080E883
:100260009FEF089560E070E080EC9FEF089560E0FC
:1002700070E080EC9FEF0895DF92EF92FF920F9372
:100280001F937B018C0120915104309152044091C5
:100290005304509154040E94DF0C882379F0DD242C
:1002A000C801B7012091590430915A0440915B0470
:1002B00050915C040E94DF0C882311F4DD24D39458
:1002C0008D2D1F910F91FF90EF90DF9008951F9358
:1002D0009B01AC0110E00E94DF0C811111E0812F25
:1002E0001F9108950E943201609355047093560443
:1002F00080935704909358040E94370160934904F7
:1003000070934A0480934B0490934C040E941E0106
:100310006093510470935204809353049093540457
:100320000E94230160934D0470934E0480934F0408
:10033000909350040E9428016093590470935A04CA
:1003400080935B0490935C040E942D0160935D0494
:1003500070935E0480935F049093600408952F92DD
:100360003F924F925F926F927F928F929F92AF9245
:10037000BF92CF92DF92EF92FF920F931F93DF9382
:10038000CF93CDB7DEB72A970FB6F894DEBF0FBE76
:10039000CDBF6D837E838F8398871A013A87298723
:1003A00037014801DA01AD90BD90CD90DC90A601F7
:1003B00095010E94DF0C1816FCF06D817E818F8103
:1003C0009885A60195010E94670C7B018C01F101C3
:1003D0006481758186819781A60195010E94670CD1
:1003E0009B01AC01C801B7010E94E30C5B016C01E9
:1003F000442455243201B1C067019701220F331FF5
:10040000220F331F220D331DD9018D919D910D9027
:10041000BC91A02D89839A83AB83BC836D817E813F
:100420008F81988529813A814B815C810E94DF0C04
:1004300088230CF062C016950795F794E794640141
:10044000530144245524320122C0F701EE0FFF1F4F
:10045000EE0FFF1FE20DF31D6D817E818F81988568
:1004600020813181428153810E94DF0C87FD03C0CE
:100470002701380102C05701680183017201EA0CAB
:10048000FB1C0C1D1D1D16950795F794E794D601CE
:10049000C50184199509A609B7090297A105B105F7
:1004A000A0F68201F201EE0FFF1FEE0FFF1FE20D1B
:1004B000F31DC080D180E280F3806D817E818F81C9
:1004C0009885A70196010E94670C4B015C010F5FA4
:1004D0001F4F000F111F000F111F020D131DF801F8
:1004E0006081718182819381A70196010E94670CCE
:1004F0009B01AC01C501B4012CC02701380108944F
:1005000041085108610871088FEF9FE3C80ED91E9A
:10051000CC0CDD1CCC0CDD1CC20CD31CD601ED9028
:10052000FD900D911C916D817E818F819885A80130
:1005300097010E94670C5B016C0169817A818B8154
:100540009C81A80197010E94670C9B01AC01C60128
:10055000B5010E94E30C5B016C01D2019201220FF4
:10056000331F220F331FE985FA852E0F3F1FF90134
:10057000E080F180028113811196AA0FBB1FAA0FA0
:10058000BB1F89859A85A80FB91F6D917D918D91AB
:100590009C91A80197010E94670CA60195010E94F9
:1005A000D00EA80197010E94680C2A960FB6F89405
:1005B000DEBF0FBECDBFCF91DF911F910F91FF9096
:1005C000EF90DF90CF90BF90AF909F908F907F90F3
:1005D0006F905F904F903F902F900895EF92FF9211
:1005E0000F931F930CEE14E0E090EC04F090ED04F8
:1005F000F8013E9760817181828193816F5F7F4FA7
:100600008F4F9F4F60837183828393830E94770D06
:100610002091E2043091E3044091E4045091E50418
:100620000E94D00EF701608371838283938306500A
:100630001040F80180819181A281B3810196A11DB2
:10064000B11D80839183A283B3831F910F91FF908B
:10065000EF900895089584E090E00E947201E1E631
:10066000F4E085E9DF011D928A95E9F78AEE94E0CE
:1006700090936604809365048CEE94E097AF86AF08
:1006800082EE94E09093740480937304F093CA0410
:10069000E093C904F0936404E093630481E090E084
:1006A0009093EB048093EA0480E091E090936A04D5
:1006B000809369048EEE94E09093ED048093EC04B3
:1006C0008AE097EDA3E2BCE38093E2049093E30415
:1006D000A093E404B093E50483E0E6EFF4E0DF01E7
:1006E0001D928A95E9F780913A03609106020E9473
:1006F0005D0C80913B0360910A020E945D0C809129
:100700003C0360910E020E945D0C0895EF92FF92EF
:100710000F931F937B018C019F7720E030E040E82E
:1007200059E50E94DF0C87FD03C0B701C80132C044
:10073000C801B70120E030E040E05FE30E94CC0E4A
:1007400088235CF0C801B70120E030E040E05FE3BF
:100750000E94680C0E94B40D1DC0C801B70120E0C2
:1007600030E040E05FEB0E94CC0E18164CF4C8015C
:10077000B70120E030E040E050E00E94D00E0AC017
:10078000C801B70120E030E040E05FE30E94670C61
:100790000E94CC0C1F910F91FF90EF9008952F9223
:1007A0003F924F925F926F927F928F929F92AF9201
:1007B000BF92CF92DF92EF92FF920F931F931B0194
:1007C0002C0139014A010E946701882391F4C2017A
:1007D000B1010E943C01882361F4C401B3010E946D
:1007E0006701882331F4C401B3010E943C018823CE
:1007F00049F060915504709156048091570490918E
:10080000580458C0C401B30120E030E040E050E09B
:100810000E94DF0C88232CF4C401B3010E94CC0C8D
:1008200004C0C401B3010E94B40D7B018C01C4015A
:10083000B30120E030E040E050E00E94DF0C88236C
:1008400099F1C401B301A80197010E94DF0C88232C
:1008500059F1C201B101A40193010E94E30C7B0193
:100860008C010E9486039B01AC01C801B7010E9464
:10087000670C5B016C01E894D7F8E89417F9C8019C
:10088000B70120E030E040E054E30E94D00E9B012D
:10089000AC01C601B5010E94DF0C18162CF060E017
:1008A00070E080E090E006C0C201B101A4019301B4
:1008B0000E94CE0D1F910F91FF90EF90DF90CF908F
:1008C000BF90AF909F908F907F906F905F904F9070
:1008D0003F902F900895AF92BF92CF92DF92EF9208
:1008E000FF920F931F93E091EC04F091ED0460816F
:1008F0007181828193812091120230911302409183
:100900001402509115020E94CF0346E152E022E109
:1009100031E0B8E0EB2EF12C012D112D0E94AF013A
:1009200020913A0230913B0240913C0250913D02AD
:100930000E94D00E5B016C01E0903E02F0903F02FD
:100940000091400210914102A80197010E94CC0E33
:10095000181694F0E0904202F09043020091440295
:1009600010914502C601B501A80197010E94DF0C54
:1009700087FD02C086017501C801B70120914602BA
:100980003091470240914802509149020E94680C00
:100990007B018C0120E030E040E853E40E94DF0C52
:1009A0008823A4F4C801B70120E030E040E050E023
:1009B0000E94CC0E88233CF0C801B7010E944B0D69
:1009C0006093F60406C01092F60403C08FEF809384
:1009D000F60480913A036091F6040E94530CE09172
:1009E000EC04F091ED04608171818281938120910A
:1009F0004A0230914B0240914C0250914D020E94AC
:100A0000CF034EE452E026E331E0A9E1EA2EF12CD7
:100A1000012D112D0E94AF01D62EC72EB82EA92E62
:100A2000E090B602F090B7020091B8021091B902BE
:100A3000A80197010E94CC0E1816C4F0E090BA02EB
:100A4000F090BB020091BC021091BD026D2D7C2D77
:100A50008B2D9A2DA80197010E94DF0C87FD06C0FF
:100A60008D2D9C2DAB2DBA2D7C018D016091BE0288
:100A70007091BF028091C0029091C102A8019701BC
:100A80000E94670C7B018C0120E030E040E853E4D9
:100A90000E94DF0C8823A4F4C801B70120E030E0F5
:100AA00040E050E00E94CC0E88233CF0C801B70122
:100AB0000E944B0D6093F70406C01092F70403C028
:100AC0008FEF8093F70480913B036091F7040E94BD
:100AD000530CE091EC04F091ED046081718182810E
:100AE00093812091C2023091C3024091C40250917F
:100AF000C5020E94CF0346EC52E02EE931E0F9E155
:100B0000EF2EF12C012D112D0E94AF01D62EC72EF4
:100B1000B82EA92EE0902E03F0902F030091300301
:100B200010913103A80197010E94CC0E1816C4F051
:100B3000E0903203F09033030091340310913503B9
:100B40006D2D7C2D8B2D9A2DA80197010E94DF0C15
:100B500087FD06C08D2D9C2DAB2DBA2D7C018D01FE
:100B6000C801B70120913603309137034091380313
:100B7000509139030E94680C7B018C0120E030E029
:100B800040E853E40E94DF0C8823A4F4C801B701B5
:100B900020E030E040E050E00E94CC0E88233CF0A2
:100BA000C801B7010E944B0D6093F80406C0109273
:100BB000F80403C08FEF8093F80480913C036091A8
:100BC000F8040E94530C1F910F91FF90EF90DF905B
:100BD000CF90BF90AF9008951F920F920FB60F92D3
:100BE00011242F933F934F938F939F93EF93FF93F2
:100BF0008091C00082FD1DC04091C60020919D03E0
:100C000030919E032F5F3F4F2F73307080919F0371
:100C10009091A0032817390771F0E0919D03F0919E
:100C20009E03E35AFC4F408330939E0320939D0321
:100C300002C08091C600FF91EF919F918F914F91DB
:100C40003F912F910F900FBE0F901F9018951F92FC
:100C50000F920FB60F9211242F933F938F939F9370
:100C6000EF93FF932091E1033091E2038091E3033E
:100C70009091E4032817390731F48091C1008F7DEA
:100C80008093C10014C0E091E303F091E403EF55B9
:100C9000FC4F20818091E3039091E40301968F73D0
:100CA00090709093E4038093E3032093C600FF9138
:100CB000EF919F918F913F912F910F900FBE0F90C9
:100CC0001F901895DC011C96ED91FC911D97E05C3E
:100CD000FF4F2191319180819181281B390B2F7316
:100CE0003070C9010895DC011C96ED91FC911D97AF
:100CF000E05CFF4F20813181E054F040DF01AE5BCA
:100D0000BF4F8D919C9111972817390719F42FEF38
:100D10003FEF07C08D919C91E80FF91F8081282F2C
:100D200030E0C9010895DC011C96ED91FC911D97FE
:100D3000E05CFF4F20813181E054F040DF01AE5B89
:100D4000BF4F8D919C9111972817390719F42FEFF8
:100D50003FEF10C08D919C911197E80FF91F2081F2
:100D60008D919C91119701968F73907011969C9321
:100D70008E9330E0C9010895DC0191968C91919792
:100D8000882339F05496ED91FC915597808186FF28
:100D9000F9CF91961C920895CF93DF93EC01EE85E5
:100DA000FF85E05CFF4F20813181E054F0402F5FF0
:100DB0003F4F2F733070DF01AE5BBF4F8D919C9121
:100DC000119728173907D1F3E05CFF4F808191819B
:100DD000E054F040E80FF91F6083EE85FF85E05C8A
:100DE000FF4F31832083EE89FF89208181E090E0ED
:100DF0000F8C02C0880F991F0A94E2F7282B2083DA
:100E000081E089A3EC89FD8980818064808381E011
:100E100090E0DF91CF9108951092E8031092E703DC
:100E200088EE93E0A0E0B0E08093E9039093EA03BA
:100E3000A093EB03B093EC0383E493E09093E60379
:100E40008093E5038DE593E09093F2038093F103A3
:100E500081EA93E09093F4038093F30385EC90E0B0
:100E60009093F6038093F50384EC90E09093F8035D
:100E70008093F70380EC90E09093FA038093F9035A
:100E800081EC90E09093FC038093FB0382EC90E074
:100E90009093FE038093FD0386EC90E09093000412
:100EA0008093FF0384E08093010483E08093020435
:100EB00087E08093030485E08093040481E08093BD
:100EC0000504089583E593E0909308048093070454
:100ED0001092090410920A0410920B0410920C0450
:100EE00008958F929F92AF92BF92CF92DF92EF922E
:100EF000FF920F931F93CF93DF934C016B017C0103
:100F0000AA24BB24C0E0D0E0C601F70162814AE018
:100F100050E00E9474088C01C6016EE20E94DD0759
:100F2000080F191FA00EB11E21960894E11CF11C98
:100F3000C330D10549F7C601F40165814AE050E0AC
:100F40000E9474089501280F391FC901DF91CF91C4
:100F50001F910F91FF90EF90DF90CF90BF90AF90D7
:100F60009F908F900895CF92DF92EF92FF920F9310
:100F70001F93CF93DF937C016B018A01C0E0D0E027
:100F80000FC0D6016D916D01D701ED91FC910190DB
:100F9000F081E02DC7010995C80FD91F01501040FD
:100FA0000115110571F7CE01DF91CF911F910F91BE
:100FB000FF90EF90DF90CF900895DC01ED91FC91D0
:100FC0000190F081E02D09950895CF93DF93EC0116
:100FD0006115710519F420E030E00FC0DB010D90C0
:100FE0000020E9F71197A61BB70BE881F981028071
:100FF000F381E02DAD0109959C01C901DF91CF91ED
:1010000008954F925F927F928F929F92AF92BF927C
:10101000CF92DF92EF92FF920F931F93DF93CF93C4
:10102000CDB7DEB7A1970FB6F894DEBF0FBECDBF28
:101030002C01742ECB01223008F42AE019A231E2EF
:10104000C32ED12CCC0EDD1E822E9924AA24BB24C3
:10105000672D752FA50194010E94710F79018A01F6
:10106000C801B701A50194010E94330F472D461B0B
:101070000894C108D1084A3014F4405D01C0495CAD
:10108000F6014083E114F1040105110521F07E2CE5
:101090005F2DC801DDCFC201B6010E94E507A19610
:1010A0000FB6F894DEBF0FBECDBFCF91DF911F9179
:1010B0000F91FF90EF90DF90CF90BF90AF909F90F7
:1010C0008F907F905F904F900895DC01211531053E
:1010D00041F4ED91FC910190F081E02D642F099590
:1010E00008950E9401080895EF92FF920F931F93B5
:1010F0009A01E62EFF2400E010E0B801A7010E944B
:1011000065081F910F91FF90EF9008951F920F9225
:101110000FB60F9211242F933F934F935F936F93CA
:101120007F938F939F93AF93BF93EF93FF938091A0
:101130000D0490910E04892B29F0E0910D04F0919B
:101140000E040995FF91EF91BF91AF919F918F91FF
:101150007F916F915F914F913F912F910F900FBEB3
:101160000F901F9018951F920F920FB60F92112497
:101170002F933F934F935F936F937F938F939F939F
:10118000AF93BF93EF93FF9380910F04909110045E
:10119000892B29F0E0910F04F09110040995FF913B
:1011A000EF91BF91AF919F918F917F916F915F91DF
:1011B0004F913F912F910F900FBE0F901F90189558
:1011C0002F923F924F925F926F927F928F929F9257
:1011D000AF92BF92CF92DF92EF92FF920F931F9345
:1011E000DF93CF93CDB7DEB73B014C0119012A0144
:1011F0006D897E898F89988D6A197B098C099D0973
:10120000621A730A840A950AA40193010E94330F9B
:10121000E218F30804091509A80197010E94930F29
:101220002A0D3B1D4C1D5D1DB901CA01CF91DF91F7
:101230001F910F91FF90EF90DF90CF90BF90AF90F4
:101240009F908F907F906F905F904F903F902F90E6
:1012500008951F920F920FB60F9211242F933F9370
:101260008F939F93AF93BF93809115049091160431
:10127000A0911704B0911804309119040196A11D92
:10128000B11D232F2D5F2D3720F02D570196A11D65
:10129000B11D209319048093150490931604A09314
:1012A0001704B09318048091110490911204A09136
:1012B0001304B09114040196A11DB11D8093110473
:1012C00090931204A0931304B0931404BF91AF91B0
:1012D0009F918F913F912F910F900FBE0F901F9074
:1012E0001895789484B5826084BD84B5816084BD8E
:1012F00085B5826085BD85B5816085BDEEE6F0E08F
:10130000808181608083E1E8F0E0108280818260EA
:101310008083808181608083E0E8F0E0808181606B
:101320008083E1EBF0E0808184608083E0EBF0E09B
:10133000808181608083EAE7F0E08081846080833F
:1013400080818260808380818160808380818068E9
:1013500080831092C1000895CF93DF93482F50E00F
:10136000CA0186569F4FFC0134914A575F4FFA01DC
:101370008491882369F190E0880F991FFC01E85956
:10138000FF4FA591B491FC01EE58FF4FC591D49148
:10139000662351F42FB7F8948C91932F909589235D
:1013A0008C93888189230BC0623061F42FB7F89445
:1013B0008C91932F909589238C938881832B88839C
:1013C0002FBF06C09FB7F8948C91832B8C939FBF3F
:1013D000DF91CF910895482F50E0CA0182559F4F69
:1013E000FC012491CA0186569F4FFC0194914A57F3
:1013F0005F4FFA013491332309F440C0222351F1A5
:10140000233071F0243028F42130A1F0223011F57E
:1014100014C02630B1F02730C1F02430D9F404C014
:10142000809180008F7703C0809180008F7D8093B2
:10143000800010C084B58F7702C084B58F7D84BDD5
:1014400009C08091B0008F7703C08091B0008F7D7C
:101450008093B000E32FF0E0EE0FFF1FEE58FF4F38
:10146000A591B4912FB7F894662321F48C919095AF
:10147000892302C08C91892B8C932FBF0895FC0186
:1014800080911A048C3090F480838F5F80931A04CB
:10149000815090E0FC01EE0FFF1FE80FF91FE55EA1
:1014A000FB4F88EB9BE09283818308958FEF8083CD
:1014B0000895FC0120812C30B8F58181992787FDA2
:1014C000909548E850E0481B590B440F551F440FB6
:1014D000551F6417750784F08281992787FD9095C1
:1014E00048E552E0481B590B440F551F440F551F48
:1014F000641775070CF4AB0142505040CA01AA278B
:1015000097FDA095BA2F880F991FAA1FBB1F4FB731
:10151000F89430E0F901EE0FFF1FE20FF31FE55ED4
:10152000FB4F928381834FBF0895AF92BF92CF92BA
:10153000DF92EF92FF920F931F93CF93DF93EC0113
:101540009B0182E0603278070CF048C077FF03C04F
:1015500020E030E005C0653B710514F024EB30E07D
:1015600000D000D0B901882777FD8095982F298178
:10157000332727FD3095E8E8AE2EB12CA21AB30A26
:10158000AA0CBB1CAA0CBB1CCC24B7FCC094DC2C42
:10159000EA81FF27E7FDF09528E532E02E1B3F0B9F
:1015A000220F331F220F331F442737FD4095542F3E
:1015B000EDB7FEB7218332834383548320E030E0CC
:1015C00040E050E004EBE02EF12C012D112D0E94A3
:1015D000E0089B010F900F900F900F90CE01B90182
:1015E0000E94590ADF91CF911F910F91FF90EF90C8
:1015F000DF90CF90BF90AF900895CF92DF92EF929F
:10160000FF921F93CF93DF93EC01162F7A016901AC
:1016100088818C3008F064C0862F61E00E94AC099C
:10162000888190E0FC01EE0FFF1FE80FF91FE55ED7
:10163000FB4F1F738081807C812B808380E292E04E
:101640008E199F0964E070E00E945E0F698380E656
:1016500099E08C199D0964E070E00E945E0F6A8336
:10166000A8818A2F6CE00E94520F682F70E0AB01B6
:10167000440F551F460F571F440F551F440F551F4A
:1016800020E030E0C901840F951FFC01EE0FFF1F21
:10169000E80FF91FE55EFB4F808186FD15C02F5FC7
:1016A0003F4F2C30310571F724C01092800082E04A
:1016B000809381001092850010928400B19A8091ED
:1016C0006F00826080936F008A2F90E0FC01EE0F24
:1016D000FF1FE80FF91FE55EFB4F80818064808368
:1016E0008881DF91CF911F91FF90EF90DF90CF9095
:1016F0000895672BD1F2E8CF40E252E020E639E0CE
:101700000E94FD0A08951F920F920FB60F921124A6
:101710002F933F934F935F936F937F938F939F93F9
:10172000AF93BF93EF93FF9380913F0487FF05C072
:1017300010928500109284002BC020913F04332723
:1017400027FD309580911A0490E02817390704F599
:1017500080913F04992787FD9095FC01EE0FFF1FB4
:10176000E80FF91FE55EFB4F808186FF11C0809175
:101770003F04992787FD9095FC01EE0FFF1FE80FAE
:10178000F91FE55EFB4F80818F7360E00E94EB09DB
:1017900080913F048F5F80933F0420913F04332763
:1017A00027FD309580911A0490E0281739070CF036
:1017B0004EC080913F048C300CF049C020918400D1
:1017C0003091850080913F04992787FD9095FC0119
:1017D000EE0FFF1FE80FF91FE55EFB4F818192813D
:1017E000280F391F309389002093880080913F048F
:1017F000992787FD9095FC01EE0FFF1FE80FF91F59
:10180000E55EFB4F808186FF2BC080913F049927C6
:1018100087FD9095FC01EE0FFF1FE80FF91FE55EB5
:10182000FB4F80818F7361E00E94EB0919C080E457
:101830009CE905C080918400909185000496909366
:101840008900809388008FEF80933F0409C08091C6
:10185000840090918500049680549C4940F3EACF1F
:10186000FF91EF91BF91AF919F918F917F916F9178
:101870005F914F913F912F910F900FBE0F901F904E
:1018800018950F931F9300E414E0C8010E943F0ACB
:10189000C80103960E943F0AC80106960E943F0AAB
:1018A0001F910F91089593E0899FC0011124805CDE
:1018B0009B4F70E00E94950A089593E0899FC001B4
:1018C0001124805C9B4F70E00E947C0B089550585F
:1018D000BB27AA270ED00FC200D230F005D220F0CD
:1018E00031F49F3F11F41EF4F5C10EF4E095E7FBCF
:1018F000C0C1E92F11D280F3BA17620773078407BA
:10190000950718F071F49EF540C20EF4E0950B2E89
:10191000BA2FA02D0B01B90190010C01CA01A00141
:101920001124FF27591B99F0593F50F4503E68F19C
:101930001A16F040A22F232F342F4427585FF3CFDD
:10194000469537952795A795F0405395C9F77EF4AE
:101950001F16BA0B620B730B840BBAF09150A1F0F7
:10196000FF0FBB1F661F771F881FC2F70EC0BA0F7D
:10197000621F731F841F48F4879577956795B79505
:10198000F7959E3F08F0B3CF9395880F08F09927FD
:10199000EE0F979587950895E1D180F09F3740F439
:1019A00091110EF4F3C160E070E080E89FE30895C8
:1019B00026F01B16611D711D811D61C17BC135D1D2
:1019C00008F481E008950CD096C18ED140F085D105
:1019D00030F021F45F3F19F04CC15111D7C17AC1E9
:1019E0009BD198F39923C9F35523B1F3951B550B5C
:1019F000BB27AA2762177307840738F09F5F5F4FE2
:101A0000220F331F441FAA1FA9F333D00E2E3AF022
:101A1000E0E830D091505040E695001CCAF729D03C
:101A2000FE2F27D0660F771F881FBB1F261737078B
:101A30004807AB07B0E809F0BB0B802DBF01FF27BB
:101A400093585F4F2AF09E3F510568F012C19EC126
:101A50005F3FECF3983EDCF3869577956795B795F5
:101A6000F7959F5FC9F7880F911D9695879597F910
:101A70000895E1E0660F771F881FBB1F6217730789
:101A80008407BA0720F0621B730B840BBA0BEE1F9E
:101A900088F7E095089548D188F09F5790F0B92FC6
:101AA0009927B751A0F0D1F0660F771F881F991FB3
:101AB0001AF0BA95C9F712C0B13081F066D1B1E021
:101AC000089563C1672F782F8827B85F39F0B93F31
:101AD000CCF3869577956795B395D9F73EF49095B5
:101AE0008095709561957F4F8F4F9F4F0895E89433
:101AF00009C097FB3EF490958095709561957F4F56
:101B00008F4F9F4F9923A9F0F92F96E9BB27939503
:101B1000F695879577956795B795F111F8CFFAF413
:101B2000BB0F11F460FF1BC06F5F7F4F8F4F9F4F44
:101B300016C0882311F096E911C0772321F09EE8A2
:101B4000872F762F05C0662371F096E8862F70E008
:101B500060E02AF09A95660F771F881FDAF7880FE2
:101B60009695879597F90895F9D080F09F3740F4BE
:101B700091110EF00BC160E070E080E89FEB0895DA
:101B800026F41B16611D711D811D79C093C0A5D05F
:101B900018F011F0A9D038F49DC0F8C0E92FBCD0DE
:101BA000B0F35523C9F3E7FB621773078407950762
:101BB000A8F199F3E92FFF2788232AF03197660FC0
:101BC000771F881FDAF7952F5527442332F091505D
:101BD0005040220F331F441FD2F7BB27E91BF50BE0
:101BE000621B730B840BB109C1F222F4620F731FE5
:101BF000841FB11D31972AF0660F771F881FBB1F06
:101C0000EFCF915050405AF041F0882332F0660FE8
:101C1000771F881F91505040C1F793954BC0869510
:101C2000779567959F5FD9F7F8CF990F0008550F03
:101C3000AA0BE0E8FEEF16161706E807F907C0F052
:101C400012161306E407F50798F0621B730B840B5A
:101C5000950B39F40A2661F0232B242B252B21F434
:101C600008950A2609F4A140A6958FEF811D811DD4
:101C7000089597F99F6780E870E060E008958823F1
:101C800071F4772321F09850872B762F07C06623B5
:101C900011F499270DC09051862B70E060E02AF076
:101CA0009A95660F771F881FDAF7880F96958795A4
:101CB00097F908959F3F49F0915028F486957795BC
:101CC0006795B7959F5F80389F4F880F969587954A
:101CD00097F908959FEF80EC089500240A94161652
:101CE000170618060906089500240A94121613060A
:101CF000140605060895092E0394000C11F4882398
:101D000052F0BB0F40F4BF2B11F460FF04C06F5FB3
:101D10007F4F8F4F9F4F089557FD9058440F551F89
:101D200059F05F3F71F04795880F97FB991F61F05D
:101D30009F3F79F087950895121613061406551FD4
:101D4000F2CF4695F1DF08C0161617061806991F40
:101D5000F1CF86957105610508940895E5DFA0F03F
:101D6000BEE7B91788F4BB279F3860F41616B11D7B
:101D7000672F782F8827985FF7CF86957795679597
:101D8000B11D93959639C8F30895E894BB2766274B
:101D90007727CB0197F9089548DF08F48FEF08956E
:101DA0000BD0A9CF9ADF28F09FDF18F0952309F018
:101DB00060CF90CF1124EACFAFDFA0F3959FD1F38E
:101DC000950F50E0551F629FF001729FBB27F00DE9
:101DD000B11D639FAA27F00DB11DAA1F649F66273E
:101DE000B00DA11D661F829F2227B00DA11D621F8D
:101DF000739FB00DA11D621F839FA00D611D221F47
:101E0000749F3327A00D611D231F849F600D211D2A
:101E1000822F762F6A2F11249F5750408AF0E1F0CD
:101E200088234AF0EE0FFF1FBB1F661F771F881F16
:101E300091505040A9F79E3F510570F01ACFA6CFA0
:101E40005F3FECF3983EDCF3869577956795B79501
:101E5000F795E7959F5FC1F7FE2B880F911D96952B
:101E6000879597F90895629FD001739FF001829F33
:101E7000E00DF11D649FE00DF11D929FF00D839F19
:101E8000F00D749FF00D659FF00D9927729FB00DB6
:101E9000E11DF91F639FB00DE11DF91FBD01CF01C9
:101EA00011240895991B79E004C0991F961708F032
:101EB000961B881F7A95C9F78095089597FB092E80
:101EC00007260AD077FD04D049D006D000201AF4A6
:101ED000709561957F4F0895F6F7909581959F4F86
:101EE0000895A1E21A2EAA1BBB1BFD010DC0AA1F5B
:101EF000BB1FEE1FFF1FA217B307E407F50720F073
:101F0000A21BB30BE40BF50B661F771F881F991FED
:101F10001A9469F760957095809590959B01AC0136
:101F2000BD01CF01089597FB092E05260ED057FD60
:101F300004D0D7DF0AD0001C38F450954095309576
:101F400021953F4F4F4F5F4F0895F6F7909580953D
:101F5000709561957F4F8F4F9F4F0895AA1BBB1BB4
:101F600051E107C0AA1FBB1FA617B70710F0A61B99
:101F7000B70B881F991F5A95A9F780959095BC01BA
:101F8000CD010895EE0FFF1F0590F491E02D099407
:041F9000F894FFCFF3
:101F940046697865645374657044697363726574E3
:101FA40065000000A0400000A04000000C420000BA
:101FB4000C4200008242000082420000BE42000047
:101FC400BE420000FA4200000000000000000000D1
:101FD400F0410000F0410000704200007042000037
:101FE400B4420000B4420000F0420000F04200009D
:101FF4001643000016430000304300003043000045
:102004001643000016430000F0420000F0420000B6
:10201400B4420000B442000070420000704200006C
:10202400F0410000F041000000000000000000004A
:10203400B4420000B442000070420000704200004C
:10204400F0410000F041000000000000000000002A
:10205400F0C10000F0C1000070C2000070C20000B6
:10206400B4C20000B4C2000070C2000070C200001C
:10207400F0C10000F0C100000000000000000000FA
:10208400F0410000F0410000704200007042000086
:10209400B4420000B4420B0000000A000000090032
:1020A4000000000002440000000000000B43000098
:1020B4000C4300808143000082430080C74300003A
:1020C400C84300C00144000002440000803F0000F7
:1020D40034430000000000000000000082430000C0
:1020E40000000000A0410000A841000020420000C0
:1020F400244200007042000074420000A04200002C
:10210400A2420000C8420000CA420000F04200009F
:10211400F24200000C4300000D4300002043000085
:1021240021430000344300003543000048430000CD
:10213400494300005C4300005D430000704300001D
:10214400714300008243000034430000000000009B
:102154003343000020420000000000000040000063
:1021640040400000A0400000C040000000410000CA
:102174001041000030410000404100006041000077
:10218400704100008841000090410000B841000007
:10219400C0410000D0410000D8410000E8410000E7
:1021A400F041000000420000044200000C42000024
:1021B40010420000184200001C42000020420000AF
:1021C400B4420000B4C20000B8420001026104003D
:1021D400000000CC06B307620693067306BC060033
:0621E4000000007107007D
:00000001FF
