:100000000C9464000C94AF050C94DC050C948C00EB
:100010000C948C000C948C000C948C000C948C0030
:100020000C948C000C9469010C948C000C94AC081A
:100030000C948C000C948C000C948C000C948C0010
:100040000C9452060C948C000C9415030C945003E1
:100050000C948C000C948C000C948C000C948C00F0
:100060000C948C000C948C000000000024002700ED
:100070002A0000000000250028002B0000000000DE
:1000800023002600290004040404040404040202DA
:100090000202020203030303030301020408102007
:1000A0004080010204081020010204081020000012
:1000B0000007000201000003040600000000000029
:1000C000000035048B046A0911241FBECFEFD8E06D
:1000D000DEBFCDBF11E0A0E0B1E0E4EEF7E102C089
:1000E00005900D92A435B107D9F712E0A4E5B1E06F
:1000F00001C01D92A135B107E1F710E0C8ECD0E0D6
:1001000004C02297FE010E94EC0BC23CD107C9F744
:100110000E948E000C94F00B0C9400000E949A0632
:100120000E94A10183E88093B200809170008E7FCD
:10013000809370008091B0008C7F8093B00080919C
:10014000B100877F8093B1008091B1008660809379
:10015000B1008091B1008E7F8093B10080917000DA
:10016000816080937000E0913C01F0913D018081BD
:100170009181892BE1F30E94A001F89480E090E046
:100180000895BF92CF92DF92EF92FF920F931F9349
:10019000DF93CF9300D00F92CDB7DEB720915701F8
:1001A0002F5F20935701215049F081E090E0909318
:1001B000560180935501209357017EC07894E091B9
:1001C0003C01F0913D0120E084819581892B09F467
:1001D00021E02A8310E086819781892B09F411E0C0
:1001E0001B830E94BB010E949B01F89480915701E0
:1001F0008150809357018A81882359F080915B0157
:10020000282F2F5F20935B01882319F0E1E0F0E0B5
:100210000CC01123A1F080915C01282F2F5F209347
:100220005C01882361F0E2E0F0E081E090E09093EF
:10023000560180935501E65AFE4F2150208308E570
:1002400011E09BE5C92E91E0D92E81E0E82EF12C3A
:10025000BB24B394F8018081882371F5F601808175
:100260008823F1F0F801B0827894F1E0EF16F10400
:1002700029F082E0E816F10451F405C00E949C01C7
:100280000E949D0104C00E949E010E949F01F8945B
:10029000F601808181508083F801808181508083C4
:1002A0000894E11CF11C0F5F1F4F0894C11CD11C66
:1002B000F3E0EF16F10471F60F900F900F90CF91CD
:1002C000DF911F910F91FF90EF90DF90CF90BF9043
:1002D00008951F920F920FB60F9211242F933F9300
:1002E0004F935F936F937F938F939F93AF93BF933E
:1002F000EF93FF9383E88093B200809154018F5F66
:100300008093540180915401853021F4109254015E
:100310000E94C100FF91EF91BF91AF919F918F918A
:100320007F916F915F914F913F912F910F900FBEF1
:100330000F901F90189508950895089508950895B1
:10034000089588E0E9E4F2E0DF011D928A95E9F77B
:1003500080913901609100010E94860980913A01E3
:10036000609104010E94860980913B01609108011F
:100370000E9486090895AF92BF92CF92DF92EF92CA
:10038000FF920F931F9380914D0290914E02019620
:1003900090934E0280934D028436910520F0109286
:1003A0004E0210924D0280914F02909150020196A0
:1003B0009093500280934F028C5B924020F01092F9
:1003C000500210924F0260911001709111018091C2
:1003D00012019091130120910C0130910D01409177
:1003E0000E0150910F010E94F80A7B018C01D09000
:1003F0001401C0901501B0901601A09017012D2D89
:100400003C2D4B2D5A2D0E94F40A181694F0D090D2
:100410001801C0901901B0901A01A0901B01C801E9
:10042000B7012D2D3C2D4B2D5A2D0E94F509882307
:1004300034F48D2D9C2DAB2DBA2D7C018D01609156
:100440001C0170911D0180911E0190911F01A80156
:1004500097010E9490090E942A0A7B018C0120E0EA
:1004600030E040E053E40E94F50987FD02C06FE7E9
:1004700010C0C801B70120E030E040E053EC0E941A
:10048000F40A87FF02C060E804C0C801B7010E94F7
:10049000F90980913801680F809139010E947C0927
:1004A000D0900C01C0900D01B0900E01A0900F01F2
:1004B000E0902001F0902101009122011091230190
:1004C0006D2D7C2D8B2D9A2DA80197010E94F40A89
:1004D0001816C4F0E0902401F09025010091260147
:1004E000109127016D2D7C2D8B2D9A2DA801970140
:1004F0000E94F50987FD06C08D2D9C2DAB2DBA2DD0
:100500007C018D01609128017091290180912A015F
:1005100090912B01A80197010E9490097B018C0109
:1005200020E030E040E853E40E94F50987FD02C076
:100530006FEF10C0C801B70120E030E040E050E0AC
:100540000E94F40A87FF02C060E004C0C801B7013E
:100550000E94FE0980913A010E947C09D0900C0112
:10056000C0900D01B0900E01A0900F01E0902C0101
:10057000F0902D0100912E0110912F016D2D7C2DF9
:100580008B2D9A2DA80197010E94F40A1816C4F029
:10059000E0903001F090310100913201109133016F
:1005A0006D2D7C2D8B2D9A2DA80197010E94F509A8
:1005B00087FD06C08D2D9C2DAB2DBA2D7C018D01A4
:1005C000C801B701209134013091350140913601C5
:1005D000509137010E9491097B018C0120E030E0AD
:1005E00040E853E40E94F50987FD02C06FEF10C098
:1005F000C801B70120E030E040E050E00E94F40A7A
:1006000087FF02C060E004C0C801B7010E94FE0974
:1006100080913B010E947C091F910F91FF90EF9008
:10062000DF90CF90BF90AF9008951F920F920FB6BA
:100630000F9211242F933F934F938F939F93EF9398
:10064000FF938091C00082FD1DC04091C6002091A3
:100650009D0130919E012F5F3F4F2F73307080912D
:100660009F019091A0012817390771F0E0919D0139
:10067000F0919E01E35AFE4F408330939E012093F8
:100680009D0102C08091C600FF91EF919F918F91D3
:100690004F913F912F910F900FBE0F901F90189583
:1006A0001F920F920FB60F9211242F933F938F93A7
:1006B0009F93EF93FF932091E1013091E2018091AC
:1006C000E3019091E4012817390731F48091C100CA
:1006D0008F7D8093C10014C0E091E301F091E401AB
:1006E000EF55FE4F20818091E3019091E401019646
:1006F0008F7390709093E4018093E3012093C60080
:10070000FF91EF919F918F913F912F910F900FBE8D
:100710000F901F901895DC011C96ED91FC911D9790
:10072000E05CFF4F2191319180819181281B390B31
:100730002F733070C9010895DC011C96ED91FC9176
:100740001D97E05CFF4F20813181E054F040DF01D4
:10075000AE5BBF4F8D919C9111972817390719F403
:100760002FEF3FEF07C08D919C91E80FF91F80811B
:10077000282F30E0C9010895DC011C96ED91FC9111
:100780001D97E05CFF4F20813181E054F040DF0194
:10079000AE5BBF4F8D919C9111972817390719F4C3
:1007A0002FEF3FEF10C08D919C911197E80FF91F2B
:1007B00020818D919C91119701968F739070119665
:1007C0009C938E9330E0C9010895DC0191968C9141
:1007D0009197882339F05496ED91FC91559780813B
:1007E00086FFF9CF91961C920895CF93DF93EC0189
:1007F000EE85FF85E05CFF4F20813181E054F040C1
:100800002F5F3F4F2F733070DF01AE5BBF4F8D9175
:100810009C91119728173907D1F3E05CFF4F808135
:100820009181E054F040E80FF91F6083EE85FF8569
:10083000E05CFF4F31832083EE89FF89208181E0D6
:1008400090E00F8C02C0880F991F0A94E2F7282BC2
:10085000208381E089A3EC89FD8980818064808385
:1008600081E090E0DF91CF9108951092E80110921D
:10087000E70188EE93E0A0E0B0E08093E901909377
:10088000EA01A093EB01B093EC0182E491E0909334
:10089000E6018093E5018DE591E09093F20180936C
:1008A000F10181EA91E09093F4018093F30185ECEA
:1008B00090E09093F6018093F50184EC90E09093A2
:1008C000F8018093F70180EC90E09093FA01809317
:1008D000F90181EC90E09093FC018093FB0182ECA4
:1008E00090E09093FE018093FD0186EC90E0909360
:1008F00000028093FF0184E08093010283E08093F3
:10090000020287E08093030285E08093040281E085
:1009100080930502089582E591E090930802809308
:1009200007021092090210920A0210920B02109212
:100930000C0208958F929F92AF92BF92CF92DF9256
:10094000EF92FF920F931F93CF93DF934C016B01B4
:100950007C01AA24BB24C0E0D0E0C601F70162817B
:100960004AE050E00E949D058C01C6016EE20E94A3
:100970000605080F191FA00EB11E21960894E11C50
:10098000F11CC330D10549F7C601F40165814AE085
:1009900050E00E949D059501280F391FC901DF9184
:1009A000CF911F910F91FF90EF90DF90CF90BF906C
:1009B000AF909F908F900895CF92DF92EF92FF9229
:1009C0000F931F93CF93DF937C016B018A01C0E0EB
:1009D000D0E00FC0D6016D916D01D701ED91FC9172
:1009E0000190F081E02DC7010995C80FD91F015072
:1009F00010400115110571F7CE01DF91CF911F91C4
:100A00000F91FF90EF90DF90CF900895DC01ED9172
:100A1000FC910190F081E02D09950895CF93DF932B
:100A2000EC016115710519F420E030E00FC0DB0125
:100A30000D900020E9F71197A61BB70BE881F9810B
:100A40000280F381E02DAD0109959C01C901DF9180
:100A5000CF9108954F925F927F928F929F92AF9223
:100A6000BF92CF92DF92EF92FF920F931F93DF938B
:100A7000CF93CDB7DEB7A1970FB6F894DEBF0FBE08
:100A8000CDBF2C01742ECB01223008F42AE019A22C
:100A900031E2C32ED12CCC0EDD1E822E9924AA2445
:100AA000BB24672D752FA50194010E94990B790134
:100AB0008A01C801B701A50194010E945B0B472D73
:100AC000461B0894C108D1084A3014F4405D01C0A7
:100AD000495CF6014083E114F1040105110521F0A0
:100AE0007E2C5F2DC801DDCFC201B6010E940E052C
:100AF000A1960FB6F894DEBF0FBECDBFCF91DF91A8
:100B00001F910F91FF90EF90DF90CF90BF90AF902B
:100B10009F908F907F905F904F900895DC012115FA
:100B2000310541F4ED91FC910190F081E02D642FAD
:100B3000099508950E942A050895EF92FF920F9358
:100B40001F939A01E62EFF2400E010E0B801A701F0
:100B50000E948E051F910F91FF90EF9008951F92B4
:100B60000F920FB60F9211242F933F934F935F93E1
:100B70006F937F938F939F93AF93BF93EF93FF9365
:100B800080910D0290910E02892B29F0E0910D02C7
:100B9000F0910E020995FF91EF91BF91AF919F9156
:100BA0008F917F916F915F914F913F912F910F9016
:100BB0000FBE0F901F9018951F920F920FB60F92B5
:100BC00011242F933F934F935F936F937F938F9352
:100BD0009F93AF93BF93EF93FF9380910F029091F8
:100BE0001002892B29F0E0910F02F0911002099573
:100BF000FF91EF91BF91AF919F918F917F916F91F5
:100C00005F914F913F912F910F900FBE0F901F90CA
:100C100018952F923F924F925F926F927F928F9290
:100C20009F92AF92BF92CF92DF92EF92FF920F937B
:100C30001F93DF93CF93CDB7DEB73B014C01190172
:100C40002A016D897E898F89988D6A197B098C09A3
:100C50009D09621A730A840A950AA40193010E94ED
:100C60005B0BE218F30804091509A80197010E941B
:100C7000BB0B2A0D3B1D4C1D5D1DB901CA01CF9157
:100C8000DF911F910F91FF90EF90DF90CF90BF9079
:100C9000AF909F908F907F906F905F904F903F901C
:100CA0002F9008951F920F920FB60F9211242F9339
:100CB0003F938F939F93AF93BF9380911502909131
:100CC0001602A0911702B0911802309119020196F4
:100CD000A11DB11D232F2D5F2D3720F02D5701961B
:100CE000A11DB11D20931902809315029093160245
:100CF000A0931702B09318028091110290911202F2
:100D0000A0911302B09114020196A11DB11D809310
:100D1000110290931202A0931302B0931402BF9198
:100D2000AF919F918F913F912F910F900FBE0F9098
:100D30001F901895789484B5826084BD84B58160D5
:100D400084BD85B5826085BD85B5816085BDEEE6D3
:100D5000F0E0808181608083E1E8F0E010828081B2
:100D600082608083808181608083E0E8F0E0808120
:100D700081608083E1EBF0E0808184608083E0EB40
:100D8000F0E0808181608083EAE7F0E08081846028
:100D90008083808182608083808181608083808184
:100DA000806880831092C1000895CF93DF93482F0D
:100DB00050E0CA0186569F4FFC0134914A575F4F5D
:100DC000FA018491882369F190E0880F991FFC0152
:100DD000E859FF4FA591B491FC01EE58FF4FC59122
:100DE000D491662351F42FB7F8948C91932F90955A
:100DF00089238C93888189230BC0623061F42FB7DB
:100E0000F8948C91932F909589238C938881832BD0
:100E100088832FBF06C09FB7F8948C91832B8C9347
:100E20009FBFDF91CF910895482F50E0CA018255AE
:100E30009F4FFC012491CA0186569F4FFC0194915B
:100E40004A575F4FFA013491332309F440C02223FB
:100E500051F1233071F0243028F42130A1F02230F8
:100E600011F514C02630B1F02730C1F02430D9F488
:100E700004C0809180008F7703C0809180008F7DB7
:100E80008093800010C084B58F7702C084B58F7DB9
:100E900084BD09C08091B0008F7703C08091B000FD
:100EA0008F7D8093B000E32FF0E0EE0FFF1FEE5830
:100EB000FF4FA591B4912FB7F894662321F48C913C
:100EC0009095892302C08C91892B8C932FBF089514
:100ED000FC0180911A028C3090F480838F5F8093A4
:100EE0001A02815090E0FC01EE0FFF1FE80FF91F7E
:100EF000E55EFD4F88EB9BE09283818308958FEF41
:100F000080830895FC0120812C30B8F581819927D8
:100F100087FD909548E850E0481B590B440F551F3A
:100F2000440F551F6417750784F08281992787FD48
:100F3000909548E552E0481B590B440F551F440F4C
:100F4000551F641775070CF4AB0142505040CA019D
:100F5000AA2797FDA095BA2F880F991FAA1FBB1F1C
:100F60004FB7F89430E0F901EE0FFF1FE20FF31FC7
:100F7000E55EFD4F928381834FBF0895AF92BF928C
:100F8000CF92DF92EF92FF920F931F93CF93DF9355
:100F9000EC019B0182E0603278070CF048C077FFDB
:100FA00003C020E030E005C0653B710514F024EB80
:100FB00030E000D000D0B901882777FD8095982FC8
:100FC0002981332727FD3095E8E8AE2EB12CA21AEF
:100FD000B30AAA0CBB1CAA0CBB1CCC24B7FCC09443
:100FE000DC2CEA81FF27E7FDF09528E532E02E1B97
:100FF0003F0B220F331F220F331F442737FD40952D
:10100000542FEDB7FEB7218332834383548320E00E
:1010100030E040E050E004EBE02EF12C012D112DEA
:101020000E9409069B010F900F900F900F90CE0128
:10103000B9010E948207DF91CF911F910F91FF901C
:10104000EF90DF90CF90BF90AF900895CF92DF9256
:10105000EF92FF921F93CF93DF93EC01162F7A014B
:10106000690188818C3008F064C0862F61E00E949D
:10107000D506888190E0FC01EE0FFF1FE80FF91FF5
:10108000E55EFD4F1F738081807C812B808380E231
:1010900092E08E199F0964E070E00E94860B6983DC
:1010A00080E699E08C199D0964E070E00E94860B4F
:1010B0006A83A8818A2F6CE00E947A0B682F70E007
:1010C000AB01440F551F460F571F440F551F440FC8
:1010D000551F20E030E0C901840F951FFC01EE0F81
:1010E000FF1FE80FF91FE55EFD4F808186FD15C0EB
:1010F0002F5F3F4F2C30310571F724C010928000D4
:1011000082E0809381001092850010928400B19A51
:1011100080916F00826080936F008A2F90E0FC01C5
:10112000EE0FFF1FE80FF91FE55EFD4F8081806421
:1011300080838881DF91CF911F91FF90EF90DF90A6
:10114000CF900895672BD1F2E8CF40E252E020E63D
:1011500039E00E94260808951F920F920FB60F9251
:1011600011242F933F934F935F936F937F938F93AC
:101170009F93AF93BF93EF93FF9380913F0287FFBD
:1011800005C010928500109284002BC020913F0270
:10119000332727FD309580911A0290E028173907F0
:1011A00004F580913F02992787FD9095FC01EE0F91
:1011B000FF1FE80FF91FE55EFD4F808186FF11C01C
:1011C00080913F02992787FD9095FC01EE0FFF1F4C
:1011D000E80FF91FE55EFD4F80818F7360E00E948C
:1011E000140780913F028F5F80933F0220913F025E
:1011F000332727FD309580911A0290E02817390790
:101200000CF04EC080913F028C300CF049C0209110
:1012100084003091850080913F02992787FD909549
:10122000FC01EE0FFF1FE80FF91FE55EFD4F818106
:101230009281280F391F3093890020938800809174
:101240003F02992787FD9095FC01EE0FFF1FE80FE5
:10125000F91FE55EFD4F808186FF2BC080913F0224
:10126000992787FD9095FC01EE0FFF1FE80FF91FEE
:10127000E55EFD4F80818F7361E00E94140719C005
:1012800080E49CE905C080918400909185000496DB
:1012900090938900809388008FEF80933F0209C06C
:1012A0008091840090918500049680549C4940F37D
:1012B000EACFFF91EF91BF91AF919F918F917F9175
:1012C0006F915F914F913F912F910F900FBE0F90B3
:1012D0001F9018950F931F9300E412E0C8010E941D
:1012E0006807C80103960E946807C80106960E9415
:1012F00068071F910F91089593E0899FC001112401
:10130000805C9D4F70E00E94BE07089593E0899F26
:10131000C0011124805C9D4F70E00E94A5080895D3
:101320005058BB27AA270ED00EC1FFD030F004D1F1
:1013300020F031F49F3F11F41EF4F4C00EF4E09558
:10134000E7FBBFC0E92F10D180F3BA17620773071C
:101350008407950718F071F49EF53FC10EF4E095EF
:101360000B2EBA2FA02D0B01B90190010C01CA015F
:10137000A0011124FF27591B99F0593F50F4503E0A
:1013800068F11A16F040A22F232F342F4427585FFC
:10139000F3CF469537952795A795F0405395C9F714
:1013A0007EF41F16BA0B620B730B840BBAF09150CC
:1013B000A1F0FF0FBB1F661F771F881FC2F70EC06B
:1013C000BA0F621F731F841F48F48795779567953E
:1013D000B795F7959E3F08F0B3CF9395880F08F027
:1013E0009927EE0F97958795089547D008F481E0E7
:1013F000089504D06894B111F1C00895BDD088F06B
:101400009F5790F0B92F9927B751A0F0D1F0660FF0
:10141000771F881F991F1AF0BA95C9F712C0B1300B
:1014200081F0DBD0B1E00895D8C0672F782F8827EE
:10143000B85F39F0B93FCCF3869577956795B3954A
:10144000D9F73EF490958095709561957F4F8F4FB9
:101450009F4F0895ABD080F09F3740F491110EF06C
:10146000BDC060E070E080E89FEB089526F41B1695
:10147000611D711D811D2BC045C0990F0008550FBE
:10148000AA0BE0E8FEEF16161706E807F907C0F00A
:1014900012161306E407F50798F0621B730B840B12
:1014A000950B39F40A2661F0232B242B252B21F4EC
:1014B00008950A2609F4A140A6958FEF811D811D8C
:1014C000089597F99F6780E870E060E008958823A9
:1014D00071F4772321F09850872B762F07C066236D
:1014E00011F499270DC09051862B70E060E02AF02E
:1014F0009A95660F771F881FDAF7880F969587955C
:1015000097F908959F3F49F0915028F48695779573
:101510006795B7959F5F80389F4F880F9695879501
:1015200097F908959FEF80EC089500240A94161609
:10153000170618060906089500240A9412161306C1
:10154000140605060895092E0394000C11F488234F
:1015500052F0BB0F40F4BF2B11F460FF04C06F5F6B
:101560007F4F8F4F9F4F089557FD9058440F551F41
:1015700059F05F3F71F04795880F97FB991F61F015
:101580009F3F79F087950895121613061406551F8C
:10159000F2CF4695F1DF08C0161617061806991FF8
:1015A000F1CF86957105610508940895E5DFA0F0F7
:1015B000BEE7B91788F4BB279F3860F41616B11D33
:1015C000672F782F8827985FF7CF8695779567954F
:1015D000B11D93959639C8F30895E894BB27662703
:1015E0007727CB0197F9089548DF08F48FEF089526
:1015F0000BD0A9CF9ADF28F09FDF18F0952309F0D0
:1016000060CF90CF1124EACFAFDFA0F3959FD1F345
:10161000950F50E0551F629FF001729FBB27F00DA0
:10162000B11D639FAA27F00DB11DAA1F649F6627F5
:10163000B00DA11D661F829F2227B00DA11D621F44
:10164000739FB00DA11D621F839FA00D611D221FFE
:10165000749F3327A00D611D231F849F600D211DE2
:10166000822F762F6A2F11249F5750408AF0E1F085
:1016700088234AF0EE0FFF1FBB1F661F771F881FCE
:1016800091505040A9F79E3F510570F01ACFA6CF58
:101690005F3FECF3983EDCF3869577956795B795B9
:1016A000F795E7959F5FC1F7FE2B880F911D9695E3
:1016B000879597F90895629FD001739FF001829FEB
:1016C000E00DF11D649FE00DF11D929FF00D839FD1
:1016D000F00D749FF00D659FF00D9927729FB00D6E
:1016E000E11DF91F639FB00DE11DF91FBD01CF0181
:1016F00011240895991B79E004C0991F961708F0EA
:10170000961B881F7A95C9F78095089597FB092E37
:1017100007260AD077FD04D049D006D000201AF45D
:10172000709561957F4F0895F6F7909581959F4F3D
:101730000895A1E21A2EAA1BBB1BFD010DC0AA1F12
:10174000BB1FEE1FFF1FA217B307E407F50720F02A
:10175000A21BB30BE40BF50B661F771F881F991FA5
:101760001A9469F760957095809590959B01AC01EE
:10177000BD01CF01089597FB092E05260ED057FD18
:1017800004D0D7DF0AD0001C38F45095409530952E
:1017900021953F4F4F4F5F4F0895F6F790958095F5
:1017A000709561957F4F8F4F9F4F0895AA1BBB1B6C
:1017B00051E107C0AA1FBB1FA617B70710F0A61B51
:1017C000B70B881F991F5A95A9F780959095BC0172
:1017D000CD010895EE0FFF1F0590F491E02D0994BF
:0417E000F894FFCFAB
:1017E4000B0000000A0000000900000000000000D7
:1017F4000000803F0000B4420000B4C20000A040DA
:101804000000344300000000000033430000B442F1
:101814000000B4C20000BC425A00010249020000A8
:101824000000F503DC048B03BC039C03E503000008
:0418340000009A0412
:00000001FF
