:100000000C9464000C9470040C949D040C948C006B
:100010000C948C000C948C000C948C000C948C0030
:100020000C948C000C94EC000C948C000C946D07D8
:100030000C948C000C948C000C948C000C948C0010
:100040000C9413050C948C000C94D6010C941102A2
:100050000C948C000C948C000C948C000C948C00F0
:100060000C948C000C948C000000000024002700ED
:100070002A0000000000250028002B0000000000DE
:1000800023002600290004040404040404040202DA
:100090000202020203030303030301020408102007
:1000A0004080010204081020010204081020000012
:1000B0000007000201000003040600000000000029
:1000C0000000F6024C032B0811241FBECFEFD8E02E
:1000D000DEBFCDBF11E0A0E0B1E0ECEEF3E102C085
:1000E00005900D92A034B107D9F712E0A0E4B1E079
:1000F00001C01D92A333B107E1F710E0C8ECD0E0D6
:1001000004C02297FE010E94F009C23CD107C9F742
:100110000E948E000C94F4090C9400000E945B0570
:100120000E94200183E88093B200809170008E7F4E
:10013000809370008091B0008C7F8093B00080919C
:10014000B100877F8093B1008091B1008660809379
:10015000B1008091B1008E7F8093B10080917000DA
:10016000816080937000E0912701F09128018081E7
:100170009181892BE1F30E941F01F89480E090E0C7
:100180000895209143012F5F20934301215049F0AE
:1001900081E090E0909342018093410120934301DC
:1001A000089578940E9437010E941E01F8942091CE
:1001B000430121502093430190914401992359F028
:1001C00080914401882339F47894F8949150909365
:1001D00044012093430108951F920F920FB60F928E
:1001E00011242F933F934F935F936F937F938F933C
:1001F0009F93AF93BF93EF93FF9383E88093B200F5
:10020000809140018F5F8093400180914001853053
:1002100021F4109240010E94C100FF91EF91BF9123
:10022000AF919F918F917F916F915F914F913F918E
:100230002F910F900FBE0F901F901895089508955D
:1002400010923202109231028091240160910001DB
:100250000E94470880912501609104010E9447088F
:1002600080912601609108010E9447080895EF924D
:10027000FF920F931F9360910C0170910D0180917B
:100280000E0190910F0120911001309111014091C8
:100290001201509113010E9452087B018C0120E051
:1002A00030E040E853E40E94B60887FD02C06FEFDB
:1002B00010C0C801B70120E030E040E050E00E94EB
:1002C0005B0987FF02C060E004C0C801B7010E945B
:1002D000BA08809124010E943D0860911401709138
:1002E000150180911601909117012091180130910C
:1002F000190140911A0150911B010E9452087B0183
:100300008C0120E030E040E853E40E94B60887FD0D
:1003100002C06FEF10C0C801B70120E030E040E03C
:1003200050E00E945B0987FF02C060E004C0C80182
:10033000B7010E94BA08809125010E943D08609192
:100340001C0170911D0180911E0190911F0120914F
:1003500020013091210140912201509123010E94FE
:1003600052087B018C0120E030E040E853E40E9419
:10037000B60887FD02C06FEF10C0C801B70120E0CA
:1003800030E040E050E00E945B0987FF02C060E07F
:1003900004C0C801B7010E94BA08809126010E94DA
:1003A0003D081F910F91FF90EF9008951F920F92BB
:1003B0000FB60F9211242F933F934F938F939F93D8
:1003C000EF93FF938091C00082FD1DC04091C60055
:1003D00020918501309186012F5F3F4F2F73307040
:1003E00080918701909188012817390771F0E09179
:1003F0008501F0918601EB5BFE4F408330938601CF
:100400002093850102C08091C600FF91EF919F91DA
:100410008F914F913F912F910F900FBE0F901F9092
:1004200018951F920F920FB60F9211242F933F939E
:100430008F939F93EF93FF932091C9013091CA014D
:100440008091CB019091CC012817390731F480912C
:10045000C1008F7D8093C10014C0E091CB01F09169
:10046000CC01E757FE4F20818091CB019091CC01C8
:1004700001968F7390709093CC018093CB01209361
:10048000C600FF91EF919F918F913F912F910F9017
:100490000FBE0F901F901895DC011C96ED91FC91FA
:1004A0001D97E05CFF4F2191319180819181281B44
:1004B000390B2F733070C9010895DC011C96ED9142
:1004C000FC911D97E05CFF4F20813181E054F040AA
:1004D000DF01AE5BBF4F8D919C91119728173907B3
:1004E00019F42FEF3FEF07C08D919C91E80FF91F92
:1004F0008081282F30E0C9010895DC011C96ED9120
:10050000FC911D97E05CFF4F20813181E054F04069
:10051000DF01AE5BBF4F8D919C9111972817390772
:1005200019F42FEF3FEF10C08D919C911197E80FB8
:10053000F91F20818D919C91119701968F73907076
:1005400011969C938E9330E0C9010895DC01919639
:100550008C919197882339F05496ED91FC915597A1
:10056000808186FFF9CF91961C920895CF93DF93F7
:10057000EC01EE85FF85E05CFF4F20813181E05486
:10058000F0402F5F3F4F2F733070DF01AE5BBF4FE6
:100590008D919C91119728173907D1F3E05CFF4F9B
:1005A00080819181E054F040E80FF91F6083EE856F
:1005B000FF85E05CFF4F31832083EE89FF89208136
:1005C00081E090E00F8C02C0880F991F0A94E2F737
:1005D000282B208381E089A3EC89FD8980818064B8
:1005E000808381E090E0DF91CF9108951092D00157
:1005F0001092CF0188EE93E0A0E0B0E08093D101AB
:100600009093D201A093D301B093D4018DE291E0F5
:100610009093CE018093CD0185E491E09093DA012F
:100620008093D90189E891E09093DC018093DB010C
:1006300085EC90E09093DE018093DD0184EC90E006
:100640009093E0018093DF0180EC90E09093E201D1
:100650008093E10181EC90E09093E4018093E301C9
:1006600082EC90E09093E6018093E50186EC90E0C7
:100670009093E8018093E70184E08093E90183E0AF
:100680008093EA0187E08093EB0185E08093EC01A1
:1006900081E08093ED0108958DE391E09093F00166
:1006A0008093EF011092F1011092F2011092F30188
:1006B0001092F40108958F929F92AF92BF92CF92C1
:1006C000DF92EF92FF920F931F93CF93DF934C0132
:1006D0006B017C01AA24BB24C0E0D0E0C601F70175
:1006E00062814AE050E00E945E048C01C6016EE225
:1006F0000E94C703080F191FA00EB11E219608946F
:10070000E11CF11CC330D10549F7C601F401658134
:100710004AE050E00E945E049501280F391FC9018C
:10072000DF91CF911F910F91FF90EF90DF90CF90CD
:10073000BF90AF909F908F900895CF92DF92EF92ED
:10074000FF920F931F93CF93DF937C016B018A017C
:10075000C0E0D0E00FC0D6016D916D01D701ED91E1
:10076000FC910190F081E02DC7010995C80FD91FB8
:10077000015010400115110571F7CE01DF91CF91A5
:100780001F910F91FF90EF90DF90CF900895DC01C3
:10079000ED91FC910190F081E02D09950895CF93A2
:1007A000DF93EC016115710519F420E030E00FC012
:1007B000DB010D900020E9F71197A61BB70BE8812C
:1007C000F9810280F381E02DAD0109959C01C901F9
:1007D000DF91CF9108954F925F927F928F929F9277
:1007E000AF92BF92CF92DF92EF92FF920F931F933F
:1007F000DF93CF93CDB7DEB7A1970FB6F894DEBFE6
:100800000FBECDBF2C01742ECB01223008F42AE09C
:1008100019A231E2C32ED12CCC0EDD1E822E9924DA
:10082000AA24BB24672D752FA50194010E949D0960
:1008300079018A01C801B701A50194010E945F09ED
:10084000472D461B0894C108D1084A3014F4405D76
:1008500001C0495CF6014083E114F1040105110572
:1008600021F07E2C5F2DC801DDCFC201B6010E94B0
:10087000CF03A1960FB6F894DEBF0FBECDBFCF91C8
:10088000DF911F910F91FF90EF90DF90CF90BF907D
:10089000AF909F908F907F905F904F900895DC0174
:1008A0002115310541F4ED91FC910190F081E02D8D
:1008B000642F099508950E94EB030895EF92FF922B
:1008C0000F931F939A01E62EFF2400E010E0B80179
:1008D000A7010E944F041F910F91FF90EF90089580
:1008E0001F920F920FB60F9211242F933F934F93A5
:1008F0005F936F937F938F939F93AF93BF93EF9388
:10090000FF938091F5019091F601892B29F0E091F8
:10091000F501F091F6010995FF91EF91BF91AF912B
:100920009F918F917F916F915F914F913F912F9107
:100930000F900FBE0F901F9018951F920F920FB639
:100940000F9211242F933F934F935F936F937F9355
:100950008F939F93AF93BF93EF93FF938091F70192
:100960009091F801892B29F0E091F701F091F801BD
:100970000995FF91EF91BF91AF919F918F917F91D9
:100980006F915F914F913F912F910F900FBE0F90FC
:100990001F9018952F923F924F925F926F927F9285
:1009A0008F929F92AF92BF92CF92DF92EF92FF927F
:1009B0000F931F93DF93CF93CDB7DEB73B014C016D
:1009C00019012A016D897E898F89988D6A197B09A1
:1009D0008C099D09621A730A840A950AA40193017D
:1009E0000E945F09E218F30804091509A80197019C
:1009F0000E94BF092A0D3B1D4C1D5D1DB901CA0196
:100A0000CF91DF911F910F91FF90EF90DF90CF90EA
:100A1000BF90AF909F908F907F906F905F904F901E
:100A20003F902F9008951F920F920FB60F921124AE
:100A30002F933F938F939F93AF93BF938091FD012B
:100A40009091FE01A091FF01B0910002309101024E
:100A50000196A11DB11D232F2D5F2D3720F02D579D
:100A60000196A11DB11D209301028093FD01909379
:100A7000FE01A093FF01B09300028091F9019091D3
:100A8000FA01A091FB01B091FC010196A11DB11DDD
:100A90008093F9019093FA01A093FB01B093FC01BC
:100AA000BF91AF919F918F913F912F910F900FBE6A
:100AB0000F901F901895789484B5826084BD84B59A
:100AC000816084BD85B5826085BD85B5816085BD49
:100AD000EEE6F0E0808181608083E1E8F0E0108262
:100AE000808182608083808181608083E0E8F0E0A3
:100AF000808181608083E1EBF0E08081846080838D
:100B0000E0EBF0E0808181608083EAE7F0E08081C3
:100B10008460808380818260808380818160808323
:100B20008081806880831092C1000895CF93DF9305
:100B3000482F50E0CA0186569F4FFC0134914A5716
:100B40005F4FFA018491882369F190E0880F991F23
:100B5000FC01E859FF4FA591B491FC01EE58FF4FFD
:100B6000C591D491662351F42FB7F8948C91932FAB
:100B7000909589238C93888189230BC0623061F41E
:100B80002FB7F8948C91932F909589238C9388811B
:100B9000832B88832FBF06C09FB7F8948C91832B3B
:100BA0008C939FBFDF91CF910895482F50E0CA01E9
:100BB00082559F4FFC012491CA0186569F4FFC012C
:100BC00094914A575F4FFA013491332309F440C09E
:100BD000222351F1233071F0243028F42130A1F088
:100BE000223011F514C02630B1F02730C1F0243086
:100BF000D9F404C0809180008F7703C08091800079
:100C00008F7D8093800010C084B58F7702C084B53B
:100C10008F7D84BD09C08091B0008F7703C0809123
:100C2000B0008F7D8093B000E32FF0E0EE0FFF1F48
:100C3000EE58FF4FA591B4912FB7F894662321F495
:100C40008C919095892302C08C91892B8C932FBF16
:100C50000895FC01809102028C3090F480838F5FB4
:100C600080930202815090E0FC01EE0FFF1FE80F1D
:100C7000F91FED5FFD4F88EB9BE092838183089520
:100C80008FEF80830895FC0120812C30B8F581819D
:100C9000992787FD909548E850E0481B590B440F71
:100CA000551F440F551F6417750784F082819927DB
:100CB00087FD909548E552E0481B590B440F551F9E
:100CC000440F551F641775070CF4AB014250504098
:100CD000CA01AA2797FDA095BA2F880F991FAA1FAE
:100CE000BB1F4FB7F89430E0F901EE0FFF1FE20F82
:100CF000F31FED5FFD4F928381834FBF0895AF9245
:100D0000BF92CF92DF92EF92FF920F931F93CF93F8
:100D1000DF93EC019B0182E0603278070CF048C061
:100D200077FF03C020E030E005C0653B710514F09B
:100D300024EB30E000D000D0B901882777FD809502
:100D4000982F2981332727FD3095E8E8AE2EB12C66
:100D5000A21AB30AAA0CBB1CAA0CBB1CCC24B7FC5D
:100D6000C094DC2CEA81FF27E7FDF09528E532E00E
:100D70002E1B3F0B220F331F220F331F442737FD3B
:100D80004095542FEDB7FEB72183328343835483BC
:100D900020E030E040E050E004EBE02EF12C012DAB
:100DA000112D0E94CA049B010F900F900F900F907D
:100DB000CE01B9010E944306DF91CF911F910F919F
:100DC000FF90EF90DF90CF90BF90AF900895CF92BB
:100DD000DF92EF92FF921F93CF93DF93EC01162FD8
:100DE0007A01690188818C3008F064C0862F61E047
:100DF0000E949605888190E0FC01EE0FFF1FE80F2E
:100E0000F91FED5FFD4F1F738081807C812B8083F4
:100E100080E292E08E199F0964E070E00E948A09E6
:100E2000698380E699E08C199D0964E070E00E9476
:100E30008A096A83A8818A2F6CE00E947E09682F44
:100E400070E0AB01440F551F460F571F440F551F4D
:100E5000440F551F20E030E0C901840F951FFC01AD
:100E6000EE0FFF1FE80FF91FED5FFD4F808186FD3C
:100E700015C02F5F3F4F2C30310571F724C0109201
:100E8000800082E08093810010928500109284009F
:100E9000B19A80916F00826080936F008A2F90E0FA
:100EA000FC01EE0FFF1FE80FF91FED5FFD4F808182
:100EB000806480838881DF91CF911F91FF90EF90B4
:100EC000DF90CF900895672BD1F2E8CF40E252E057
:100ED00020E639E00E94E70608951F920F920FB6B0
:100EE0000F9211242F933F934F935F936F937F93B0
:100EF0008F939F93AF93BF93EF93FF9380912702BC
:100F000087FF05C010928500109284002BC02091AD
:100F10002702332727FD30958091020290E02817A1
:100F2000390704F580912702992787FD9095FC01E8
:100F3000EE0FFF1FE80FF91FED5FFD4F808186FF69
:100F400011C080912702992787FD9095FC01EE0F33
:100F5000FF1FE80FF91FED5FFD4F80818F7360E089
:100F60000E94D505809127028F5F809327022091F0
:100F70002702332727FD30958091020290E0281741
:100F800039070CF04EC0809127028C300CF049C01C
:100F9000209184003091850080912702992787FD58
:100FA0009095FC01EE0FFF1FE80FF91FED5FFD4F5D
:100FB00081819281280F391F309389002093880006
:100FC00080912702992787FD9095FC01EE0FFF1F66
:100FD000E80FF91FED5FFD4F808186FF2BC08091E8
:100FE0002702992787FD9095FC01EE0FFF1FE80F60
:100FF000F91FED5FFD4F80818F7361E00E94D50581
:1010000019C080E49CE905C080918400909185001E
:10101000049690938900809388008FEF8093270235
:1010200009C08091840090918500049680549C4969
:1010300040F3EACFFF91EF91BF91AF919F918F91D4
:101040007F916F915F914F913F912F910F900FBEC4
:101050000F901F9018950F931F9308E212E0C8019C
:101060000E942906C80103960E942906C801069617
:101070000E9429061F910F91089593E0899FC00156
:101080001124885D9D4F70E00E947F06089593E0D3
:10109000899FC0011124885D9D4F70E00E94660702
:1010A00008955058BB27AA270ED0CBC0BCD030F033
:1010B000C1D020F031F49F3F11F41EF4B1C00EF402
:1010C000E095E7FBA7C0E92FCDD080F3BA17620700
:1010D00073078407950718F071F49EF5E5C00EF4C8
:1010E000E0950B2EBA2FA02D0B01B90190010C0138
:1010F000CA01A0011124FF27591B99F0593F50F450
:10110000503E68F11A16F040A22F232F342F4427A7
:10111000585FF3CF469537952795A795F04053959F
:10112000C9F77EF41F16BA0B620B730B840BBAF06F
:101130009150A1F0FF0FBB1F661F771F881FC2F7DA
:101140000EC0BA0F621F731F841F48F487957795EE
:101150006795B795F7959E3F08F0B3CF9395880FA5
:1011600008F09927EE0F9795879508952FD008F4EA
:1011700081E008957FD088F09F5790F0B92F99278C
:10118000B751A0F0D1F0660F771F881F991F1AF092
:10119000BA95C9F712C0B13081F086D0B1E0089598
:1011A00083C0672F782F8827B85F39F0B93FCCF319
:1011B000869577956795B395D9F73EF49095809588
:1011C000709561957F4F8F4F9F4F0895990F00083D
:1011D000550FAA0BE0E8FEEF16161706E807F90709
:1011E000C0F012161306E407F50798F0621B730BA4
:1011F000840B950B39F40A2661F0232B242B252B25
:1012000021F408950A2609F4A140A6958FEF811DC7
:10121000811D089597F99F6780E870E060E0089568
:101220009FEF80EC089500240A94161617061806FE
:101230000906089500240A941216130614060506DA
:101240000895092E0394000C11F4882352F0BB0F6B
:1012500040F4BF2B11F460FF04C06F5F7F4F8F4FCE
:101260009F4F089557FD9058440F551F59F05F3F09
:1012700071F04795880F97FB991F61F09F3F79F0B8
:1012800087950895121613061406551FF2CF46953A
:10129000F1DF08C0161617061806991FF1CF8695BC
:1012A0007105610508940895E894BB2766277727A0
:1012B000CB0197F908958ADF08F48FEF0895629FB4
:1012C000D001739FF001829FE00DF11D649FE00D3E
:1012D000F11D929FF00D839FF00D749FF00D659F9F
:1012E000F00D9927729FB00DE11DF91F639FB00D9E
:1012F000E11DF91FBD01CF0111240895991B79E06B
:1013000004C0991F961708F0961B881F7A95C9F795
:101310008095089597FB092E07260AD077FD04D003
:1013200049D006D000201AF4709561957F4F08953A
:10133000F6F7909581959F4F0895A1E21A2EAA1B6A
:10134000BB1BFD010DC0AA1FBB1FEE1FFF1FA21775
:10135000B307E407F50720F0A21BB30BE40BF50B72
:10136000661F771F881F991F1A9469F760957095FB
:10137000809590959B01AC01BD01CF01089597FB2D
:10138000092E05260ED057FD04D0D7DF0AD0001C49
:1013900038F450954095309521953F4F4F4F5F4F12
:1013A0000895F6F790958095709561957F4F8F4FD2
:1013B0009F4F0895AA1BBB1B51E107C0AA1FBB1F6B
:1013C000A617B70710F0A61BB70B881F991F5A95D1
:1013D000A9F780959095BC01CD010895EE0FFF1FF0
:0C13E0000590F491E02D0994F894FFCFE3
:1013EC000B0000000A000000090000000000A040F3
:1013FC00000000000000B4420000000000002F4379
:10140C0000000000000102310200000000B6029D45
:10141C00034C027D025D02A602000000005B03008B
:00000001FF
