:100000000C9464000C9479060C94A6060C948C0055
:100010000C948C000C948C000C948C000C948C0030
:100020000C948C000C9469010C948C000C9476094F
:100030000C948C000C948C000C948C000C948C0010
:100040000C941C070C948C000C94DF030C941A0481
:100050000C948C000C948C000C948C000C948C00F0
:100060000C948C000C948C000000000024002700ED
:100070002A0000000000250028002B0000000000DE
:1000800023002600290004040404040404040202DA
:100090000202020203030303030301020408102007
:1000A0004080010204081020010204081020000012
:1000B0000007000201000003040600000000000029
:1000C0000000FF045505340A11241FBECFEFD8E00D
:1000D000DEBFCDBF11E0A0E0B1E0E2EFF9E102C088
:1000E00005900D92A03AB107D9F712E0A0EAB1E06D
:1000F00001C01D92A53AB107E1F710E0C8ECD0E0CD
:1001000004C02297FE010E94F30CC23CD107C9F73C
:100110000E948E000C94F70C0C9400000E9464075F
:100120000E94A70183E88093B200809170008E7FC7
:10013000809370008091B0008C7F8093B00080919C
:10014000B100877F8093B1008091B1008660809379
:10015000B1008091B1008E7F8093B10080917000DA
:10016000816080937000E0918801F0918901808125
:100170009181892BE1F30E94A601F89480E090E040
:100180000895BF92CF92DF92EF92FF920F931F9349
:10019000DF93CF9300D00F92CDB7DEB72091A301AC
:1001A0002F5F2093A301215049F081E090E09093CC
:1001B000A2018093A1012093A3017EC07894E091D5
:1001C0008801F091890120E084819581892B09F4CF
:1001D00021E02A8310E086819781892B09F411E0C0
:1001E0001B830E94E4020E949B01F8948091A3016A
:1001F00081508093A3018A81882359F08091A701BF
:10020000282F2F5F2093A701882319F0E1E0F0E069
:100210000CC01123A1F08091A801282F2F5F2093FB
:10022000A801882361F0E2E0F0E081E090E09093A3
:10023000A2018093A101EA55FE4F2150208304EAD8
:1002400011E097EAC92E91E0D92E81E0E82EF12C39
:10025000BB24B394F8018081882371F5F601808175
:100260008823F1F0F801B0827894F1E0EF16F10400
:1002700029F082E0E816F10451F405C00E94600202
:100280000E949C0104C00E94DC010E94A101F8941C
:10029000F601808181508083F801808181508083C4
:1002A0000894E11CF11C0F5F1F4F0894C11CD11C66
:1002B000F3E0EF16F10471F60F900F900F90CF91CD
:1002C000DF911F910F91FF90EF90DF90CF90BF9043
:1002D00008951F920F920FB60F9211242F933F9300
:1002E0004F935F936F937F938F939F93AF93BF933E
:1002F000EF93FF9383E88093B2008091A0018F5F1A
:100300008093A0018091A001853021F41092A0017A
:100310000E94C100FF91EF91BF91AF919F918F918A
:100320007F916F915F914F913F912F910F900FBEF1
:100330000F901F901895089580919D028093A402BC
:10034000089580919E028093A3020895089588E005
:10035000E5E9F2E0DF011D928A95E9F710929E022D
:1003600010929D0286E0EFE9F2E0DF011D928A958E
:10037000E9F710929F021092A0021092A10210922F
:10038000A20280918101609138010E94500A8091FF
:10039000830160913C010E94500A80918501609127
:1003A00040010E94500A809182018093A3028091B3
:1003B00084018093A4020895AF92BF92CF92DF92FE
:1003C000EF92FF920F931F93E091A302F0E0EE0FE4
:1003D000FF1FEE0FFF1FE050FF4FD080C180B280A3
:1003E000A380E0906601F090670100916801109190
:1003F00069016D2D7C2D8B2D9A2DA80197010E94EE
:10040000FB0B1816C4F0E0906A01F0906B010091AC
:100410006C0110916D016D2D7C2D8B2D9A2DA801F5
:1004200097010E94BF0A87FD06C08D2D9C2DAB2D24
:10043000BA2D7C018D0160916E0170916F018091E8
:10044000700190917101A80197010E945A0A7B01E5
:100450008C0120E030E040E853E40E94BF0A87FDB1
:1004600002C06FEF10C0C801B70120E030E040E0EB
:1004700050E00E94FB0B87FF02C060E004C0C8018F
:10048000B7010E94C80A809183010E94460A909198
:1004900087018091A302980F80914501891728F464
:1004A00080917F0180939E0202C090939E021F91D3
:1004B0000F91FF90EF90DF90CF90BF90AF90089595
:1004C000AF92BF92CF92DF92EF92FF920F931F9362
:1004D000E091A402F0E0EE0FFF1FEE0FFF1FE45EBD
:1004E000FE4FD080C180B280A380E0907201F09076
:1004F000730100917401109175016D2D7C2D8B2D70
:100500009A2DA80197010E94FB0B1816C4F0E090E9
:100510007601F090770100917801109179016D2DAD
:100520007C2D8B2D9A2DA80197010E94BF0A87FD73
:1005300006C08D2D9C2DAB2DBA2D7C018D01C801DF
:10054000B70120917A0130917B0140917C0150915B
:100550007D010E945B0A7B018C0120E030E040E8D5
:1005600053E40E94BF0A87FD02C06FEF10C0C801AC
:10057000B70120E030E040E050E00E94FB0B87FF35
:1005800002C060E004C0C801B7010E94C80A80919F
:1005900085010E94460A909186018091A402980FDD
:1005A00080914401891728F480917E0180939D02F7
:1005B00002C090939D021F910F91FF90EF90DF90EA
:1005C000CF90BF90AF9008956F927F928F929F923D
:1005D000AF92BF92CF92DF92EF92FF920F931F9351
:1005E0008091990290919A02019690939A02809339
:1005F00099028436910520F010929A021092990285
:1006000080919B0290919C02019690939C02809312
:100610009B028C5B924020F010929C0210929B02F5
:10062000E0909F02F090A0020091A1021091A2021E
:10063000C801B7010E94F60A5B016C0120914E01CE
:1006400030914F0140915001509151010E94BF0AD9
:1006500088235CF417FD09C0609046017090470143
:1006600080904801909049010AC00F2EF0E06F2E53
:10067000F0E07F2EF0E08F2EF0E09F2EF02D6091C5
:100680004A0170914B0180914C0190914D0120E005
:1006900030E040E85FE30E945A0A9B01AC01C601CA
:1006A000B5010E94FB0B88234CF010929F02109220
:1006B000A0021092A1021092A2020DC00894E11CA7
:1006C000F11C011D111DE0929F02F092A002009307
:1006D000A1021093A202C401B301209156013091EE
:1006E000570140915801509159010E94FF0B7B0125
:1006F0008C01D0905A01C0905B01B0905C01A09039
:100700005D012D2D3C2D4B2D5A2D0E94FB0B1816F3
:1007100094F0D0905E01C0905F01B0906001A09015
:100720006101C801B7012D2D3C2D4B2D5A2D0E9482
:10073000BF0A882334F48D2D9C2DAB2DBA2D7C015E
:100740008D016091620170916301809164019091CB
:100750006501A80197010E945A0A0E94310B7B0192
:100760008C0120E030E040E053E40E94BF0A87FDA6
:1007700002C06FE710C0C801B70120E030E040E0E0
:1007800053EC0E94FB0B87FF02C060E804C0C80165
:10079000B7010E94C30A80918001680F8091810196
:1007A0000E94460A1F910F91FF90EF90DF90CF902B
:1007B000BF90AF909F908F907F906F9008951F9201
:1007C0000F920FB60F9211242F933F934F938F9355
:1007D0009F93EF93FF938091C00082FD1DC04091D5
:1007E000C6002091E9013091EA012F5F3F4F2F733E
:1007F00030708091EB019091EC012817390771F06E
:10080000E091E901F091EA01E755FE4F4083309312
:10081000EA012093E90102C08091C600FF91EF91A7
:100820009F918F914F913F912F910F900FBE0F90FD
:100830001F9018951F920F920FB60F9211242F93AD
:100840003F938F939F93EF93FF9320912D023091CD
:100850002E0280912F02909130022817390731F42F
:100860008091C1008F7D8093C10014C0E0912F0260
:10087000F0913002E351FE4F208180912F02909140
:10088000300201968F7390709093300280932F0204
:100890002093C600FF91EF919F918F913F912F91EF
:1008A0000F900FBE0F901F901895DC011C96ED91D4
:1008B000FC911D97E05CFF4F2191319180819181E6
:1008C000281B390B2F733070C9010895DC011C9669
:1008D000ED91FC911D97E05CFF4F20813181E05448
:1008E000F040DF01AE5BBF4F8D919C9111972817AF
:1008F000390719F42FEF3FEF07C08D919C91E80F56
:10090000F91F8081282F30E0C9010895DC011C9671
:10091000ED91FC911D97E05CFF4F20813181E05407
:10092000F040DF01AE5BBF4F8D919C91119728176E
:10093000390719F42FEF3FEF10C08D919C9111975B
:10094000E80FF91F20818D919C91119701968F736B
:10095000907011969C938E9330E0C9010895DC014C
:1009600091968C919197882339F05496ED91FC9152
:100970005597808186FFF9CF91961C920895CF9369
:10098000DF93EC01EE85FF85E05CFF4F2081318134
:10099000E054F0402F5F3F4F2F733070DF01AE5BAC
:1009A000BF4F8D919C91119728173907D1F3E05CC7
:1009B000FF4F80819181E054F040E80FF91F608380
:1009C000EE85FF85E05CFF4F31832083EE89FF8950
:1009D000208181E090E00F8C02C0880F991F0A945B
:1009E000E2F7282B208381E089A3EC89FD898081AF
:1009F0008064808381E090E0DF91CF910895109230
:100A000034021092330288EE93E0A0E0B0E08093CD
:100A1000350290933602A0933702B09338028EE8E5
:100A200091E0909332028093310289EA91E09093B1
:100A30003E0280933D028DEE91E0909340028093C0
:100A40003F0285EC90E0909342028093410284EC57
:100A500090E0909344028093430280EC90E0909366
:100A600046028093450281EC90E090934802809387
:100A7000470282EC90E090934A028093490286EC10
:100A800090E090934C0280934B0284E080934D025F
:100A900083E080934E0287E080934F0285E080934D
:100AA000500281E08093510208958EE991E0909385
:100AB00054028093530210925502109256021092E3
:100AC00057021092580208958F929F92AF92BF9250
:100AD000CF92DF92EF92FF920F931F93CF93DF930A
:100AE0004C016B017C01AA24BB24C0E0D0E0C6010C
:100AF000F70162814AE050E00E9467068C01C6015E
:100B00006EE20E94D005080F191FA00EB11E21969B
:100B10000894E11CF11CC330D10549F7C601F4016A
:100B200065814AE050E00E9467069501280F391F51
:100B3000C901DF91CF911F910F91FF90EF90DF904E
:100B4000CF90BF90AF909F908F900895CF92DF92FB
:100B5000EF92FF920F931F93CF93DF937C016B0172
:100B60008A01C0E0D0E00FC0D6016D916D01D701C0
:100B7000ED91FC910190F081E02DC7010995C80F1E
:100B8000D91F015010400115110571F7CE01DF91F9
:100B9000CF911F910F91FF90EF90DF90CF9008952C
:100BA000DC01ED91FC910190F081E02D0995089513
:100BB000CF93DF93EC016115710519F420E030E06B
:100BC0000FC0DB010D900020E9F71197A61BB70BB2
:100BD000E881F9810280F381E02DAD0109959C0146
:100BE000C901DF91CF9108954F925F927F928F92CA
:100BF0009F92AF92BF92CF92DF92EF92FF920F93AC
:100C00001F93DF93CF93CDB7DEB7A1970FB6F894BC
:100C1000DEBF0FBECDBF2C01742ECB01223008F4F5
:100C20002AE019A231E2C32ED12CCC0EDD1E822E79
:100C30009924AA24BB24672D752FA50194010E9435
:100C4000A00C79018A01C801B701A50194010E9495
:100C5000620C472D461B0894C108D1084A3014F491
:100C6000405D01C0495CF6014083E114F1040105D7
:100C7000110521F07E2C5F2DC801DDCFC201B60128
:100C80000E94D805A1960FB6F894DEBF0FBECDBF67
:100C9000CF91DF911F910F91FF90EF90DF90CF9058
:100CA000BF90AF909F908F907F905F904F900895EE
:100CB000DC012115310541F4ED91FC910190F081A9
:100CC000E02D642F099508950E94F4050895EF9290
:100CD000FF920F931F939A01E62EFF2400E010E08D
:100CE000B801A7010E9458061F910F91FF90EF9045
:100CF00008951F920F920FB60F9211242F933F93D6
:100D00004F935F936F937F938F939F93AF93BF9313
:100D1000EF93FF938091590290915A02892B29F009
:100D2000E0915902F0915A020995FF91EF91BF911C
:100D3000AF919F918F917F916F915F914F913F9173
:100D40002F910F900FBE0F901F9018951F920F922A
:100D50000FB60F9211242F933F934F935F936F938E
:100D60007F938F939F93AF93BF93EF93FF93809164
:100D70005B0290915C02892B29F0E0915B02F0917B
:100D80005C020995FF91EF91BF91AF919F918F9177
:100D90007F916F915F914F913F912F910F900FBE77
:100DA0000F901F9018952F923F924F925F926F92E3
:100DB0007F928F929F92AF92BF92CF92DF92EF92EB
:100DC000FF920F931F93DF93CF93CDB7DEB73B0115
:100DD0004C0119012A016D897E898F89988D6A19C4
:100DE0007B098C099D09621A730A840A950AA40179
:100DF00093010E94620CE218F30804091509A80186
:100E000097010E94C20C2A0D3B1D4C1D5D1DB901AE
:100E1000CA01CF91DF911F910F91FF90EF90DF906A
:100E2000CF90BF90AF909F908F907F906F905F908A
:100E30004F903F902F9008951F920F920FB60F92F0
:100E400011242F933F938F939F93AF93BF938091E0
:100E5000610290916202A0916302B09164023091AC
:100E600065020196A11DB11D232F2D5F2D3720F0A6
:100E70002D570196A11DB11D20936502809361023B
:100E800090936202A0936302B093640280915D022A
:100E900090915E02A0915F02B09160020196A11D47
:100EA000B11D80935D0290935E02A0935F02B093A8
:100EB0006002BF91AF919F918F913F912F910F90C1
:100EC0000FBE0F901F901895789484B5826084BDF2
:100ED00084B5816084BD85B5826085BD85B581603E
:100EE00085BDEEE6F0E0808181608083E1E8F0E09E
:100EF0001082808182608083808181608083E0E8CD
:100F0000F0E0808181608083E1EBF0E080818460AB
:100F10008083E0EBF0E0808181608083EAE7F0E0AD
:100F20008081846080838081826080838081816011
:100F300080838081806880831092C1000895CF9360
:100F4000DF93482F50E0CA0186569F4FFC01349131
:100F50004A575F4FFA018491882369F190E0880F26
:100F6000991FFC01E859FF4FA591B491FC01EE587F
:100F7000FF4FC591D491662351F42FB7F8948C910B
:100F8000932F909589238C93888189230BC062309D
:100F900061F42FB7F8948C91932F909589238C93BB
:100FA0008881832B88832FBF06C09FB7F8948C91CC
:100FB000832B8C939FBFDF91CF910895482F50E0F2
:100FC000CA0182559F4FFC012491CA0186569F4F4A
:100FD000FC0194914A575F4FFA013491332309F48D
:100FE00040C0222351F1233071F0243028F4213005
:100FF000A1F0223011F514C02630B1F02730C1F035
:101000002430D9F404C0809180008F7703C0809190
:1010100080008F7D8093800010C084B58F7702C0E0
:1010200084B58F7D84BD09C08091B0008F7703C0E7
:101030008091B0008F7D8093B000E32FF0E0EE0F41
:10104000FF1FEE58FF4FA591B4912FB7F894662378
:1010500021F48C919095892302C08C91892B8C93DB
:101060002FBF0895FC01809166028C3090F480833C
:101070008F5F80936602815090E0FC01EE0FFF1FAE
:10108000E80FF91FE959FD4F88EB9BE092838183BC
:1010900008958FEF80830895FC0120812C30B8F5EE
:1010A0008181992787FD909548E850E0481B590BAE
:1010B000440F551F440F551F6417750784F0828134
:1010C000992787FD909548E552E0481B590B440F3E
:1010D000551F440F551F641775070CF4AB014250A0
:1010E0005040CA01AA2797FDA095BA2F880F991FD3
:1010F000AA1FBB1F4FB7F89430E0F901EE0FFF1F96
:10110000E20FF31FE959FD4F928381834FBF08958A
:10111000AF92BF92CF92DF92EF92FF920F931F9305
:10112000CF93DF93EC019B0182E0603278070CF0F3
:1011300048C077FF03C020E030E005C0653B710583
:1011400014F024EB30E000D000D0B901882777FDFF
:101150008095982F2981332727FD3095E8E8AE2E1A
:10116000B12CA21AB30AAA0CBB1CAA0CBB1CCC241F
:10117000B7FCC094DC2CEA81FF27E7FDF09528E559
:1011800032E02E1B3F0B220F331F220F331F442749
:1011900037FD4095542FEDB7FEB72183328343834B
:1011A000548320E030E040E050E004EBE02EF12CEE
:1011B000012D112D0E94D3069B010F900F900F90CF
:1011C0000F90CE01B9010E944C08DF91CF911F9181
:1011D0000F91FF90EF90DF90CF90BF90AF90089568
:1011E000CF92DF92EF92FF921F93CF93DF93EC01A8
:1011F000162F7A01690188818C3008F064C0862F2F
:1012000061E00E949F07888190E0FC01EE0FFF1FC4
:10121000E80FF91FE959FD4F1F738081807C812BF6
:10122000808380E292E08E199F0964E070E00E9462
:101230008D0C698380E699E08C199D0964E070E06B
:101240000E948D0C6A83A8818A2F6CE00E94810C19
:10125000682F70E0AB01440F551F460F571F440F16
:10126000551F440F551F20E030E0C901840F951F22
:10127000FC01EE0FFF1FE80FF91FE959FD4F8081B8
:1012800086FD15C02F5F3F4F2C30310571F724C00C
:101290001092800082E0809381001092850010926D
:1012A0008400B19A80916F00826080936F008A2FD2
:1012B00090E0FC01EE0FFF1FE80FF91FE959FD4F09
:1012C0008081806480838881DF91CF911F91FF901E
:1012D000EF90DF90CF900895672BD1F2E8CF40E2F6
:1012E00052E020E639E00E94F00808951F920F9224
:1012F0000FB60F9211242F933F934F935F936F93E9
:101300007F938F939F93AF93BF93EF93FF938091BE
:101310008B0287FF05C010928500109284002BC0BD
:1013200020918B02332727FD30958091660290E053
:101330002817390704F580918B02992787FD90952E
:10134000FC01EE0FFF1FE80FF91FE959FD4F8081E7
:1013500086FF11C080918B02992787FD9095FC0133
:10136000EE0FFF1FE80FF91FE959FD4F80818F73C2
:1013700060E00E94DE0780918B028F5F80938B027A
:1013800020918B02332727FD30958091660290E0F3
:10139000281739070CF04EC080918B028C300CF06E
:1013A00049C0209184003091850080918B0299275B
:1013B00087FD9095FC01EE0FFF1FE80FF91FE9591B
:1013C000FD4F81819281280F391F3093890020932E
:1013D000880080918B02992787FD9095FC01EE0F84
:1013E000FF1FE80FF91FE959FD4F808186FF2BC0D1
:1013F00080918B02992787FD9095FC01EE0FFF1FCE
:10140000E80FF91FE959FD4F80818F7361E00E9459
:10141000DE0719C080E49CE905C0809184009091AA
:101420008500049690938900809388008FEF8093C5
:101430008B0209C0809184009091850004968054AD
:101440009C4940F3EACFFF91EF91BF91AF919F91FB
:101450008F917F916F915F914F913F912F910F905D
:101460000FBE0F901F9018950F931F930CE812E07A
:10147000C8010E943208C80103960E943208C801C0
:1014800006960E9432081F910F91089593E0899F5C
:10149000C001112484579D4F70E00E948808089570
:1014A00093E0899FC001112484579D4F70E00E94F2
:1014B0006F0908955058BB27AA270ED04BC13CD1C5
:1014C00030F041D120F031F49F3F11F41EF431C1CE
:1014D0000EF4E095E7FBFCC0E92F4DD180F3BA177D
:1014E000620773078407950718F071F49EF57CC1B5
:1014F0000EF4E0950B2EBA2FA02D0B01B90190012F
:101500000C01CA01A0011124FF27591B99F0593F72
:1015100050F4503E68F11A16F040A22F232F342FBA
:101520004427585FF3CF469537952795A795F04008
:101530005395C9F77EF41F16BA0B620B730B840B1D
:10154000BAF09150A1F0FF0FBB1F661F771F881FD5
:10155000C2F70EC0BA0F621F731F841F48F487952D
:1015600077956795B795F7959E3F08F0B3CF93951C
:10157000880F08F09927EE0F97958795089584D0E6
:1015800008F481E0089504D06894B1112EC1089543
:10159000FAD088F09F5790F0B92F9927B751A0F053
:1015A000D1F0660F771F881F991F1AF0BA95C9F7F7
:1015B00012C0B13081F018D1B1E0089515C1672F84
:1015C000782F8827B85F39F0B93FCCF386957795A7
:1015D0006795B395D9F73EF4909580957095619590
:1015E0007F4F8F4F9F4F0895E89409C097FB3EF4BB
:1015F00090958095709561957F4F8F4F9F4F992360
:10160000A9F0F92F96E9BB279395F69587957795DD
:101610006795B795F111F8CFFAF4BB0F11F460FF9D
:101620001BC06F5F7F4F8F4F9F4F16C0882311F0F5
:1016300096E911C0772321F09EE8872F762F05C009
:10164000662371F096E8862F70E060E02AF09A95A4
:10165000660F771F881FDAF7880F9695879597F999
:101660000895ABD080F09F3740F491110EF0BDC0CB
:1016700060E070E080E89FEB089526F41B16611D82
:10168000711D811D2BC045C0990F0008550FAA0B75
:10169000E0E8FEEF16161706E807F907C0F0121685
:1016A0001306E407F50798F0621B730B840B950B88
:1016B00039F40A2661F0232B242B252B21F40895DD
:1016C0000A2609F4A140A6958FEF811D811D08957A
:1016D00097F99F6780E870E060E00895882371F4CF
:1016E000772321F09850872B762F07C0662311F4BB
:1016F00099270DC09051862B70E060E02AF09A95F2
:10170000660F771F881FDAF7880F9695879597F9E8
:1017100008959F3F49F0915028F4869577956795F5
:10172000B7959F5F80389F4F880F9695879597F95B
:1017300008959FEF80EC089500240A94161617066A
:1017400018060906089500240A94121613061406B2
:1017500005060895092E0394000C11F4882352F015
:10176000BB0F40F4BF2B11F460FF04C06F5F7F4FCD
:101770008F4F9F4F089557FD9058440F551F59F0B4
:101780005F3F71F04795880F97FB991F61F09F3F6E
:1017900079F087950895121613061406551FF2CF97
:1017A0004695F1DF08C0161617061806991FF1CFE7
:1017B00086957105610508940895E5DFA0F0BEE700
:1017C000B91788F4BB279F3860F41616B11D672F30
:1017D000782F8827985FF7CF869577956795B11D05
:1017E00093959639C8F30895E894BB276627772721
:1017F000CB0197F9089548DF08F48FEF08950BD0D7
:10180000A9CF9ADF28F09FDF18F0952309F060CF69
:1018100090CF1124EACFAFDFA0F3959FD1F3950FBE
:1018200050E0551F629FF001729FBB27F00DB11D64
:10183000639FAA27F00DB11DAA1F649F6627B00DF4
:10184000A11D661F829F2227B00DA11D621F739FDD
:10185000B00DA11D621F839FA00D611D221F749FEB
:101860003327A00D611D231F849F600D211D822F32
:10187000762F6A2F11249F5750408AF0E1F0882379
:101880004AF0EE0FFF1FBB1F661F771F881F915086
:101890005040A9F79E3F510570F01ACFA6CF5F3F89
:1018A000ECF3983EDCF3869577956795B795F795B9
:1018B000E7959F5FC1F7FE2B880F911D9695879541
:1018C00097F90895629FD001739FF001829FE00D08
:1018D000F11D649FE00DF11D929FF00D839FF00DAF
:1018E000749FF00D659FF00D9927729FB00DE11D5B
:1018F000F91F639FB00DE11DF91FBD01CF01112438
:101900000895991B79E004C0991F961708F0961B5B
:10191000881F7A95C9F78095089597FB092E0726A9
:101920000AD077FD04D049D006D000201AF4709573
:1019300061957F4F0895F6F7909581959F4F089593
:10194000A1E21A2EAA1BBB1BFD010DC0AA1FBB1FC3
:10195000EE1FFF1FA217B307E407F50720F0A21B35
:10196000B30BE40BF50B661F771F881F991F1A94A2
:1019700069F760957095809590959B01AC01BD01CC
:10198000CF01089597FB092E05260ED057FD04D0F0
:10199000D7DF0AD0001C38F450954095309521953A
:1019A0003F4F4F4F5F4F0895F6F790958095709594
:1019B00061957F4F8F4F9F4F0895AA1BBB1B51E12D
:1019C00007C0AA1FBB1FA617B70710F0A61BB70BAF
:1019D000881F991F5A95A9F780959095BC01CD0154
:1019E0000895EE0FFF1F0590F491E02D0994F894EF
:0219F000FFCF27
:1019F200000000000000F041000070420000B4420C
:101A02000000F0420000164300002F430000B442E1
:101A1200000070420000F041000000000000F0C130
:101A2200000070C20000B4C20B0000000A000000F7
:101A32000900000006060000204100209945000030
:101A42004842000000000000803F0000B442000055
:101A5200B4C20000A04000003443000000000000B7
:101A620033430000B4420000B4C20000BC42000094
:101A72005A00000100020101950200000000BF04AB
:101A8200A605550486046604AF0400000000640540
:00000001FF
