:100000000C9464000C9497080C94C4080C948C0015
:100010000C948C000C948C000C948C000C948C0030
:100020000C948C000C94EC000C948C000C94940BAD
:100030000C948C000C948C000C948C000C948C0010
:100040000C943A090C948C000C94FD050C94380621
:100050000C948C000C948C000C948C000C948C00F0
:100060000C948C000C948C000000000024002700ED
:100070002A0000000000250028002B0000000000DE
:1000800023002600290004040404040404040202DA
:100090000202020203030303030301020408102007
:1000A0004080010204081020010204081020000012
:1000B0000007000201000003040600000000000029
:1000C00000001D077307520C11241FBECFEFD8E0AC
:1000D000DEBFCDBF13E0A0E0B1E0E6EBFFE102C080
:1000E00005900D92AE30B107D9F714E0AEE0B3E061
:1000F00001C01D92A03BB107E1F710E0C8ECD0E0D1
:1001000004C02297FE010E94D50FC23CD107C9F757
:100110000E948E000C94D90F0C9400000E9482095A
:100120000E942B0383E88093B200809170008E7F41
:10013000809370008091B0008C7F8093B00080919C
:10014000B100877F8093B1008091B1008660809379
:10015000B1008091B1008E7F8093B10080917000DA
:10016000816080937000E091F502F091F602808149
:100170009181892BE1F30E942A03F89480E090E0BA
:100180000895209111032F5F20931103215049F00E
:1001900081E090E09093100380930F03209311036C
:1001A000089578940E9468040E94EE02F894809169
:1001B000110381508093110390911403992359F0F6
:1001C00080911203882339F47894F8949150909395
:1001D00014031092120308951F920F920FB60F92FC
:1001E00011242F933F934F935F936F937F938F933C
:1001F0009F93AF93BF93EF93FF9383E88093B200F5
:1002000080910E038F5F80930E0380910E038530E3
:1002100021F410920E030E94C100FF91EF91BF9153
:10022000AF919F918F917F916F915F914F913F918E
:100230002F910F900FBE0F901F90189560E070E007
:1002400080E89FE7089560E070E080E89FE7089508
:1002500060E070E080E89FEF089560E070E080E883
:100260009FEF089560E070E080EC9FEF089560E0FC
:1002700070E080EC9FEF0895DF92EF92FF920F9372
:100280001F937B018C012091090430910A04409155
:100290000B0450910C040E94F00C882379F0DD24AB
:1002A000C801B70120911104309112044091130448
:1002B000509114040E94F00C882311F4DD24D3948F
:1002C0008D2D1F910F91FF90EF90DF9008951F9358
:1002D0009B01AC0110E00E94F00C811111E0812F14
:1002E0001F9108950E94320160930D0470930E04D3
:1002F00080930F04909310040E94370160930104CF
:100300007093020480930304909304040E941E01DE
:100310006093090470930A0480930B0490930C0477
:100320000E942301609305047093060480930704E0
:10033000909308040E9428016093110470931204A2
:1003400080931304909314040E942D01609315046C
:1003500070931604809317049093180408952F92B5
:100360003F924F925F926F927F928F929F92AF9245
:10037000BF92CF92DF92EF92FF920F931F93DF9382
:10038000CF93CDB7DEB72A970FB6F894DEBF0FBE76
:10039000CDBF6D837E838F8398871A013A87298723
:1003A00037014801DA01AD90BD90CD90DC90A601F7
:1003B00095010E94F00C1816FCF06D817E818F81F2
:1003C0009885A60195010E94780C7B018C01F101B2
:1003D0006481758186819781A60195010E94780CC0
:1003E0009B01AC01C801B7010E94F40C5B016C01D8
:1003F000442455243201B1C067019701220F331FF5
:10040000220F331F220D331DD9018D919D910D9027
:10041000BC91A02D89839A83AB83BC836D817E813F
:100420008F81988529813A814B815C810E94F00CF3
:1004300088230CF062C016950795F794E794640141
:10044000530144245524320122C0F701EE0FFF1F4F
:10045000EE0FFF1FE20DF31D6D817E818F81988568
:1004600020813181428153810E94F00C87FD03C0BD
:100470002701380102C05701680183017201EA0CAB
:10048000FB1C0C1D1D1D16950795F794E794D601CE
:10049000C50184199509A609B7090297A105B105F7
:1004A000A0F68201F201EE0FFF1FEE0FFF1FE20D1B
:1004B000F31DC080D180E280F3806D817E818F81C9
:1004C0009885A70196010E94780C4B015C010F5F93
:1004D0001F4F000F111F000F111F020D131DF801F8
:1004E0006081718182819381A70196010E94780CBD
:1004F0009B01AC01C501B4012CC02701380108944F
:1005000041085108610871088FEF9FE3C80ED91E9A
:10051000CC0CDD1CCC0CDD1CC20CD31CD601ED9028
:10052000FD900D911C916D817E818F819885A80130
:1005300097010E94780C5B016C0169817A818B8143
:100540009C81A80197010E94780C9B01AC01C60117
:10055000B5010E94F40C5B016C01D2019201220FE3
:10056000331F220F331FE985FA852E0F3F1FF90134
:10057000E080F180028113811196AA0FBB1FAA0FA0
:10058000BB1F89859A85A80FB91F6D917D918D91AB
:100590009C91A80197010E94780CA60195010E94E8
:1005A000E10EA80197010E94790C2A960FB6F894E3
:1005B000DEBF0FBECDBFCF91DF911F910F91FF9096
:1005C000EF90DF90CF90BF90AF909F908F907F90F3
:1005D0006F905F904F903F902F900895EF92FF9211
:1005E0000F931F9304EA14E0E090A404F090A50494
:1005F000F8013E9760817181828193816F5F7F4FA7
:100600008F4F9F4F60837183828393830E94880DF5
:1006100020919A0430919B0440919C0450919D0438
:100620000E94E10EF70160837183828393830650F9
:100630001040F80180819181A281B3810196A11DB2
:10064000B11D80839183A283B3831F910F91FF908B
:10065000EF900895089584E090E00E947201E9E12E
:10066000F4E085E9DF011D928A95E9F782EA94E0DA
:1006700090931E0480931D0484EA94E097AF86AFA4
:100680008AE994E090932C0480932B04F0938204E5
:10069000E0938104F0931C04E0931B0481E090E05C
:1006A0009093A3048093A20480E091E090932204AD
:1006B0008093210486EA94E09093A5048093A40497
:1006C0008AE097EDA3E2BCE380939A0490939B04A5
:1006D000A0939C04B0939D041092AF041092AE04BA
:1006E0008091F2026091DA010E946E0C8091F30217
:1006F0006091DE010E946E0C8091F4026091E20133
:100700000E946E0C0895EF92FF920F931F937B014E
:100710008C019F7720E030E040E859E50E94F00C22
:1007200087FD03C0B701C80132C0C801B70120E08E
:1007300030E040E05FE30E94DD0E88235CF0C801FA
:10074000B70120E030E040E05FE30E94790C0E94B6
:10075000C50D1DC0C801B70120E030E040E05FEBEF
:100760000E94DD0E18164CF4C801B70120E030E0FD
:1007700040E050E00E94E10E0AC0C801B70120E04D
:1007800030E040E05FE30E94780C0E94DD0C1F9196
:100790000F91FF90EF9008952F923F924F925F92AA
:1007A0006F927F928F929F92AF92BF92CF92DF9281
:1007B000EF92FF920F931F931B012C0139014A0105
:1007C0000E946701882391F4C201B1010E943C019B
:1007D000882361F4C401B3010E946701882331F4C6
:1007E000C401B3010E943C01882349F060910D04CB
:1007F00070910E0480910F049091100458C0C401B0
:10080000B30120E030E040E050E00E94F00C88238B
:100810002CF4C401B3010E94DD0C04C0C401B30177
:100820000E94C50D7B018C01C401B30120E030E0C2
:1008300040E050E00E94F00C882399F1C401B3011C
:10084000A80197010E94F00C882359F1C201B1015F
:10085000A40193010E94F40C7B018C010E9483038C
:100860009B01AC01C801B7010E94780C5B016C01CF
:10087000E894D7F8E89417F9C801B70120E030E010
:1008800040E054E30E94E10E9B01AC01C601B501BA
:100890000E94F00C18162CF060E070E080E090E010
:1008A00006C0C201B101A40193010E94DF0D1F9196
:1008B0000F91FF90EF90DF90CF90BF90AF909F90FF
:1008C0008F907F906F905F904F903F902F90089502
:1008D000AF92BF92CF92DF92EF92FF920F931F934E
:1008E000E091A404F091A5046081718182819381DB
:1008F0002091E6013091E7014091E8015091E90132
:100900000E94CC034AEE51E022E131E0A0E1EA2E60
:10091000F12C012D112D0E94AF01D62EC72EB82E1D
:10092000A92EE0902E02F0902F020091300210913B
:100930003102A80197010E94DD0E1816C4F0E09064
:100940003202F090330200913402109135026D2D85
:100950007C2D8B2D9A2DA80197010E94F00C87FD0C
:1009600006C08D2D9C2DAB2DBA2D7C018D01C801AB
:10097000B7012091360230913702409138025091F0
:1009800039020E94E10E20913A0230913B024091DF
:100990003C0250913D020E94790C7B018C0120E0C9
:1009A00030E040E853E40E94F00C8823A4F4C8012E
:1009B000B70120E030E040E050E00E94DD0E8823E7
:1009C0003CF0C801B7010E945C0D6093AE0406C004
:1009D0001092AE0403C08FEF8093AE048091F202B8
:1009E0006091AE040E94640CE091A404F091A5040F
:1009F000608171818281938120913E0230913F021A
:100A000040914002509141020E94CC0342E452E0E6
:100A100026E531E0F0E2EF2EF12C012D112D0E94A0
:100A2000AF01D62EC72EB82EA92EE090C602F090A8
:100A3000C7020091C8021091C902A80197010E9443
:100A4000DD0E1816C4F0E090CA02F090CB020091BF
:100A5000CC021091CD026D2D7C2D8B2D9A2DA801ED
:100A600097010E94F00C87FD06C08D2D9C2DAB2DAB
:100A7000BA2D7C018D01C801B7012091CE023091C1
:100A8000CF024091D0025091D1020E94E10E2091FC
:100A9000D2023091D3024091D4025091D5020E94EB
:100AA000E10E2091D6023091D7024091D8025091A8
:100AB000D9020E94790C7B018C0120E030E040E8F3
:100AC00053E40E94F00C8823A4F4C801B70120E08D
:100AD00030E040E050E00E94DD0E88233CF0C80189
:100AE000B7010E945C0D6093AF0406C01092AF0482
:100AF00003C08FEF8093AF048091F3026091AF0445
:100B00000E94640CD090DA02C090DB02B090DC024C
:100B1000A090DD02E090DE02F090DF020091E002A2
:100B20001091E1026D2D7C2D8B2D9A2DA80197013E
:100B30000E94DD0E1816C4F0E090E202F090E3028D
:100B40000091E4021091E5026D2D7C2D8B2D9A2DE4
:100B5000A80197010E94F00C87FD06C08D2D9C2DE9
:100B6000AB2DBA2D7C018D01C801B7012091E602A1
:100B70003091E7024091E8025091E9020E94E10EB3
:100B80002091EA023091EB024091EC025091ED028B
:100B90000E94E10E2091EE023091EF024091F002AE
:100BA0005091F1020E94790C7B018C0120E030E031
:100BB00040E853E40E94F00C87FD02C06FEF10C0C4
:100BC000C801B70120E030E040E050E00E94DD0EB7
:100BD00087FF02C060E004C0C801B7010E945C0D3D
:100BE0008091F4020E94640C1F910F91FF90EF908E
:100BF000DF90CF90BF90AF9008951F920F920FB6E5
:100C00000F9211242F933F934F938F939F93EF93C2
:100C1000FF938091C00082FD1DC04091C6002091CD
:100C20005503309156032F5F3F4F2F7330708091E3
:100C30005703909158032817390771F0E091550335
:100C4000F0915603EB5EFC4F4083309356032093A4
:100C5000550302C08091C600FF91EF919F918F9143
:100C60004F913F912F910F900FBE0F901F901895AD
:100C70001F920F920FB60F9211242F933F938F93D1
:100C80009F93EF93FF932091990330919A03809162
:100C90009B0390919C032817390731F48091C10080
:100CA0008F7D8093C10014C0E0919B03F0919C0361
:100CB000E75AFC4F208180919B0390919C03019601
:100CC0008F73907090939C0380939B032093C60036
:100CD000FF91EF919F918F913F912F910F900FBEB8
:100CE0000F901F901895DC011C96ED91FC911D97BB
:100CF000E05CFF4F2191319180819181281B390B5C
:100D00002F733070C9010895DC011C96ED91FC91A0
:100D10001D97E05CFF4F20813181E054F040DF01FE
:100D2000AE5BBF4F8D919C9111972817390719F42D
:100D30002FEF3FEF07C08D919C91E80FF91F808145
:100D4000282F30E0C9010895DC011C96ED91FC913B
:100D50001D97E05CFF4F20813181E054F040DF01BE
:100D6000AE5BBF4F8D919C9111972817390719F4ED
:100D70002FEF3FEF10C08D919C911197E80FF91F55
:100D800020818D919C91119701968F73907011968F
:100D90009C938E9330E0C9010895DC0191968C916B
:100DA0009197882339F05496ED91FC915597808165
:100DB00086FFF9CF91961C920895CF93DF93EC01B3
:100DC000EE85FF85E05CFF4F20813181E054F040EB
:100DD0002F5F3F4F2F733070DF01AE5BBF4F8D91A0
:100DE0009C91119728173907D1F3E05CFF4F808160
:100DF0009181E054F040E80FF91F6083EE85FF8594
:100E0000E05CFF4F31832083EE89FF89208181E000
:100E100090E00F8C02C0880F991F0A94E2F7282BEC
:100E2000208381E089A3EC89FD89808180648083AF
:100E300081E090E0DF91CF9108951092A00310928D
:100E40009F0388EE93E0A0E0B0E08093A10390932D
:100E5000A203A093A303B093A4038BEF92E090931B
:100E60009E0380939D0385E193E09093AA03809372
:100E7000A90389E593E09093AC038093AB0385ECE1
:100E800090E09093AE038093AD0384EC90E0909358
:100E9000B0038093AF0380EC90E09093B203809313
:100EA000B10381EC90E09093B4038093B30382ECA0
:100EB00090E09093B6038093B50386EC90E0909316
:100EC000B8038093B70384E08093B90383E08093F1
:100ED000BA0387E08093BB0385E08093BC0381E085
:100EE0008093BD0308958BE093E09093C0038093BB
:100EF000BF031092C1031092C2031092C303109259
:100F0000C40308958F929F92AF92BF92CF92DF92C7
:100F1000EF92FF920F931F93CF93DF934C016B01DE
:100F20007C01AA24BB24C0E0D0E0C601F7016281A5
:100F30004AE050E00E9485088C01C6016EE20E94E2
:100F4000EE07080F191FA00EB11E21960894E11C90
:100F5000F11CC330D10549F7C601F40165814AE0AF
:100F600050E00E9485089501280F391FC901DF91C3
:100F7000CF911F910F91FF90EF90DF90CF90BF9096
:100F8000AF909F908F900895CF92DF92EF92FF9253
:100F90000F931F93CF93DF937C016B018A01C0E015
:100FA000D0E00FC0D6016D916D01D701ED91FC919C
:100FB0000190F081E02DC7010995C80FD91F01509C
:100FC00010400115110571F7CE01DF91CF911F91EE
:100FD0000F91FF90EF90DF90CF900895DC01ED919D
:100FE000FC910190F081E02D09950895CF93DF9356
:100FF000EC016115710519F420E030E00FC0DB0150
:101000000D900020E9F71197A61BB70BE881F98135
:101010000280F381E02DAD0109959C01C901DF91AA
:10102000CF9108954F925F927F928F929F92AF924D
:10103000BF92CF92DF92EF92FF920F931F93DF93B5
:10104000CF93CDB7DEB7A1970FB6F894DEBF0FBE32
:10105000CDBF2C01742ECB01223008F42AE019A256
:1010600031E2C32ED12CCC0EDD1E822E9924AA246F
:10107000BB24672D752FA50194010E94820F790171
:101080008A01C801B701A50194010E94440F472DB0
:10109000461B0894C108D1084A3014F4405D01C0D1
:1010A000495CF6014083E114F1040105110521F0CA
:1010B0007E2C5F2DC801DDCFC201B6010E94F6076C
:1010C000A1960FB6F894DEBF0FBECDBFCF91DF91D2
:1010D0001F910F91FF90EF90DF90CF90BF90AF9056
:1010E0009F908F907F905F904F900895DC01211525
:1010F000310541F4ED91FC910190F081E02D642FD8
:10110000099508950E9412080895EF92FF920F9397
:101110001F939A01E62EFF2400E010E0B801A7011A
:101120000E9476081F910F91FF90EF9008951F92F3
:101130000F920FB60F9211242F933F934F935F930B
:101140006F937F938F939F93AF93BF93EF93FF938F
:101150008091C5039091C603892B29F0E091C503C6
:10116000F091C6030995FF91EF91BF91AF919F91C7
:101170008F917F916F915F914F913F912F910F9040
:101180000FBE0F901F9018951F920F920FB60F92DF
:1011900011242F933F934F935F936F937F938F937C
:1011A0009F93AF93BF93EF93FF938091C703909169
:1011B000C803892B29F0E091C703F091C803099572
:1011C000FF91EF91BF91AF919F918F917F916F911F
:1011D0005F914F913F912F910F900FBE0F901F90F5
:1011E00018952F923F924F925F926F927F928F92BB
:1011F0009F92AF92BF92CF92DF92EF92FF920F93A6
:101200001F93DF93CF93CDB7DEB73B014C0119019C
:101210002A016D897E898F89988D6A197B098C09CD
:101220009D09621A730A840A950AA40193010E9417
:10123000440FE218F30804091509A80197010E9458
:10124000A40F2A0D3B1D4C1D5D1DB901CA01CF9194
:10125000DF911F910F91FF90EF90DF90CF90BF90A3
:10126000AF909F908F907F906F905F904F903F9046
:101270002F9008951F920F920FB60F9211242F9363
:101280003F938F939F93AF93BF938091CD039091A2
:10129000CE03A091CF03B091D0033091D10301963A
:1012A000A11DB11D232F2D5F2D3720F02D57019645
:1012B000A11DB11D2093D1038093CD039093CE0344
:1012C000A093CF03B093D0038091C9039091CA0338
:1012D000A091CB03B091CC030196A11DB11D8093C9
:1012E000C9039093CA03A093CB03B093CC03BF91DF
:1012F000AF919F918F913F912F910F900FBE0F90C3
:101300001F901895789484B5826084BD84B58160FF
:1013100084BD85B5826085BD85B5816085BDEEE6FD
:10132000F0E0808181608083E1E8F0E010828081DC
:1013300082608083808181608083E0E8F0E080814A
:1013400081608083E1EBF0E0808184608083E0EB6A
:10135000F0E0808181608083EAE7F0E08081846052
:1013600080838081826080838081816080838081AE
:10137000806880831092C1000895CF93DF93482F37
:1013800050E0CA0186569F4FFC0134914A575F4F87
:10139000FA018491882369F190E0880F991FFC017C
:1013A000E859FF4FA591B491FC01EE58FF4FC5914C
:1013B000D491662351F42FB7F8948C91932F909584
:1013C00089238C93888189230BC0623061F42FB705
:1013D000F8948C91932F909589238C938881832BFB
:1013E00088832FBF06C09FB7F8948C91832B8C9372
:1013F0009FBFDF91CF910895482F50E0CA018255D9
:101400009F4FFC012491CA0186569F4FFC01949185
:101410004A575F4FFA013491332309F440C0222325
:1014200051F1233071F0243028F42130A1F0223022
:1014300011F514C02630B1F02730C1F02430D9F4B2
:1014400004C0809180008F7703C0809180008F7DE1
:101450008093800010C084B58F7702C084B58F7DE3
:1014600084BD09C08091B0008F7703C08091B00027
:101470008F7D8093B000E32FF0E0EE0FFF1FEE585A
:10148000FF4FA591B4912FB7F894662321F48C9166
:101490009095892302C08C91892B8C932FBF08953E
:1014A000FC018091D2038C3090F480838F5F809315
:1014B000D203815090E0FC01EE0FFF1FE80FF91FEF
:1014C000ED52FC4F88EB9BE09283818308958FEF70
:1014D00080830895FC0120812C30B8F58181992703
:1014E00087FD909548E850E0481B590B440F551F65
:1014F000440F551F6417750784F08281992787FD73
:10150000909548E552E0481B590B440F551F440F76
:10151000551F641775070CF4AB0142505040CA01C7
:10152000AA2797FDA095BA2F880F991FAA1FBB1F46
:101530004FB7F89430E0F901EE0FFF1FE20FF31FF1
:10154000ED52FC4F928381834FBF0895AF92BF92BB
:10155000CF92DF92EF92FF920F931F93CF93DF937F
:10156000EC019B0182E0603278070CF048C077FF05
:1015700003C020E030E005C0653B710514F024EBAA
:1015800030E000D000D0B901882777FD8095982FF2
:101590002981332727FD3095E8E8AE2EB12CA21A19
:1015A000B30AAA0CBB1CAA0CBB1CCC24B7FCC0946D
:1015B000DC2CEA81FF27E7FDF09528E532E02E1BC1
:1015C0003F0B220F331F220F331F442737FD409557
:1015D000542FEDB7FEB7218332834383548320E039
:1015E00030E040E050E004EBE02EF12C012D112D15
:1015F0000E94F1089B010F900F900F900F90CE0169
:10160000B9010E946A0ADF91CF911F910F91FF905B
:10161000EF90DF90CF90BF90AF900895CF92DF9280
:10162000EF92FF921F93CF93DF93EC01162F7A0175
:10163000690188818C3008F064C0862F61E00E94C7
:10164000BD09888190E0FC01EE0FFF1FE80FF91F34
:10165000ED52FC4F1F738081807C812B808380E260
:1016600092E08E199F0964E070E00E946F0F698319
:1016700080E699E08C199D0964E070E00E946F0F8C
:101680006A83A8818A2F6CE00E94630F682F70E044
:10169000AB01440F551F460F571F440F551F440FF2
:1016A000551F20E030E0C901840F951FFC01EE0FAB
:1016B000FF1FE80FF91FED52FC4F808186FD15C01A
:1016C0002F5F3F4F2C30310571F724C010928000FE
:1016D00082E0809381001092850010928400B19A7C
:1016E00080916F00826080936F008A2F90E0FC01F0
:1016F000EE0FFF1FE80FF91FED52FC4F8081806451
:1017000080838881DF91CF911F91FF90EF90DF90D0
:10171000CF900895672BD1F2E8CF40E252E020E667
:1017200039E00E940E0B08951F920F920FB60F9290
:1017300011242F933F934F935F936F937F938F93D6
:101740009F93AF93BF93EF93FF938091F70387FF2E
:1017500005C010928500109284002BC02091F703E1
:10176000332727FD30958091D20390E02817390761
:1017700004F58091F703992787FD9095FC01EE0F02
:10178000FF1FE80FF91FED52FC4F808186FF11C04B
:101790008091F703992787FD9095FC01EE0FFF1FBD
:1017A000E80FF91FED52FC4F80818F7360E00E94BB
:1017B000FC098091F7038F5F8093F7032091F70373
:1017C000332727FD30958091D20390E02817390701
:1017D0000CF04EC08091F7038C300CF049C0209182
:1017E0008400309185008091F703992787FD9095BB
:1017F000FC01EE0FFF1FE80FF91FED52FC4F818136
:101800009281280F391F309389002093880080919E
:10181000F703992787FD9095FC01EE0FFF1FE80F56
:10182000F91FED52FC4F808186FF2BC08091F7039A
:10183000992787FD9095FC01EE0FFF1FE80FF91F18
:10184000ED52FC4F80818F7361E00E94FC0919C04A
:1018500080E49CE905C08091840090918500049605
:1018600090938900809388008FEF8093F70309C0DD
:101870008091840090918500049680549C4940F3A7
:10188000EACFFF91EF91BF91AF919F918F917F919F
:101890006F915F914F913F912F910F900FBE0F90DD
:1018A0001F9018950F931F9308EF13E0C8010E9433
:1018B000500AC80103960E94500AC80106960E9469
:1018C000500A1F910F91089593E0899FC001112440
:1018D00088509C4F70E00E94A60A089593E0899F6B
:1018E000C001112488509C4F70E00E948D0B089518
:1018F0005058BB27AA270ED00FC200D230F005D215
:1019000020F031F49F3F11F41EF4F5C10EF4E09580
:10191000E7FBC0C1E92F11D280F3BA176207730742
:101920008407950718F071F49EF540C20EF4E09517
:101930000B2EBA2FA02D0B01B90190010C01CA0189
:10194000A0011124FF27591B99F0593F50F4503E34
:1019500068F11A16F040A22F232F342F4427585F26
:10196000F3CF469537952795A795F0405395C9F73E
:101970007EF41F16BA0B620B730B840BBAF09150F6
:10198000A1F0FF0FBB1F661F771F881FC2F70EC095
:10199000BA0F621F731F841F48F487957795679568
:1019A000B795F7959E3F08F0B3CF9395880F08F051
:1019B0009927EE0F979587950895E1D180F09F378D
:1019C00040F491110EF4F3C160E070E080E89FE311
:1019D000089526F01B16611D711D811D61C17BC11B
:1019E00035D108F481E008950CD096C18ED140F035
:1019F00085D130F021F45F3F19F04CC15111D7C1AE
:101A00007AC19BD198F39923C9F35523B1F3951B60
:101A1000550BBB27AA2762177307840738F09F5F0F
:101A20005F4F220F331F441FAA1FA9F333D00E2E7E
:101A30003AF0E0E830D091505040E695001CCAF7EB
:101A400029D0FE2F27D0660F771F881FBB1F2617B0
:101A500037074807AB07B0E809F0BB0B802DBF0183
:101A6000FF2793585F4F2AF09E3F510568F012C13F
:101A70009EC15F3FECF3983EDCF3869577956795C2
:101A8000B795F7959F5FC9F7880F911D9695879534
:101A900097F90895E1E0660F771F881FBB1F621753
:101AA00073078407BA0720F0621B730B840BBA0B11
:101AB000EE1F88F7E095089548D188F09F5790F081
:101AC000B92F9927B751A0F0D1F0660F771F881F63
:101AD000991F1AF0BA95C9F712C0B13081F066D1DA
:101AE000B1E0089563C1672F782F8827B85F39F078
:101AF000B93FCCF3869577956795B395D9F73EF4C2
:101B000090958095709561957F4F8F4F9F4F089569
:101B1000E89409C097FB3EF4909580957095619587
:101B20007F4F8F4F9F4F9923A9F0F92F96E9BB273D
:101B30009395F695879577956795B795F111F8CFB9
:101B4000FAF4BB0F11F460FF1BC06F5F7F4F8F4F24
:101B50009F4F16C0882311F096E911C0772321F01A
:101B60009EE8872F762F05C0662371F096E8862FB2
:101B700070E060E02AF09A95660F771F881FDAF709
:101B8000880F9695879597F90895F9D080F09F373B
:101B900040F491110EF00BC160E070E080E89FEB23
:101BA000089526F41B16611D711D811D79C093C017
:101BB000A5D018F011F0A9D038F49DC0F8C0E92FD5
:101BC000BCD0B0F35523C9F3E7FB62177307840752
:101BD0009507A8F199F3E92FFF2788232AF0319779
:101BE000660F771F881FDAF7952F5527442332F0A9
:101BF00091505040220F331F441FD2F7BB27E91BDF
:101C0000F50B621B730B840BB109C1F222F4620F56
:101C1000731F841FB11D31972AF0660F771F881F2D
:101C2000BB1FEFCF915050405AF041F0882332F063
:101C3000660F771F881F91505040C1F793954BC096
:101C40008695779567959F5FD9F7F8CF990F00082C
:101C5000550FAA0BE0E8FEEF16161706E807F9077E
:101C6000C0F012161306E407F50798F0621B730B19
:101C7000840B950B39F40A2661F0232B242B252B9A
:101C800021F408950A2609F4A140A6958FEF811D3D
:101C9000811D089597F99F6780E870E060E00895DE
:101CA000882371F4772321F09850872B762F07C073
:101CB000662311F499270DC09051862B70E060E0E7
:101CC0002AF09A95660F771F881FDAF7880F969586
:101CD000879597F908959F3F49F0915028F486958C
:101CE00077956795B7959F5F80389F4F880F96953A
:101CF000879597F908959FEF80EC089500240A9442
:101D00001616170618060906089500240A941216D6
:101D10001306140605060895092E0394000C11F409
:101D2000882352F0BB0F40F4BF2B11F460FF04C0B6
:101D30006F5F7F4F8F4F9F4F089557FD9058440F0F
:101D4000551F59F05F3F71F04795880F97FB991F1A
:101D500061F09F3F79F087950895121613061406D7
:101D6000551FF2CF4695F1DF08C016161706180664
:101D7000991FF1CF86957105610508940895E5DFF7
:101D8000A0F0BEE7B91788F4BB279F3860F4161699
:101D9000B11D672F782F8827985FF7CF86957795A5
:101DA0006795B11D93959639C8F30895E894BB27BC
:101DB00066277727CB0197F9089548DF08F48FEF5E
:101DC00008950BD0A9CF9ADF28F09FDF18F0952354
:101DD00009F060CF90CF1124EACFAFDFA0F3959F39
:101DE000D1F3950F50E0551F629FF001729FBB2702
:101DF000F00DB11D639FAA27F00DB11DAA1F649FAE
:101E00006627B00DA11D661F829F2227B00DA11D60
:101E1000621F739FB00DA11D621F839FA00D611DE6
:101E2000221F749F3327A00D611D231F849F600D07
:101E3000211D822F762F6A2F11249F5750408AF040
:101E4000E1F088234AF0EE0FFF1FBB1F661F771FCC
:101E5000881F91505040A9F79E3F510570F01ACF4E
:101E6000A6CF5F3FECF3983EDCF3869577956795B8
:101E7000B795F795E7959F5FC1F7FE2B880F911DEA
:101E80009695879597F90895629FD001739FF00109
:101E9000829FE00DF11D649FE00DF11D929FF00DFA
:101EA000839FF00D749FF00D659FF00D9927729F31
:101EB000B00DE11DF91F639FB00DE11DF91FBD01BC
:101EC000CF0111240895991B79E004C0991F96173A
:101ED00008F0961B881F7A95C9F78095089597FB9F
:101EE000092E07260AD077FD04D049D006D000205D
:101EF0001AF4709561957F4F0895F6F79095819546
:101F00009F4F0895A1E21A2EAA1BBB1BFD010DC015
:101F1000AA1FBB1FEE1FFF1FA217B307E407F50799
:101F200020F0A21BB30BE40BF50B661F771F881F75
:101F3000991F1A9469F760957095809590959B010B
:101F4000AC01BD01CF01089597FB092E05260ED0E7
:101F500057FD04D0D7DF0AD0001C38F450954095C7
:101F6000309521953F4F4F4F5F4F0895F6F790956D
:101F70008095709561957F4F8F4F9F4F0895AA1B55
:101F8000BB1B51E107C0AA1FBB1FA617B70710F064
:101F9000A61BB70B881F991F5A95A9F78095909596
:101FA000BC01CD010895EE0FFF1F0590F491E02DC7
:061FB0000994F894FFCF34
:101FB60046697865645374657044697363726574C1
:101FC60065000000B4C20000B4C2000034C20000C4
:101FD60034C200000000000000000000344200008F
:101FE60034420000B4420000B44200003442000013
:101FF60034420000000000000000000034C200006F
:1020060034C20000B4C2000000000000000000005E
:102016003442000034420000B4420000B4420000E2
:102026000743000007430000344300003443000028
:102036000743000007430000B4420000B44200001A
:10204600344200003442000000000000000000009E
:1020560034C2000034C20000B4C20000B4C20000A2
:1020660007C3000007C3000034C3000034C30000E8
:1020760007C3000007C30000B4C20000B4C20000DA
:1020860034C2000034C200000000090000000A004B
:1020960000000B0000000000C0410000000000002E
:1020A6000040000040400000A0400000C04000008A
:1020B6000041000010410000304100004041000096
:1020C600604100007041000088410000904100001E
:1020D600A0410000A8410000B8410000C041000036
:1020E600B4420000B4C25555153F0000B44200008A
:1020F6004F43000000000000304100004041000056
:10210600B8410000C04100000C420000104200002F
:102116003C420000404200006C4200007042000059
:102126008E42000090420000A6420000A842000035
:10213600BE420000C0420000D6420000D842000065
:10214600EE420000F042000003430000044300009A
:102156000F43000010430000254300002643000003
:10216600364300003743000042430000434300006B
:102176004E4300004F4300003443000034C355551E
:10218600153F233E013F0000B24200000000000060
:102196003443000034C35555153F4CAE203F000074
:1021A600B442000102190400000000DD06C40773F2
:0E21B60006A4068406CD060000000082070085
:00000001FF
