:100000000C9464000C94B7080C94E4080C948C00D5
:100010000C948C000C948C000C948C000C948C0030
:100020000C948C000C94EC000C948C000C94B40B8D
:100030000C948C000C948C000C948C000C948C0010
:100040000C945A090C948C000C941D060C945806C0
:100050000C948C000C948C000C948C000C948C00F0
:100060000C948C000C948C000000000024002700ED
:100070002A0000000000250028002B0000000000DE
:1000800023002600290004040404040404040202DA
:100090000202020203030303030301020408102007
:1000A0004080010204081020010204081020000012
:1000B0000007000201000003040600000000000029
:1000C00000003D079307720C11241FBECFEFD8E04C
:1000D000DEBFCDBF13E0A0E0B1E0E6EFFFE102C07C
:1000E00005900D92A639B107D9F715E0A6E9B3E05E
:1000F00001C01D92A933B107E1F710E0C8ECD0E0D0
:1001000004C02297FE010E94F50FC23CD107C9F737
:100110000E948E000C94F90F0C9400000E94A2091A
:100120000E942B0383E88093B200809170008E7F41
:10013000809370008091B0008C7F8093B00080919C
:10014000B100877F8093B1008091B1008660809379
:10015000B1008091B1008E7F8093B10080917000DA
:10016000816080937000E0917D03F0917E03808137
:100170009181892BE1F30E942A03F89480E090E0BA
:100180000895209199032F5F20939903215049F0FE
:1001900081E090E0909398038093970320939903D4
:1001A000089578940E946B040E94EE02F894809166
:1001B000990381508093990390919C03992359F05E
:1001C00080919A03882339F47894F894915090930D
:1001D0009C0310929A0308951F920F920FB60F92EC
:1001E00011242F933F934F935F936F937F938F933C
:1001F0009F93AF93BF93EF93FF9383E88093B200F5
:10020000809196038F5F809396038091960385304B
:1002100021F4109296030E94C100FF91EF91BF91CB
:10022000AF919F918F917F916F915F914F913F918E
:100230002F910F900FBE0F901F90189560E070E007
:1002400080E89FE7089560E070E080E89FE7089508
:1002500060E070E080E89FEF089560E070E080E883
:100260009FEF089560E070E080EC9FEF089560E0FC
:1002700070E080EC9FEF0895DF92EF92FF920F9372
:100280001F937B018C012091910430919204409145
:100290009304509194040E94100D882379F0DD247A
:1002A000C801B7012091990430919A0440919B04B0
:1002B00050919C040E94100D882311F4DD24D394E6
:1002C0008D2D1F910F91FF90EF90DF9008951F9358
:1002D0009B01AC0110E00E94100D811111E0812FF3
:1002E0001F9108950E9432016093950470939604C3
:1002F00080939704909398040E9437016093890437
:1003000070938A0480938B0490938C040E941E0146
:100310006093910470939204809393049093940457
:100320000E94230160938D0470938E0480938F0448
:10033000909390040E9428016093990470939A040A
:1003400080939B0490939C040E942D0160939D04D4
:1003500070939E0480939F049093A00408952F921D
:100360003F924F925F926F927F928F929F92AF9245
:10037000BF92CF92DF92EF92FF920F931F93DF9382
:10038000CF93CDB7DEB72A970FB6F894DEBF0FBE76
:10039000CDBF6D837E838F8398871A013A87298723
:1003A00037014801DA01AD90BD90CD90DC90A601F7
:1003B00095010E94100D1816FCF06D817E818F81D1
:1003C0009885A60195010E94980C7B018C01F10192
:1003D0006481758186819781A60195010E94980CA0
:1003E0009B01AC01C801B7010E94140D5B016C01B7
:1003F000442455243201B1C067019701220F331FF5
:10040000220F331F220D331DD9018D919D910D9027
:10041000BC91A02D89839A83AB83BC836D817E813F
:100420008F81988529813A814B815C810E94100DD2
:1004300088230CF062C016950795F794E794640141
:10044000530144245524320122C0F701EE0FFF1F4F
:10045000EE0FFF1FE20DF31D6D817E818F81988568
:1004600020813181428153810E94100D87FD03C09C
:100470002701380102C05701680183017201EA0CAB
:10048000FB1C0C1D1D1D16950795F794E794D601CE
:10049000C50184199509A609B7090297A105B105F7
:1004A000A0F68201F201EE0FFF1FEE0FFF1FE20D1B
:1004B000F31DC080D180E280F3806D817E818F81C9
:1004C0009885A70196010E94980C4B015C010F5F73
:1004D0001F4F000F111F000F111F020D131DF801F8
:1004E0006081718182819381A70196010E94980C9D
:1004F0009B01AC01C501B4012CC02701380108944F
:1005000041085108610871088FEF9FE3C80ED91E9A
:10051000CC0CDD1CCC0CDD1CC20CD31CD601ED9028
:10052000FD900D911C916D817E818F819885A80130
:1005300097010E94980C5B016C0169817A818B8123
:100540009C81A80197010E94980C9B01AC01C601F7
:10055000B5010E94140D5B016C01D2019201220FC2
:10056000331F220F331FE985FA852E0F3F1FF90134
:10057000E080F180028113811196AA0FBB1FAA0FA0
:10058000BB1F89859A85A80FB91F6D917D918D91AB
:100590009C91A80197010E94980CA60195010E94C8
:1005A000010FA80197010E94990C2A960FB6F894A2
:1005B000DEBF0FBECDBFCF91DF911F910F91FF9096
:1005C000EF90DF90CF90BF90AF909F908F907F90F3
:1005D0006F905F904F903F902F900895EF92FF9211
:1005E0000F931F930CE215E0E0902C05F0902D0581
:1005F000F8013E9760817181828193816F5F7F4FA7
:100600008F4F9F4F60837183828393830E94A80DD5
:100610002091220530912305409124055091250514
:100620000E94010FF70160837183828393830650D8
:100630001040F80180819181A281B3810196A11DB2
:10064000B11D80839183A283B3831F910F91FF908B
:10065000EF900895089584E090E00E947201E1EA2D
:10066000F4E085E9DF011D928A95E9F78AE295E0D9
:100670009093A6048093A5048CE295E097AF86AF93
:1006800082E295E09093B4048093B304F0930A055A
:10069000E0930905F093A404E093A30481E090E0C3
:1006A00090932B0580932A0580E091E09093AA0413
:1006B0008093A9048EE295E090932D0580932C05FC
:1006C0008AE097EDA3E2BCE3809322059093230593
:1006D000A0932405B093250583E0E6E3F5E0DF0170
:1006E0001D928A95E9F780917A0360911E020E941B
:1006F0008E0C80917B03609122020E948E0C80916F
:100700007C03609126020E948E0C0895EF92FF9266
:100710000F931F937B018C019F7720E030E040E82E
:1007200059E50E94100D87FD03C0B701C80132C012
:10073000C801B70120E030E040E05FE30E94FD0E19
:1007400088235CF0C801B70120E030E040E05FE3BF
:100750000E94990C0E94E50D1DC0C801B70120E060
:1007600030E040E05FEB0E94FD0E18164CF4C8012B
:10077000B70120E030E040E050E00E94010F0AC0E5
:10078000C801B70120E030E040E05FE30E94980C30
:100790000E94FD0C1F910F91FF90EF9008952F92F2
:1007A0003F924F925F926F927F928F929F92AF9201
:1007B000BF92CF92DF92EF92FF920F931F931B0194
:1007C0002C0139014A010E946701882391F4C2017A
:1007D000B1010E943C01882361F4C401B3010E946D
:1007E0006701882331F4C401B3010E943C018823CE
:1007F00049F06091950470919604809197049091CE
:10080000980458C0C401B30120E030E040E050E05B
:100810000E94100D88232CF4C401B3010E94FD0C2A
:1008200004C0C401B3010E94E50D7B018C01C40129
:10083000B30120E030E040E050E00E94100D88233A
:1008400099F1C401B301A80197010E94100D8823FA
:1008500059F1C201B101A40193010E94140D7B0161
:100860008C010E9486039B01AC01C801B7010E9464
:10087000980C5B016C01E894D7F8E89417F9C8016B
:10088000B70120E030E040E054E30E94010F9B01FB
:10089000AC01C601B5010E94100D18162CF060E0E5
:1008A00070E080E090E006C0C201B101A4019301B4
:1008B0000E94FF0D1F910F91FF90EF90DF90CF905E
:1008C000BF90AF909F908F907F906F905F904F9070
:1008D0003F902F900895AF92BF92CF92DF92EF9208
:1008E000FF920F931F93E0912C05F0912D056081ED
:1008F00071818281938120912A0230912B02409153
:100900002C0250912D020E94CF034EE252E022E1D0
:1009100031E0B0E1EB2EF12C012D112D0E94AF0141
:10092000D62EC72EB82EA92EE0907202F090730238
:100930000091740210917502A80197010E94FD0EAA
:100940001816C4F0E0907602F090770200917802D9
:10095000109179026D2D7C2D8B2D9A2DA801970178
:100960000E94100D87FD06C08D2D9C2DAB2DBA2D3C
:100970007C018D01C801B701905820917A02309115
:100980007B0240917C0250917D020E94010F2091D8
:100990007E0230917F0240918002509181020E943C
:1009A000990C7B018C0120E030E040E853E40E9488
:1009B000100D8823A4F4C801B70120E030E040E026
:1009C00050E00E94FD0E88233CF0C801B7010E9450
:1009D0007C0D6093360506C01092360503C08FEF7C
:1009E0008093360580917A03609136050E94840CCD
:1009F000E0912C05F0912D056081718182819381B8
:100A000020918202309183024091840250918502AC
:100A10000E94CF0346E852E026E531E0A0E2EA2E4C
:100A2000F12C012D112D0E94AF01D62EC72EB82E0C
:100A3000A92EE0900A03F0900B0300910C03109193
:100A40000D03A80197010E94FD0E1816C4F0E09056
:100A50000E03F0900F0300911003109111036D2D00
:100A60007C2D8B2D9A2DA80197010E94100D87FDDA
:100A700006C08D2D9C2DAB2DBA2D7C018D01C8019A
:100A8000B701209112033091130340911403509148
:100A900015030E94010F2091160330911703409116
:100AA0001803509119030E94010F20911A033091ED
:100AB0001B0340911C0350911D030E94990C7B0164
:100AC0008C0120E030E040E853E40E94100D8823C0
:100AD000A4F4C801B70120E030E040E050E00E94FB
:100AE000FD0E88233CF0C801B7010E947C0D609385
:100AF000370506C01092370503C08FEF8093370586
:100B000080917B03609137050E94840CE0912C0555
:100B1000F0912D05608171818281938120911E0366
:100B200030911F0340912003509121030E94CF0375
:100B300042E253E02AED31E0F0E1EF2EF12C012DFD
:100B4000112D0E94AF01D62EC72EB82EA92EE090EF
:100B50006603F09067030091680310916903A80190
:100B600097010E94FD0E1816C4F0E0906A03F09001
:100B70006B0300916C0310916D036D2D7C2D8B2DFB
:100B80009A2DA80197010E94100D87FD06C08D2D9A
:100B90009C2DAB2DBA2D7C018D01C801B701209190
:100BA0006E0330916F0340917003509171030E9466
:100BB000010F20917203309173034091740350919F
:100BC00075030E94010F20917603309177034091C5
:100BD0007803509179030E94990C7B018C0120E0ED
:100BE00030E040E853E40E94100D8823A4F4C801CB
:100BF000B70120E030E040E050E00E94FD0E882385
:100C00003CF0C801B7010E947C0D6093380506C016
:100C10001092380503C08FEF8093380580917C03D4
:100C2000609138050E94840C1F910F91FF90EF9006
:100C3000DF90CF90BF90AF9008951F920F920FB6A4
:100C40000F9211242F933F934F938F939F93EF9382
:100C5000FF938091C00082FD1DC04091C60020918D
:100C6000DD033091DE032F5F3F4F2F733070809193
:100C7000DF039091E0032817390771F0E091DD035D
:100C8000F091DE03E356FC4F40833093DE03209364
:100C9000DD0302C08091C600FF91EF919F918F917B
:100CA0004F913F912F910F900FBE0F901F9018956D
:100CB0001F920F920FB60F9211242F933F938F9391
:100CC0009F93EF93FF932091210430912204809110
:100CD0002304909124042817390731F48091C1002E
:100CE0008F7D8093C10014C0E0912304F09124040F
:100CF000EF51FC4F208180912304909124040196B0
:100D00008F73907090932404809323042093C600E3
:100D1000FF91EF919F918F913F912F910F900FBE77
:100D20000F901F901895DC011C96ED91FC911D977A
:100D3000E05CFF4F2191319180819181281B390B1B
:100D40002F733070C9010895DC011C96ED91FC9160
:100D50001D97E05CFF4F20813181E054F040DF01BE
:100D6000AE5BBF4F8D919C9111972817390719F4ED
:100D70002FEF3FEF07C08D919C91E80FF91F808105
:100D8000282F30E0C9010895DC011C96ED91FC91FB
:100D90001D97E05CFF4F20813181E054F040DF017E
:100DA000AE5BBF4F8D919C9111972817390719F4AD
:100DB0002FEF3FEF10C08D919C911197E80FF91F15
:100DC00020818D919C91119701968F73907011964F
:100DD0009C938E9330E0C9010895DC0191968C912B
:100DE0009197882339F05496ED91FC915597808125
:100DF00086FFF9CF91961C920895CF93DF93EC0173
:100E0000EE85FF85E05CFF4F20813181E054F040AA
:100E10002F5F3F4F2F733070DF01AE5BBF4F8D915F
:100E20009C91119728173907D1F3E05CFF4F80811F
:100E30009181E054F040E80FF91F6083EE85FF8553
:100E4000E05CFF4F31832083EE89FF89208181E0C0
:100E500090E00F8C02C0880F991F0A94E2F7282BAC
:100E6000208381E089A3EC89FD898081806480836F
:100E700081E090E0DF91CF910895109228041092C4
:100E8000270488EE93E0A0E0B0E0809329049093DB
:100E90002A04A0932B04B0932C0483E893E090934E
:100EA0002604809325048DE993E090933204809387
:100EB000310481EE93E0909334048093330485EC05
:100EC00090E0909336048093350484EC90E0909306
:100ED00038048093370480EC90E090933A04809338
:100EE000390481EC90E090933C0480933B0482ECC5
:100EF00090E090933E0480933D0486EC90E09093C4
:100F0000400480933F0484E08093410483E0809315
:100F1000420487E08093430485E08093440481E0A9
:100F200080934504089583E993E090934804809367
:100F300047041092490410924A0410924B041092F4
:100F40004C0408958F929F92AF92BF92CF92DF92FE
:100F5000EF92FF920F931F93CF93DF934C016B019E
:100F60007C01AA24BB24C0E0D0E0C601F701628165
:100F70004AE050E00E94A5088C01C6016EE20E9482
:100F80000E08080F191FA00EB11E21960894E11C2F
:100F9000F11CC330D10549F7C601F40165814AE06F
:100FA00050E00E94A5089501280F391FC901DF9163
:100FB000CF911F910F91FF90EF90DF90CF90BF9056
:100FC000AF909F908F900895CF92DF92EF92FF9213
:100FD0000F931F93CF93DF937C016B018A01C0E0D5
:100FE000D0E00FC0D6016D916D01D701ED91FC915C
:100FF0000190F081E02DC7010995C80FD91F01505C
:1010000010400115110571F7CE01DF91CF911F91AD
:101010000F91FF90EF90DF90CF900895DC01ED915C
:10102000FC910190F081E02D09950895CF93DF9315
:10103000EC016115710519F420E030E00FC0DB010F
:101040000D900020E9F71197A61BB70BE881F981F5
:101050000280F381E02DAD0109959C01C901DF916A
:10106000CF9108954F925F927F928F929F92AF920D
:10107000BF92CF92DF92EF92FF920F931F93DF9375
:10108000CF93CDB7DEB7A1970FB6F894DEBF0FBEF2
:10109000CDBF2C01742ECB01223008F42AE019A216
:1010A00031E2C32ED12CCC0EDD1E822E9924AA242F
:1010B000BB24672D752FA50194010E94A20F790111
:1010C0008A01C801B701A50194010E94640F472D50
:1010D000461B0894C108D1084A3014F4405D01C091
:1010E000495CF6014083E114F1040105110521F08A
:1010F0007E2C5F2DC801DDCFC201B6010E9416080B
:10110000A1960FB6F894DEBF0FBECDBFCF91DF9191
:101110001F910F91FF90EF90DF90CF90BF90AF9015
:101120009F908F907F905F904F900895DC012115E4
:10113000310541F4ED91FC910190F081E02D642F97
:10114000099508950E9432080895EF92FF920F9337
:101150001F939A01E62EFF2400E010E0B801A701DA
:101160000E9496081F910F91FF90EF9008951F9293
:101170000F920FB60F9211242F933F934F935F93CB
:101180006F937F938F939F93AF93BF93EF93FF934F
:1011900080914D0490914E04892B29F0E0914D04EB
:1011A000F0914E040995FF91EF91BF91AF919F91FE
:1011B0008F917F916F915F914F913F912F910F9000
:1011C0000FBE0F901F9018951F920F920FB60F929F
:1011D00011242F933F934F935F936F937F938F933C
:1011E0009F93AF93BF93EF93FF9380914F049091A0
:1011F0005004892B29F0E0914F04F0915004099597
:10120000FF91EF91BF91AF919F918F917F916F91DE
:101210005F914F913F912F910F900FBE0F901F90B4
:1012200018952F923F924F925F926F927F928F927A
:101230009F92AF92BF92CF92DF92EF92FF920F9365
:101240001F93DF93CF93CDB7DEB73B014C0119015C
:101250002A016D897E898F89988D6A197B098C098D
:101260009D09621A730A840A950AA40193010E94D7
:10127000640FE218F30804091509A80197010E94F8
:10128000C40F2A0D3B1D4C1D5D1DB901CA01CF9134
:10129000DF911F910F91FF90EF90DF90CF90BF9063
:1012A000AF909F908F907F906F905F904F903F9006
:1012B0002F9008951F920F920FB60F9211242F9323
:1012C0003F938F939F93AF93BF93809155049091D9
:1012D0005604A0915704B0915804309159040196D6
:1012E000A11DB11D232F2D5F2D3720F02D57019605
:1012F000A11DB11D20935904809355049093560469
:10130000A0935704B09358048091510490915204D3
:10131000A0915304B09154040196A11DB11D809376
:10132000510490935204A0935304B0935404BF917A
:10133000AF919F918F913F912F910F900FBE0F9082
:101340001F901895789484B5826084BD84B58160BF
:1013500084BD85B5826085BD85B5816085BDEEE6BD
:10136000F0E0808181608083E1E8F0E0108280819C
:1013700082608083808181608083E0E8F0E080810A
:1013800081608083E1EBF0E0808184608083E0EB2A
:10139000F0E0808181608083EAE7F0E08081846012
:1013A000808380818260808380818160808380816E
:1013B000806880831092C1000895CF93DF93482FF7
:1013C00050E0CA0186569F4FFC0134914A575F4F47
:1013D000FA018491882369F190E0880F991FFC013C
:1013E000E859FF4FA591B491FC01EE58FF4FC5910C
:1013F000D491662351F42FB7F8948C91932F909544
:1014000089238C93888189230BC0623061F42FB7C4
:10141000F8948C91932F909589238C938881832BBA
:1014200088832FBF06C09FB7F8948C91832B8C9331
:101430009FBFDF91CF910895482F50E0CA01825598
:101440009F4FFC012491CA0186569F4FFC01949145
:101450004A575F4FFA013491332309F440C02223E5
:1014600051F1233071F0243028F42130A1F02230E2
:1014700011F514C02630B1F02730C1F02430D9F472
:1014800004C0809180008F7703C0809180008F7DA1
:101490008093800010C084B58F7702C084B58F7DA3
:1014A00084BD09C08091B0008F7703C08091B000E7
:1014B0008F7D8093B000E32FF0E0EE0FFF1FEE581A
:1014C000FF4FA591B4912FB7F894662321F48C9126
:1014D0009095892302C08C91892B8C932FBF0895FE
:1014E000FC0180915A048C3090F480838F5F80934C
:1014F0005A04815090E0FC01EE0FFF1FE80FF91F26
:10150000E55AFB4F88EB9BE09283818308958FEF30
:1015100080830895FC0120812C30B8F581819927C2
:1015200087FD909548E850E0481B590B440F551F24
:10153000440F551F6417750784F08281992787FD32
:10154000909548E552E0481B590B440F551F440F36
:10155000551F641775070CF4AB0142505040CA0187
:10156000AA2797FDA095BA2F880F991FAA1FBB1F06
:101570004FB7F89430E0F901EE0FFF1FE20FF31FB1
:10158000E55AFB4F928381834FBF0895AF92BF927C
:10159000CF92DF92EF92FF920F931F93CF93DF933F
:1015A000EC019B0182E0603278070CF048C077FFC5
:1015B00003C020E030E005C0653B710514F024EB6A
:1015C00030E000D000D0B901882777FD8095982FB2
:1015D0002981332727FD3095E8E8AE2EB12CA21AD9
:1015E000B30AAA0CBB1CAA0CBB1CCC24B7FCC0942D
:1015F000DC2CEA81FF27E7FDF09528E532E02E1B81
:101600003F0B220F331F220F331F442737FD409516
:10161000542FEDB7FEB7218332834383548320E0F8
:1016200030E040E050E004EBE02EF12C012D112DD4
:101630000E9411099B010F900F900F900F90CE0107
:10164000B9010E948A0ADF91CF911F910F91FF90FB
:10165000EF90DF90CF90BF90AF900895CF92DF9240
:10166000EF92FF921F93CF93DF93EC01162F7A0135
:10167000690188818C3008F064C0862F61E00E9487
:10168000DD09888190E0FC01EE0FFF1FE80FF91FD4
:10169000E55AFB4F1F738081807C812B808380E221
:1016A00092E08E199F0964E070E00E948F0F6983B9
:1016B00080E699E08C199D0964E070E00E948F0F2C
:1016C0006A83A8818A2F6CE00E94830F682F70E0E4
:1016D000AB01440F551F460F571F440F551F440FB2
:1016E000551F20E030E0C901840F951FFC01EE0F6B
:1016F000FF1FE80FF91FE55AFB4F808186FD15C0DB
:101700002F5F3F4F2C30310571F724C010928000BD
:1017100082E0809381001092850010928400B19A3B
:1017200080916F00826080936F008A2F90E0FC01AF
:10173000EE0FFF1FE80FF91FE55AFB4F8081806411
:1017400080838881DF91CF911F91FF90EF90DF9090
:10175000CF900895672BD1F2E8CF40E252E020E627
:1017600039E00E942E0B08951F920F920FB60F9230
:1017700011242F933F934F935F936F937F938F9396
:101780009F93AF93BF93EF93FF9380917F0487FF65
:1017900005C010928500109284002BC020917F0418
:1017A000332727FD309580915A0490E02817390798
:1017B00004F580917F04992787FD9095FC01EE0F39
:1017C000FF1FE80FF91FE55AFB4F808186FF11C00C
:1017D00080917F04992787FD9095FC01EE0FFF1FF4
:1017E000E80FF91FE55AFB4F80818F7360E00E947C
:1017F0001C0A80917F048F5F80937F0420917F0477
:10180000332727FD309580915A0490E02817390737
:101810000CF04EC080917F048C300CF049C02091B8
:1018200084003091850080917F04992787FD9095F1
:10183000FC01EE0FFF1FE80FF91FE55AFB4F8181F6
:101840009281280F391F309389002093880080915E
:101850007F04992787FD9095FC01EE0FFF1FE80F8D
:10186000F91FE55AFB4F808186FF2BC080917F04D2
:10187000992787FD9095FC01EE0FFF1FE80FF91FD8
:10188000E55AFB4F80818F7361E00E941C0A19C0EA
:1018900080E49CE905C080918400909185000496C5
:1018A00090938900809388008FEF80937F0409C014
:1018B0008091840090918500049680549C4940F367
:1018C000EACFFF91EF91BF91AF919F918F917F915F
:1018D0006F915F914F913F912F910F900FBE0F909D
:1018E0001F9018950F931F9300E814E0C8010E9401
:1018F000700AC80103960E94700AC80106960E94E9
:10190000700A1F910F91089593E0899FC0011124DF
:1019100080589B4F70E00E94C60A089593E0899F0B
:10192000C001112480589B4F70E00E94AD0B0895B8
:101930005058BB27AA270ED00FC200D230F005D2D4
:1019400020F031F49F3F11F41EF4F5C10EF4E09540
:10195000E7FBC0C1E92F11D280F3BA176207730702
:101960008407950718F071F49EF540C20EF4E095D7
:101970000B2EBA2FA02D0B01B90190010C01CA0149
:10198000A0011124FF27591B99F0593F50F4503EF4
:1019900068F11A16F040A22F232F342F4427585FE6
:1019A000F3CF469537952795A795F0405395C9F7FE
:1019B0007EF41F16BA0B620B730B840BBAF09150B6
:1019C000A1F0FF0FBB1F661F771F881FC2F70EC055
:1019D000BA0F621F731F841F48F487957795679528
:1019E000B795F7959E3F08F0B3CF9395880F08F011
:1019F0009927EE0F979587950895E1D180F09F374D
:101A000040F491110EF4F3C160E070E080E89FE3D0
:101A1000089526F01B16611D711D811D61C17BC1DA
:101A200035D108F481E008950CD096C18ED140F0F4
:101A300085D130F021F45F3F19F04CC15111D7C16D
:101A40007AC19BD198F39923C9F35523B1F3951B20
:101A5000550BBB27AA2762177307840738F09F5FCF
:101A60005F4F220F331F441FAA1FA9F333D00E2E3E
:101A70003AF0E0E830D091505040E695001CCAF7AB
:101A800029D0FE2F27D0660F771F881FBB1F261770
:101A900037074807AB07B0E809F0BB0B802DBF0143
:101AA000FF2793585F4F2AF09E3F510568F012C1FF
:101AB0009EC15F3FECF3983EDCF386957795679582
:101AC000B795F7959F5FC9F7880F911D96958795F4
:101AD00097F90895E1E0660F771F881FBB1F621713
:101AE00073078407BA0720F0621B730B840BBA0BD1
:101AF000EE1F88F7E095089548D188F09F5790F041
:101B0000B92F9927B751A0F0D1F0660F771F881F22
:101B1000991F1AF0BA95C9F712C0B13081F066D199
:101B2000B1E0089563C1672F782F8827B85F39F037
:101B3000B93FCCF3869577956795B395D9F73EF481
:101B400090958095709561957F4F8F4F9F4F089529
:101B5000E89409C097FB3EF4909580957095619547
:101B60007F4F8F4F9F4F9923A9F0F92F96E9BB27FD
:101B70009395F695879577956795B795F111F8CF79
:101B8000FAF4BB0F11F460FF1BC06F5F7F4F8F4FE4
:101B90009F4F16C0882311F096E911C0772321F0DA
:101BA0009EE8872F762F05C0662371F096E8862F72
:101BB00070E060E02AF09A95660F771F881FDAF7C9
:101BC000880F9695879597F90895F9D080F09F37FB
:101BD00040F491110EF00BC160E070E080E89FEBE3
:101BE000089526F41B16611D711D811D79C093C0D7
:101BF000A5D018F011F0A9D038F49DC0F8C0E92F95
:101C0000BCD0B0F35523C9F3E7FB62177307840711
:101C10009507A8F199F3E92FFF2788232AF0319738
:101C2000660F771F881FDAF7952F5527442332F068
:101C300091505040220F331F441FD2F7BB27E91B9E
:101C4000F50B621B730B840BB109C1F222F4620F16
:101C5000731F841FB11D31972AF0660F771F881FED
:101C6000BB1FEFCF915050405AF041F0882332F023
:101C7000660F771F881F91505040C1F793954BC056
:101C80008695779567959F5FD9F7F8CF990F0008EC
:101C9000550FAA0BE0E8FEEF16161706E807F9073E
:101CA000C0F012161306E407F50798F0621B730BD9
:101CB000840B950B39F40A2661F0232B242B252B5A
:101CC00021F408950A2609F4A140A6958FEF811DFD
:101CD000811D089597F99F6780E870E060E008959E
:101CE000882371F4772321F09850872B762F07C033
:101CF000662311F499270DC09051862B70E060E0A7
:101D00002AF09A95660F771F881FDAF7880F969545
:101D1000879597F908959F3F49F0915028F486954B
:101D200077956795B7959F5F80389F4F880F9695F9
:101D3000879597F908959FEF80EC089500240A9401
:101D40001616170618060906089500240A94121696
:101D50001306140605060895092E0394000C11F4C9
:101D6000882352F0BB0F40F4BF2B11F460FF04C076
:101D70006F5F7F4F8F4F9F4F089557FD9058440FCF
:101D8000551F59F05F3F71F04795880F97FB991FDA
:101D900061F09F3F79F08795089512161306140697
:101DA000551FF2CF4695F1DF08C016161706180624
:101DB000991FF1CF86957105610508940895E5DFB7
:101DC000A0F0BEE7B91788F4BB279F3860F4161659
:101DD000B11D672F782F8827985FF7CF8695779565
:101DE0006795B11D93959639C8F30895E894BB277C
:101DF00066277727CB0197F9089548DF08F48FEF1E
:101E000008950BD0A9CF9ADF28F09FDF18F0952313
:101E100009F060CF90CF1124EACFAFDFA0F3959FF8
:101E2000D1F3950F50E0551F629FF001729FBB27C1
:101E3000F00DB11D639FAA27F00DB11DAA1F649F6D
:101E40006627B00DA11D661F829F2227B00DA11D20
:101E5000621F739FB00DA11D621F839FA00D611DA6
:101E6000221F749F3327A00D611D231F849F600DC7
:101E7000211D822F762F6A2F11249F5750408AF000
:101E8000E1F088234AF0EE0FFF1FBB1F661F771F8C
:101E9000881F91505040A9F79E3F510570F01ACF0E
:101EA000A6CF5F3FECF3983EDCF386957795679578
:101EB000B795F795E7959F5FC1F7FE2B880F911DAA
:101EC0009695879597F90895629FD001739FF001C9
:101ED000829FE00DF11D649FE00DF11D929FF00DBA
:101EE000839FF00D749FF00D659FF00D9927729FF1
:101EF000B00DE11DF91F639FB00DE11DF91FBD017C
:101F0000CF0111240895991B79E004C0991F9617F9
:101F100008F0961B881F7A95C9F78095089597FB5E
:101F2000092E07260AD077FD04D049D006D000201C
:101F30001AF4709561957F4F0895F6F79095819505
:101F40009F4F0895A1E21A2EAA1BBB1BFD010DC0D5
:101F5000AA1FBB1FEE1FFF1FA217B307E407F50759
:101F600020F0A21BB30BE40BF50B661F771F881F35
:101F7000991F1A9469F760957095809590959B01CB
:101F8000AC01BD01CF01089597FB092E05260ED0A7
:101F900057FD04D0D7DF0AD0001C38F45095409587
:101FA000309521953F4F4F4F5F4F0895F6F790952D
:101FB0008095709561957F4F8F4F9F4F0895AA1B15
:101FC000BB1B51E107C0AA1FBB1FA617B70710F024
:101FD000A61BB70B881F991F5A95A9F78095909556
:101FE000BC01CD010895EE0FFF1F0590F491E02D87
:061FF0000994F894FFCFF4
:101FF6004669786564537465704469736372657481
:1020060065000000B4C20000B4C2000034C2000083
:1020160034C200000000000000000000344200004E
:1020260034420000B4420000B442000034420000D2
:1020360034420000000000000000000034C200002E
:1020460034C20000B4C2000000000000000000001E
:102056003442000034420000B4420000B4420000A2
:1020660007430000074300003443000034430000E8
:102076000743000007430000B4420000B4420000DA
:10208600344200003442000000000000000000005E
:1020960034C2000034C20000B4C20000B4C2000062
:1020A60007C3000007C3000034C3000034C30000A8
:1020B60007C3000007C30000B4C20000B4C200009A
:1020C60034C2000034C200000000000034430000A7
:1020D60034430000B4420000B44200000000000097
:1020E60000000000B4C20000B4C2000034C3000007
:1020F60034C30000B4C20000B4C2000000000000F7
:1021060000000000B4420000B4420000344309005D
:1021160000000A0000000B000000000080410000E3
:1021260000000000803F000000400000404000002A
:1021360080400000A0400000C0400000E0400000D9
:102146000041000010410000204100003041000025
:102156004041000050410000604100007041000015
:1021660080410000B4420000B4C25555153F00003E
:10217600B44200000043000000000000E040000000
:10218600004100007041000080410000B84100009D
:10219600C0410000F8410000004200001C4200005F
:1021A600204200003C420000404200005C42000029
:1021B600604200007C420000804200008E42000027
:1021C600904200009E420000A0420000AE42000085
:1021D600B0420000BE420000C0420000CE420000F5
:1021E600D0420000DE420000E0420000EE42000065
:1021F600F0420000FE4200000043000034430000AD
:1022060034C35555153F233E013F0000B24200201E
:102216008044000000000000FE4200000043000071
:102226007F43008080430080BF430080C04300801E
:10223600FF430040004400C01F440040204400C04B
:102246003F440040404400C05F440040604400C03A
:102256007F440020804400003443000034C3398E9C
:10226600E33E4CAE203F0000B442000102A1040050
:10227600000000FD06E4079306C406A406ED06006A
:06228600000000A20700A9
:00000001FF
