:100000000C9464000C9428030C9455030C948C00FD
:100010000C948C000C948C000C948C000C948C0030
:100020000C948C000C94780C0C948C000C94250689
:100030000C948C000C948C000C948C000C948C0010
:100040000C94CB030C948C000C948E000C94C9007F
:100050000C948C000C948C000C948C000C948C00F0
:100060000C948C000C948C000000000024002700ED
:100070002A0000000000250028002B0000000000DE
:1000800023002600290004040404040404040202DA
:100090000202020203030303030301020408102007
:1000A0004080010204081020010204081020000012
:1000B0000007000201000003040600000000000029
:1000C0000000AE010402E30611241FBECFEFD8E00A
:1000D000DEBFCDBF13E0A0E0B1E0ECE3F1E202C08F
:1000E00005900D92A638B107D9F715E0A6E8B3E060
:1000F00001C01D92A932B107E1F710E0C8ECD0E0D1
:1001000004C02297FE010E949810C23CD107C9F793
:100110000E941A0C0C949C100C9400001F920F92D9
:100120000FB60F9211242F933F934F938F939F936A
:10013000EF93FF938091C00082FD1DC04091C600E7
:100140002091C6033091C7032F5F3F4F2F7330704C
:100150008091C8039091C9032817390771F0E09185
:10016000C603F091C703EA57FC4F40833093C7039F
:100170002093C60302C08091C600FF91EF919F912A
:100180008F914F913F912F910F900FBE0F901F9025
:1001900018951F920F920FB60F9211242F933F9331
:1001A0008F939F93EF93FF9320910A0430910B0458
:1001B00080910C0490910D042817390731F4809137
:1001C000C1008F7D8093C10014C0E0910C04F091B8
:1001D0000D04E653FC4F208180910C0490910D0496
:1001E00001968F73907090930D0480930C0420936C
:1001F000C600FF91EF919F918F913F912F910F90AA
:100200000FBE0F901F901895DC011C96ED91FC918C
:100210001D97E05CFF4F2191319180819181281BD6
:10022000390B2F733070C9010895DC011C96ED91D4
:10023000FC911D97E05CFF4F20813181E054F0403C
:10024000DF01AE5BBF4F8D919C9111972817390745
:1002500019F42FEF3FEF07C08D919C91E80FF91F24
:100260008081282F30E0C9010895DC011C96ED91B2
:10027000FC911D97E05CFF4F20813181E054F040FC
:10028000DF01AE5BBF4F8D919C9111972817390705
:1002900019F42FEF3FEF10C08D919C911197E80F4B
:1002A000F91F20818D919C91119701968F73907009
:1002B00011969C938E9330E0C9010895DC019196CC
:1002C0008C919197882339F05496ED91FC91559734
:1002D000808186FFF9CF91961C920895CF93DF938A
:1002E000EC01EE85FF85E05CFF4F20813181E05419
:1002F000F0402F5F3F4F2F733070DF01AE5BBF4F79
:100300008D919C91119728173907D1F3E05CFF4F2D
:1003100080819181E054F040E80FF91F6083EE8501
:10032000FF85E05CFF4F31832083EE89FF892081C8
:1003300081E090E00F8C02C0880F991F0A94E2F7C9
:10034000282B208381E089A3EC89FD89808180644A
:10035000808381E090E0DF91CF91089510921104A5
:100360001092100488EE93E0A0E0B0E080931204B5
:1003700090931304A0931404B093150481E793E0C1
:1003800090930F0480930E0486E893E090931B04EF
:1003900080931A048AEC93E090931D0480931C04CC
:1003A00085EC90E090931F0480931E0484EC90E011
:1003B000909321048093200480EC90E09093230498
:1003C0008093220481EC90E0909325048093240490
:1003D00082EC90E0909327048093260486EC90E0D2
:1003E000909329048093280484E080932A0483E076
:1003F00080932B0487E080932C0485E080932D0468
:1004000081E080932E04089581E893E09093310475
:10041000809330041092320410923304109234040A
:100420001092350408958F929F92AF92BF92CF920F
:10043000DF92EF92FF920F931F93CF93DF934C01C4
:100440006B017C01AA24BB24C0E0D0E0C601F70107
:1004500062814AE050E00E9416038C01C6016EE200
:100460000E947F02080F191FA00EB11E219608944A
:10047000E11CF11CC330D10549F7C601F4016581C7
:100480004AE050E00E9416039501280F391FC90168
:10049000DF91CF911F910F91FF90EF90DF90CF9060
:1004A000BF90AF909F908F900895CF92DF92EF9280
:1004B000FF920F931F93CF93DF937C016B018A010F
:1004C000C0E0D0E00FC0D6016D916D01D701ED9174
:1004D000FC910190F081E02DC7010995C80FD91F4B
:1004E000015010400115110571F7CE01DF91CF9138
:1004F0001F910F91FF90EF90DF90CF900895DC0156
:10050000ED91FC910190F081E02D09950895CF9334
:10051000DF93EC016115710519F420E030E00FC0A4
:10052000DB010D900020E9F71197A61BB70BE881BE
:10053000F9810280F381E02DAD0109959C01C9018B
:10054000DF91CF9108954F925F927F928F929F9209
:10055000AF92BF92CF92DF92EF92FF920F931F93D1
:10056000DF93CF93CDB7DEB7A1970FB6F894DEBF78
:100570000FBECDBF2C01742ECB01223008F42AE02F
:1005800019A231E2C32ED12CCC0EDD1E822E99246D
:10059000AA24BB24672D752FA50194010E94451044
:1005A00079018A01C801B701A50194010E940710D1
:1005B000472D461B0894C108D1084A3014F4405D09
:1005C00001C0495CF6014083E114F1040105110505
:1005D00021F07E2C5F2DC801DDCFC201B6010E9443
:1005E0008702A1960FB6F894DEBF0FBECDBFCF91A4
:1005F000DF911F910F91FF90EF90DF90CF90BF9010
:10060000AF909F908F907F905F904F900895DC0106
:100610002115310541F4ED91FC910190F081E02D1F
:10062000642F099508950E94A3020895EF92FF9206
:100630000F931F939A01E62EFF2400E010E0B8010B
:10064000A7010E9407031F910F91FF90EF9008955B
:100650001F920F920FB60F9211242F933F934F9337
:100660005F936F937F938F939F93AF93BF93EF931A
:10067000FF938091360490913704892B29F0E09103
:100680003604F09137040995FF91EF91BF91AF9136
:100690009F918F917F916F915F914F913F912F919A
:1006A0000F900FBE0F901F9018951F920F920FB6CC
:1006B0000F9211242F933F934F935F936F937F93E8
:1006C0008F939F93AF93BF93EF93FF9380913804E1
:1006D00090913904892B29F0E0913804F091390484
:1006E0000995FF91EF91BF91AF919F918F917F916C
:1006F0006F915F914F913F912F910F900FBE0F908F
:100700001F9018952F923F924F925F926F927F9217
:100710008F929F92AF92BF92CF92DF92EF92FF9211
:100720000F931F93DF93CF93CDB7DEB73B014C01FF
:1007300019012A016D897E898F89988D6A197B0933
:100740008C099D09621A730A840A950AA40193010F
:100750000E940710E218F30804091509A80197017F
:100760000E9467102A0D3B1D4C1D5D1DB901CA0179
:10077000CF91DF911F910F91FF90EF90DF90CF907D
:10078000BF90AF909F908F907F906F905F904F90B1
:100790003F902F9008951F920F920FB60F92112441
:1007A0002F933F938F939F93AF93BF9380913E047A
:1007B00090913F04A0914004B091410430914204D3
:1007C0000196A11DB11D232F2D5F2D3720F02D5730
:1007D0000196A11DB11D2093420480933E04909385
:1007E0003F04A0934004B093410480913A04909157
:1007F0003B04A0913C04B0913D040196A11DB11DA4
:1008000080933A0490933B04A0933C04B0933D043E
:10081000BF91AF919F918F913F912F910F900FBEFC
:100820000F901F901895789484B5826084BD84B52C
:10083000816084BD85B5826085BD85B5816085BDDB
:10084000EEE6F0E0808181608083E1E8F0E01082F4
:10085000808182608083808181608083E0E8F0E035
:10086000808181608083E1EBF0E08081846080831F
:10087000E0EBF0E0808181608083EAE7F0E0808156
:1008800084608083808182608083808181608083B6
:100890008081806880831092C1000895CF93DF9398
:1008A000482F50E0CA0186569F4FFC0134914A57A9
:1008B0005F4FFA018491882369F190E0880F991FB6
:1008C000FC01E859FF4FA591B491FC01EE58FF4F90
:1008D000C591D491662351F42FB7F8948C91932F3E
:1008E000909589238C93888189230BC0623061F4B1
:1008F0002FB7F8948C91932F909589238C938881AE
:10090000832B88832FBF06C09FB7F8948C91832BCD
:100910008C939FBFDF91CF910895482F50E0CA017B
:1009200082559F4FFC012491CA0186569F4FFC01BE
:1009300094914A575F4FFA013491332309F440C030
:10094000222351F1233071F0243028F42130A1F01A
:10095000223011F514C02630B1F02730C1F0243018
:10096000D9F404C0809180008F7703C0809180000B
:100970008F7D8093800010C084B58F7702C084B5CE
:100980008F7D84BD09C08091B0008F7703C08091B6
:10099000B0008F7D8093B000E32FF0E0EE0FFF1FDB
:1009A000EE58FF4FA591B4912FB7F894662321F428
:1009B0008C919095892302C08C91892B8C932FBFA9
:1009C0000895FC01809143048C3090F480838F5F04
:1009D00080934304815090E0FC01EE0FFF1FE80F6D
:1009E000F91FEC5BFB4F88EB9BE0928381830895BA
:1009F0008FEF80830895FC0120812C30B8F5818130
:100A0000992787FD909548E850E0481B590B440F03
:100A1000551F440F551F6417750784F0828199276D
:100A200087FD909548E552E0481B590B440F551F30
:100A3000440F551F641775070CF4AB01425050402A
:100A4000CA01AA2797FDA095BA2F880F991FAA1F40
:100A5000BB1F4FB7F89430E0F901EE0FFF1FE20F14
:100A6000F31FEC5BFB4F928381834FBF0895AF92DE
:100A7000BF92CF92DF92EF92FF920F931F93CF938B
:100A8000DF93EC019B0182E0603278070CF048C0F4
:100A900077FF03C020E030E005C0653B710514F02E
:100AA00024EB30E000D000D0B901882777FD809595
:100AB000982F2981332727FD3095E8E8AE2EB12CF9
:100AC000A21AB30AAA0CBB1CAA0CBB1CCC24B7FCF0
:100AD000C094DC2CEA81FF27E7FDF09528E532E0A1
:100AE0002E1B3F0B220F331F220F331F442737FDCE
:100AF0004095542FEDB7FEB721833283438354834F
:100B000020E030E040E050E004EBE02EF12C012D3D
:100B1000112D0E9482039B010F900F900F900F9058
:100B2000CE01B9010E94FB04DF91CF911F910F917B
:100B3000FF90EF90DF90CF90BF90AF900895CF924D
:100B4000DF92EF92FF921F93CF93DF93EC01162F6A
:100B50007A01690188818C3008F064C0862F61E0D9
:100B60000E944E04888190E0FC01EE0FFF1FE80F09
:100B7000F91FEC5BFB4F1F738081807C812B80838E
:100B800080E292E08E199F0964E070E00E943210CA
:100B9000698380E699E08C199D0964E070E00E9409
:100BA00032106A83A8818A2F6CE00E942610682F79
:100BB00070E0AB01440F551F460F571F440F551FE0
:100BC000440F551F20E030E0C901840F951FFC0140
:100BD000EE0FFF1FE80FF91FEC5BFB4F808186FDD6
:100BE00015C02F5F3F4F2C30310571F724C0109294
:100BF000800082E080938100109285001092840032
:100C0000B19A80916F00826080936F008A2F90E08C
:100C1000FC01EE0FFF1FE80FF91FEC5BFB4F80811B
:100C2000806480838881DF91CF911F91FF90EF9046
:100C3000DF90CF900895672BD1F2E8CF40E252E0E9
:100C400020E639E00E949F0508951F920F920FB68B
:100C50000F9211242F933F934F935F936F937F9342
:100C60008F939F93AF93BF93EF93FF93809168040B
:100C700087FF05C010928500109284002BC0209140
:100C80006804332727FD30958091430490E02817AE
:100C9000390704F580916804992787FD9095FC0138
:100CA000EE0FFF1FE80FF91FEC5BFB4F808186FF03
:100CB00011C080916804992787FD9095FC01EE0F83
:100CC000FF1FE80FF91FEC5BFB4F80818F7360E023
:100CD0000E948D04809168048F5F80936804209146
:100CE0006804332727FD30958091430490E028174E
:100CF00039070CF04EC0809168048C300CF049C06C
:100D0000209184003091850080916804992787FDA7
:100D10009095FC01EE0FFF1FE80FF91FEC5BFB4FF6
:100D200081819281280F391F309389002093880098
:100D300080916804992787FD9095FC01EE0FFF1FB5
:100D4000E80FF91FEC5BFB4F808186FF2BC0809181
:100D50006804992787FD9095FC01EE0FFF1FE80FAF
:100D6000F91FEC5BFB4F80818F7361E00E948D0463
:100D700019C080E49CE905C08091840090918500B1
:100D8000049690938900809388008FEF8093680485
:100D900009C08091840090918500049680549C49FC
:100DA00040F3EACFFF91EF91BF91AF919F918F9167
:100DB0007F916F915F914F913F912F910F900FBE57
:100DC0000F901F9018950F931F9309E614E0C80128
:100DD0000E94E104C80103960E94E104C80106963E
:100DE0000E94E1041F910F91089593E0899FC00133
:100DF000112487599B4F70E00E943705089593E0B6
:100E0000899FC001112487599B4F70E00E941E06E4
:100E100008952F923F924F925F926F927F928F929E
:100E20009F92AF92BF92CF92DF92EF92FF920F9379
:100E30001F93DF93CF93CDB7DEB72A970FB6F89401
:100E4000DEBF0FBECDBF6D837E838F8398871A016F
:100E50003A87298737014801DA01AD90BD90CD90DE
:100E6000DC90A60195010E94B30D1816FCF06D816F
:100E70007E818F819885A60195010E943B0D7B01A3
:100E80008C01F1016481758186819781A6019501AC
:100E90000E943B0D9B01AC01C801B7010E94B70D38
:100EA0005B016C01442455243201B1C067019701F4
:100EB000220F331F220F331F220D331DD9018D91B5
:100EC0009D910D90BC91A02D89839A83AB83BC83A7
:100ED0006D817E818F81988529813A814B815C81EA
:100EE0000E94B30D88230CF062C016950795F79405
:100EF000E7946401530144245524320122C0F701D0
:100F0000EE0FFF1FEE0FFF1FE20DF31D6D817E81BF
:100F10008F81988520813181428153810E94B30D58
:100F200087FD03C02701380102C057016801830112
:100F30007201EA0CFB1C0C1D1D1D16950795F794FC
:100F4000E794D601C50184199509A609B709029746
:100F5000A105B105A0F68201F201EE0FFF1FEE0F11
:100F6000FF1FE20DF31DC080D180E280F3806D8110
:100F70007E818F819885A70196010E943B0D4B01D0
:100F80005C010F5F1F4F000F111F000F111F020D9B
:100F9000131DF8016081718182819381A7019601FF
:100FA0000E943B0D9B01AC01C501B4012CC027017F
:100FB0003801089441085108610871088FEF9FE3D8
:100FC000C80ED91ECC0CDD1CCC0CDD1CC20CD31CF5
:100FD000D601ED90FD900D911C916D817E818F81E8
:100FE0009885A80197010E943B0D5B016C01698106
:100FF0007A818B819C81A80197010E943B0D9B0106
:10100000AC01C601B5010E94B70D5B016C01D201B4
:101010009201220F331F220F331FE985FA852E0F0D
:101020003F1FF901E080F180028113811196AA0F20
:10103000BB1FAA0FBB1F89859A85A80FB91F6D9189
:101040007D918D919C91A80197010E943B0DA60175
:1010500095010E94A40FA80197010E943C0D2A96B9
:101060000FB6F894DEBF0FBECDBFCF91DF911F91B9
:101070000F91FF90EF90DF90CF90BF90AF909F9037
:101080008F907F906F905F904F903F902F9008953A
:10109000EF92FF920F931F9307E015E0E090070592
:1010A000F0900805F8013E976081718182819381FB
:1010B0006F5F7F4F8F4F9F4F6083718382839383D6
:1010C0000E944B0E2091FD043091FE044091FF04DC
:1010D000509100050E94A40FF70160837183828301
:1010E000938306501040F80180819181A281B381E1
:1010F0000196A11DB11D80839183A283B3831F91AB
:101100000F91FF90EF900895089584E090E00E9481
:10111000FE0CECE7F4E085E9DF011D928A95E9F722
:1011200085E095E0909381048093800487E095E0CA
:1011300097AF86AF8DEF94E090938F0480938E04E9
:10114000F093E504E093E404F0937F04E0937E04DD
:1011500081E090E0909306058093050580E091E0A2
:10116000909385048093840489E095E0909308052A
:10117000809307058AE097EDA3E2BCE38093FD042A
:101180009093FE04A093FF04B093000583E0E9E789
:10119000F4E0DF011D928A95E9F780916A0360917E
:1011A00006020E94FF0680916B0360910A020E9472
:1011B000FF0680916C0360910E020E94FF06089565
:1011C000EF92FF920F931F937B018C019F7720E09A
:1011D00030E040E859E50E94B30D87FD03C0B70138
:1011E000C80132C0C801B70120E030E040E05FE351
:1011F0000E94A00F88235CF0C801B70120E030E016
:1012000040E05FE30E943C0D0E94880E1DC0C801B3
:10121000B70120E030E040E05FEB0E94A00F18161D
:101220004CF4C801B70120E030E040E050E00E94FB
:10123000A40F0AC0C801B70120E030E040E05FE33E
:101240000E943B0D0E94A00D1F910F91FF90EF9007
:1012500008952F923F924F925F926F927F928F925A
:101260009F92AF92BF92CF92DF92EF92FF920F9335
:101270001F931B012C0139014A010E94F30C8823A2
:1012800091F4C201B1010E94C80C882361F4C40129
:10129000B3010E94F30C882331F4C401B3010E940E
:1012A000C80C882349F060911D0570911E0580913E
:1012B0001F059091200558C0C401B30120E030E023
:1012C00040E050E00E94B30D88232CF4C401B30128
:1012D0000E94A00D04C0C401B3010E94880E7B01CE
:1012E0008C01C401B30120E030E040E050E00E94F6
:1012F000B30D882399F1C401B301A80197010E949D
:10130000B30D882359F1C201B101A40193010E94D8
:10131000B70D7B018C010E94E0089B01AC01C80164
:10132000B7010E943B0D5B016C01E894D7F8E8948B
:1013300017F9C801B70120E030E040E054E30E9413
:10134000A40F9B01AC01C601B5010E94B30D181694
:101350002CF060E070E080E090E006C0C201B101D6
:10136000A40193010E94A20E1F910F91FF90EF9094
:10137000DF90CF90BF90AF909F908F907F906F90B5
:101380005F904F903F902F9008952F923F924F92F1
:101390005F926F927F928F929F92AF92BF92CF9205
:1013A000DF92EF92FF920F931F93DF93CF93CDB70E
:1013B000DEB728970FB6F894DEBF0FBECDBFE09121
:1013C0000705F091080520803180428053802091EC
:1013D0002202309123024091240250912502C20141
:1013E000B1010E94290946E252E022E131E019E010
:1013F000E12EF12C012D112D0E94090769837A83BA
:101400008B839C83E0910705F091080560817181D1
:101410008281938120914E0230914F02409150027F
:10142000509151020E94290942E552E02AE331E03D
:10143000BFE0EB2EF12C012D112D0E9409076D83C9
:101440007E838F839887E0910705F091080560817E
:10145000718182819381209196023091970240910F
:101460009802509199020E9429094AE952E02AE71C
:1014700031E0A0E1EA2EF12C012D112D0E94090787
:101480005B016C01E0910705F091080560817181B5
:10149000828193812091DE023091DF024091E0024F
:1014A0005091E1020E94290942EE52E02EEB31E018
:1014B000F1E1EF2EF12C012D112D0E9409073B01C6
:1014C0004C01C201B10120912E0330912F034091B4
:1014D0003003509131030E94A00F1816CCF4A09055
:1014E0001602B0901702C0901802D09019026090B6
:1014F0001A0270901B0280901C0290901D02209096
:101500001E0230901F0240902002509021022FC0F6
:10151000C201B101209112023091130240911402D4
:10152000509115020E94A00F1816CCF42090920240
:1015300030909302409094025090950229813A8114
:101540004B815C81C901DA015C016D012D813E8115
:101550004F815885C901DA013C014D0108C0209036
:101560002A0330902B0340902C0350902D031091B0
:10157000320300913303F0903403E0903503C60149
:10158000B501212F302F4F2D5E2D0E94A00F181670
:1015900094F01091360300913703F0903803E090F7
:1015A0003903C601B501212F302F4F2D5E2D0E942A
:1015B000B30D882334F4812F902FAF2DBE2D5C0105
:1015C0006D01C601B501905820913A0330913B035B
:1015D00040913C0350913D030E94A40F20913E0393
:1015E00030913F0340914003509141030E943C0DD4
:1015F0007B018C0120E030E040E853E40E94B30D11
:101600008823A4F4C801B70120E030E040E050E0B6
:101610000E94A00F88233CF0C801B7010E941F0E52
:101620006093790406C01092790403C08FEF809311
:10163000790480916A03609179040E94F506109103
:10164000420300914303F0904403E0904503C4013A
:10165000B301212F302F4F2D5E2D0E94A00F1816A1
:1016600094F01091460300914703F0904803E090F6
:101670004903C401B301212F302F4F2D5E2D0E944D
:10168000B30D882334F4812F902FAF2DBE2D3C0154
:101690004D01C401B30120914A0330914B034091A5
:1016A0004C0350914D030E94A40F20914E033091A2
:1016B0004F0340915003509151030E94A40F209179
:1016C00052033091530340915403509155030E94AB
:1016D0003C0D7B018C0120E030E040E853E40E94A7
:1016E000B30D8823A4F4C801B70120E030E040E046
:1016F00050E00E94A00F88233CF0C801B7010E946F
:101700001F0E60937A0406C010927A0403C08FEF14
:1017100080937A0480916B0360917A040E94F506AD
:101720001091560300915703F0905803E09059032D
:10173000C201B101212F302F4F2D5E2D0E94A00F2D
:10174000181694F010915A0300915B03F0905C031B
:10175000E0905D03C201B101212F302F4F2D5E2D8E
:101760000E94B30D882334F4812F902FAF2DBE2D0E
:101770001C012D01C201B10120915E0330915F0374
:1017800040916003509161030E94A40F2091620375
:101790003091630340916403509165030E94A40F4C
:1017A000209166033091670340916803509169036B
:1017B0000E943C0D7B018C0120E030E040E853E4C6
:1017C0000E94B30D8823A4F4C801B70120E030E0E3
:1017D00040E050E00E94A00F88233CF0C801B70110
:1017E0000E941F0E60937B0406C010927B0403C00E
:1017F0008FEF80937B0480916C0360917B040E9447
:10180000F50628960FB6F894DEBF0FBECDBFCF9178
:10181000DF911F910F91FF90EF90DF90CF90BF90DD
:10182000AF909F908F907F906F905F904F903F9080
:101830002F9008950E9413040E94850883E88093E6
:10184000B200809170008E7F809370008091B00014
:101850008C7F8093B0008091B100877F8093B1002E
:101860008091B10086608093B1008091B1008E7F3D
:101870008093B10080917000816080937000E0914E
:101880008303F091840380819181892BE1F30E948D
:101890008408F89480E090E00895209175042F5F0B
:1018A00020937504215049F081E090E090937404F6
:1018B0008093730420937504089578940E94C50959
:1018C0000E944808F89480917504815080937504B3
:1018D00090917804992359F080917604882339F403
:1018E0007894F89491509093780410927604089527
:1018F0001F920F920FB60F9211242F933F934F9385
:101900005F936F937F938F939F93AF93BF93EF9367
:10191000FF9383E88093B200809172048F5F80937D
:10192000720480917204853021F4109272040E9436
:101930004D0CFF91EF91BF91AF919F918F917F914E
:101940006F915F914F913F912F910F900FBE0F902C
:101950001F90189560E070E080E89FE7089560E0D0
:1019600070E080E89FE7089560E070E080E89FEF16
:10197000089560E070E080E89FEF089560E070E017
:1019800080EC9FEF089560E070E080EC9FEF089599
:10199000DF92EF92FF920F931F937B018C012091B6
:1019A000190530911A0540911B0550911C050E94A4
:1019B000B30D882379F0DD24C801B70120912105FA
:1019C0003091220540912305509124050E94B30DCA
:1019D000882311F4DD24D3948D2D1F910F91FF9056
:1019E000EF90DF9008951F939B01AC0110E00E94DF
:1019F000B30D811111E0812F1F9108950E94BE0C3B
:101A000060931D0570931E0580931F05909320051C
:101A10000E94C30C60931105709312058093130507
:101A2000909314050E94AA0C6093190570931A05EF
:101A300080931B0590931C050E94AF0C60931505C5
:101A40007093160580931705909318050E94B40CA7
:101A500060932105709322058093230590932405BC
:101A60000E94B90C60932505709326058093270585
:101A70009093280508955058BB27AA270ED00FC26F
:101A800000D230F005D220F031F49F3F11F41EF463
:101A9000F5C10EF4E095E7FBC0C1E92F11D280F348
:101AA000BA17620773078407950718F071F49EF55B
:101AB00040C20EF4E0950B2EBA2FA02D0B01B901F8
:101AC00090010C01CA01A0011124FF27591B99F0B4
:101AD000593F50F4503E68F11A16F040A22F232FC0
:101AE000342F4427585FF3CF469537952795A79510
:101AF000F0405395C9F77EF41F16BA0B620B730BB7
:101B0000840BBAF09150A1F0FF0FBB1F661F771F27
:101B1000881FC2F70EC0BA0F621F731F841F48F4DC
:101B2000879577956795B795F7959E3F08F0B3CF62
:101B30009395880F08F09927EE0F9795879508954C
:101B4000E1D180F09F3740F491110EF4F3C160E0D1
:101B500070E080E89FE3089526F01B16611D711D5B
:101B6000811D61C17BC135D108F481E008950CD09D
:101B700096C18ED140F085D130F021F45F3F19F04D
:101B80004CC15111D7C17AC19BD198F39923C9F3A4
:101B90005523B1F3951B550BBB27AA276217730773
:101BA000840738F09F5F5F4F220F331F441FAA1F27
:101BB000A9F333D00E2E3AF0E0E830D091505040E7
:101BC000E695001CCAF729D0FE2F27D0660F771F95
:101BD000881FBB1F261737074807AB07B0E809F077
:101BE000BB0B802DBF01FF2793585F4F2AF09E3F0C
:101BF000510568F012C19EC15F3FECF3983EDCF3E3
:101C0000869577956795B795F7959F5FC9F7880F84
:101C1000911D9695879597F90895E1E0660F771FD6
:101C2000881FBB1F621773078407BA0720F0621B67
:101C3000730B840BBA0BEE1F88F7E095089548D11B
:101C400088F09F5790F0B92F9927B751A0F0D1F0A5
:101C5000660F771F881F991F1AF0BA95C9F712C02F
:101C6000B13081F066D1B1E0089563C1672F782F5C
:101C70008827B85F39F0B93FCCF38695779567959B
:101C8000B395D9F73EF490958095709561957F4F07
:101C90008F4F9F4F0895E89409C097FB3EF49095AD
:101CA0008095709561957F4F8F4F9F4F9923A9F035
:101CB000F92F96E9BB279395F695879577956795C4
:101CC000B795F111F8CFFAF4BB0F11F460FF1BC008
:101CD0006F5F7F4F8F4F9F4F16C0882311F096E99B
:101CE00011C0772321F09EE8872F762F05C0662349
:101CF00071F096E8862F70E060E02AF09A95660F02
:101D0000771F881FDAF7880F9695879597F90895BA
:101D1000F9D080F09F3740F491110EF00BC160E0D4
:101D200070E080E89FEB089526F41B16611D711D7D
:101D3000811D79C093C0A5D018F011F0A9D038F456
:101D40009DC0F8C0E92FBCD0B0F35523C9F3E7FB21
:101D50006217730784079507A8F199F3E92FFF2706
:101D600088232AF03197660F771F881FDAF7952F9F
:101D70005527442332F091505040220F331F441F07
:101D8000D2F7BB27E91BF50B621B730B840BB10960
:101D9000C1F222F4620F731F841FB11D31972AF024
:101DA000660F771F881FBB1FEFCF915050405AF02E
:101DB00041F0882332F0660F771F881F9150504002
:101DC000C1F793954BC08695779567959F5FD9F737
:101DD000F8CF990F0008550FAA0BE0E8FEEF161692
:101DE0001706E807F907C0F012161306E407F5070F
:101DF00098F0621B730B840B950B39F40A2661F083
:101E0000232B242B252B21F408950A2609F4A14025
:101E1000A6958FEF811D811D089597F99F6780E832
:101E200070E060E00895882371F4772321F09850E2
:101E3000872B762F07C0662311F499270DC0905188
:101E4000862B70E060E02AF09A95660F771F881F56
:101E5000DAF7880F9695879597F908959F3F49F08F
:101E6000915028F4869577956795B7959F5F803850
:101E70009F4F880F9695879597F908959FEF80EC6F
:101E8000089500240A9416161706180609060895E0
:101E900000240A9412161306140605060895092E46
:101EA0000394000C11F4882352F0BB0F40F4BF2BB5
:101EB00011F460FF04C06F5F7F4F8F4F9F4F0895F5
:101EC00057FD9058440F551F59F05F3F71F04795EB
:101ED000880F97FB991F61F09F3F79F087950895D0
:101EE000121613061406551FF2CF4695F1DF08C0EF
:101EF000161617061806991FF1CF8695710561050C
:101F000008940895E5DFA0F0BEE7B91788F4BB2771
:101F10009F3860F41616B11D672F782F8827985FB9
:101F2000F7CF869577956795B11D93959639C8F348
:101F30000895E894BB2766277727CB0197F9089582
:101F400048DF08F48FEF08950BD0A9CF9ADF28F06F
:101F50009FDF18F0952309F060CF90CF1124EACFCE
:101F6000AFDFA0F3959FD1F3950F50E0551F629F0F
:101F7000F001729FBB27F00DB11D639FAA27F00DE2
:101F8000B11DAA1F649F6627B00DA11D661F829F09
:101F90002227B00DA11D621F739FB00DA11D621FEE
:101FA000839FA00D611D221F749F3327A00D611D0B
:101FB000231F849F600D211D822F762F6A2F1124ED
:101FC0009F5750408AF0E1F088234AF0EE0FFF1F40
:101FD000BB1F661F771F881F91505040A9F79E3F77
:101FE000510570F01ACFA6CF5F3FECF3983EDCF3BB
:101FF000869577956795B795F795E7959F5FC1F7B4
:10200000FE2B880F911D9695879597F90895629FED
:10201000D001739FF001829FE00DF11D649FE00DE0
:10202000F11D929FF00D839FF00D749FF00D659F41
:10203000F00D9927729FB00DE11DF91F639FB00D40
:10204000E11DF91FBD01CF0111240895991B79E00D
:1020500004C0991F961708F0961B881F7A95C9F738
:102060008095089597FB092E07260AD077FD04D0A6
:1020700049D006D000201AF4709561957F4F0895DD
:10208000F6F7909581959F4F0895A1E21A2EAA1B0D
:10209000BB1BFD010DC0AA1FBB1FEE1FFF1FA21718
:1020A000B307E407F50720F0A21BB30BE40BF50B15
:1020B000661F771F881F991F1A9469F7609570959E
:1020C000809590959B01AC01BD01CF01089597FBD0
:1020D000092E05260ED057FD04D0D7DF0AD0001CEC
:1020E00038F450954095309521953F4F4F4F5F4FB5
:1020F0000895F6F790958095709561957F4F8F4F75
:102100009F4F0895AA1BBB1B51E107C0AA1FBB1F0D
:10211000A617B70710F0A61BB70B881F991F5A9573
:10212000A9F780959095BC01CD010895EE0FFF1F92
:0C2130000590F491E02D0994F894FFCF85
:10213C004669786564537465704469736372657439
:10214C0065000000B4420000B4420000B4C20000BC
:10215C00B4C200000000000000000000B442000007
:10216C00B4420000000000000000000034C3000076
:10217C0034C300000000000000000000B4C20000E6
:10218C00B4C20000B4420000B442000000000000E1
:10219C0000000000B4C20000B4C20000B442000051
:1021AC00B44200000000000000000000B4C20000B7
:1021BC00B4C2000034C2000034C2000000000000B1
:1021CC00000000003442000034420000B442000021
:1021DC00B442000034420000344200000000000011
:1021EC000000000034C2000034C20000B4C2000081
:1021FC003443000034430000074300000743000051
:10220C00B4420000B44200003442000034420000EA
:10221C00000000000000000034C2000034C20000C6
:10222C00B4C20000B4C2000007C3000007C3000022
:10223C0034C3000034C3090000000A0000000B0086
:10224C0000000000904200000000000000000000B0
:10225C0000000000C842000000000000984200008E
:10226C009A4200009C4200009E420000B4420000D2
:10227C00B6420000C0420000C2420000C84200004A
:10228C00C84200000000000092420000964200008C
:10229C00A0420000A4420000A8420000AA42000094
:1022AC00AE420000B2420000B4420000B642000050
:1022BC00BA420000BC420000C0420000C242000012
:1022CC00C842000000000000804100000000000037
:1022DC00803F0000004000004040000080400000B3
:1022EC00A0400000C0400000E040000000410000A1
:1022FC00104100002041000030410000404100002E
:10230C00504100006041000070410000804100001D
:10231C009042000000000000E0400000004100007E
:10232C007041000080410000B8410000C041000035
:10233C00F8410000004200001C4200002042000056
:10234C003C420000404200005C4200006042000041
:10235C007C4200008042000090420000000000001F
:10236C00C8420000B4420000B4C25555153F0000ED
:10237C00B44200003443000034C35555153F233E8E
:10238C00013F0000B24200003443000034C3398ED8
:10239C00E33E4CAE203F0000B442000102000000BE
:1023AC00006E0155020401350115015E01000000AB
:0623BC000013027C040086
:00000001FF
