:100000000C9405010C94FD060C942E070C945F07CC
:100010000C9490070C94C1070C94F2070C942308DD
:100020000C9454080C9432010C9432010C9432015B
:100030000C9432010C9432010C9432010C94320174
:100040000C9432010C941F0D0C9432010C9432016B
:100050000C9432010C9432010C9432010C94CE08B1
:100060000C9432010C9401020C94FD020C943201A8
:100070000C9432010C9432010C9432010C94320134
:100080000C94F10C0C9432010C9432010C9432015A
:100090000C9440020C943C030C9432010C943201F9
:1000A0000C9432010C9432010C94C30C0C94320168
:1000B0000C9432010C9432010C9432010C94950C86
:1000C0000C9432010C9432010C9495010C947F0233
:1000D0000C947B030C9432010C94BE020C94BA0372
:1000E0000C94320100002100240027002A002D007A
:1000F0003000330001010000040107010A01000083
:100100002200250028002B002E00310034000201BF
:100110000000050108010B0100002000230026005B
:1001200029002C002F00320000010000030106010D
:10013000090105050505070508080808020202026D
:100140000A0A080804040404010101010101010173
:100150000303030303030303040707070C0C0C0C3E
:100160000C0C0C0C02020202060606060606060627
:100170000B0B0B0B0B0B0B0B0102102020080810B4
:100180002040102040800201020108040201010207
:1001900004081020408080402010080402018004E0
:1001A000020180402010080402010804020101023B
:1001B0000408102040800102040810204080000044
:1001C000090A02080B0C0D070603040100000000D9
:1001D000000000000000000000000000000000001F
:1001E0000000000000000000000011100F000000DF
:1001F00000000000000000000000000000000000FF
:1002000000000000A304D9054D0D11241FBECFEF3F
:10021000D1E2DEBFCDBF00E00CBF12E0A0E0B2E053
:10022000ECEFFCE100E00BBF02C007900D92A232A0
:10023000B107D9F71BBE15E0A2E2B2E001C01D92E2
:10024000A738B107E1F712E0CAE0D2E004C0229774
:10025000FE010E94780EC430D107C9F70E94340114
:100260000C947C0E0C9400000E9416090E94C5019B
:100270008BEC93EF90932501809324018091730080
:100280008E7F80937300809120018C7F809320016A
:1002900080912101877E80932101809121018560D9
:1002A00080932101809121018D7F80932101809194
:1002B0007300816080937300E0910902F0910A025B
:1002C00080819181892BE1F30E94C401F89480E040
:1002D00090E00895209124022F5F20932402215062
:1002E00049F081E090E090932302809322022093D2
:1002F0002402089578940E94D0010E94C301F894CA
:1003000020912402215020932402909125029923C8
:1003100059F080912502882339F47894F89491500B
:10032000909325022093240208951F920F920FB6F6
:100330000F920BB60F9211242F933F934F935F931D
:100340006F937F938F939F93AF93BF93EF93FF939D
:100350008BEC93EF90932501809324010E946A0116
:10036000FF91EF91BF91AF919F918F917F916F918D
:100370005F914F913F912F910F900BBE0F900FBE49
:100380000F901F9018950895089510928605109269
:10039000850580910802609100020E945C0D08951D
:1003A000EF92FF920F931F93E0900402F0900502EA
:1003B0000091060210910702C801B70120E030E069
:1003C00040E853E40E94660D87FD02C06FEF10C045
:1003D000C801B70120E030E040E050E00E94E30DAA
:1003E00087FF02C060E004C0C801B7010E946A0D27
:1003F000809108020E94520D1F910F91FF90EF9083
:1004000008951F920F920FB60F920BB60F92112400
:100410002F933F934F938F939F93EF93FF938091ED
:10042000C00082FD1DC04091C6002091660230913F
:1004300067022F5F3F4F2F73307080916802909159
:1004400069022817390771F0E0916602F09167029E
:10045000EA5DFD4F4083309367022093660202C03D
:100460008091C600FF91EF919F918F914F913F91A5
:100470002F910F900BBE0F900FBE0F901F901895ED
:100480001F920F920FB60F920BB60F9211242F935B
:100490003F934F938F939F93EF93FF938091C80067
:1004A00082FD1DC04091CE002091EE023091EF02FE
:1004B0002F5F3F4F2F7330708091F0029091F102C7
:1004C0002817390771F0E091EE02F091EF02E25542
:1004D000FD4F40833093EF022093EE0202C08091E3
:1004E000CE00FF91EF919F918F914F913F912F916E
:1004F0000F900BBE0F900FBE0F901F9018951F927C
:100500000F920FB60F920BB60F9211242F933F93B9
:100510004F938F939F93EF93FF938091D00082FD31
:100520001DC04091D60020917603309177032F5F54
:100530003F4F2F7330708091780390917903281783
:10054000390771F0E0917603F0917703EA5CFC4F94
:100550004083309377032093760302C08091D600C6
:10056000FF91EF919F918F914F913F912F910F901C
:100570000BBE0F900FBE0F901F9018951F920F92F9
:100580000FB60F920BB60F9211242F933F934F93F8
:100590008F939F93EF93FF938091300182FD1DC055
:1005A000409136012091FE033091FF032F5F3F4FB2
:1005B0002F7330708091000490910104281739073F
:1005C00071F0E091FE03F091FF03E254FC4F408391
:1005D0003093FF032093FE0302C080913601FF9108
:1005E000EF919F918F914F913F912F910F900BBE63
:1005F0000F900FBE0F901F9018951F920F920FB67D
:100600000F920BB60F9211242F933F938F939F93CA
:10061000EF93FF932091AA023091AB028091AC023C
:100620009091AD022817390731F48091C1008F7D78
:100630008093C10014C0E091AC02F091AD02E65984
:10064000FD4F20818091AC029091AD0201968F7395
:1006500090709093AD028093AC022093C600FF91FE
:10066000EF919F918F913F912F910F900BBE0F9023
:100670000FBE0F901F9018951F920F920FB60F92FA
:100680000BB60F9211242F933F938F939F93EF9369
:10069000FF93209132033091330380913403909182
:1006A00035032817390731F48091C9008F7D809375
:1006B000C90014C0E0913403F0913503EE50FD4FB2
:1006C0002081809134039091350301968F7390704F
:1006D00090933503809334032093CE00FF91EF91E4
:1006E0009F918F913F912F910F900BBE0F900FBE56
:1006F0000F901F9018951F920F920FB60F920BB686
:100700000F9211242F933F938F939F93EF93FF9317
:100710002091BA033091BB038091BC039091BD033B
:100720002817390731F48091D1008F7D8093D10053
:1007300014C0E091BC03F091BD03E658FC4F20814A
:100740008091BC039091BD0301968F73907090933C
:10075000BD038093BC032093D600FF91EF919F913E
:100760008F913F912F910F900BBE0F900FBE0F9066
:100770001F9018951F920F920FB60F920BB60F9203
:1007800011242F933F938F939F93EF93FF93209187
:100790004204309143048091440490914504281709
:1007A000390731F4809131018F7D8093310114C07C
:1007B000E0914404F0914504EE5FFB4F208180916D
:1007C00044049091450401968F7390709093450472
:1007D0008093440420933601FF91EF919F918F9174
:1007E0003F912F910F900BBE0F900FBE0F901F9057
:1007F0001895DC011C96ED91FC911D97E05CFF4F74
:100800002191319180819181281B390B2F73307098
:10081000C9010895DC011C96ED91FC911D97E05CE7
:10082000FF4F20813181E054F040DF01AE5BBF4FCC
:100830008D919C9111972817390719F42FEF3FEFED
:1008400007C08D919C91E80FF91F8081282F30E01F
:10085000C9010895DC011C96ED91FC911D97E05CA7
:10086000FF4F20813181E054F040DF01AE5BBF4F8C
:100870008D919C9111972817390719F42FEF3FEFAD
:1008800010C08D919C911197E80FF91F20818D91D7
:100890009C91119701968F73907011969C938E93F3
:1008A00030E0C9010895DC0191968C9191978823DD
:1008B00039F05496ED91FC915597808186FFF9CFE0
:1008C00091961C920895CF93DF93EC01EE85FF85FE
:1008D000E05CFF4F20813181E054F0402F5F3F4FBB
:1008E0002F733070DF01AE5BBF4F8D919C911197DC
:1008F00028173907D1F3E05CFF4F80819181E054E4
:10090000F040E80FF91F6083EE85FF85E05CFF4F44
:1009100031832083EE89FF89208181E090E00F8C74
:1009200002C0880F991F0A94E2F7282B208381E0E8
:1009300089A3EC89FD8980818064808381E090E0D7
:10094000DF91CF9108951F931092490410924804AB
:1009500028EE33E040E050E020934A0430934B040B
:1009600040934C0450934D046FE072E07093470441
:100970006093460486E292E090935304809352047D
:100980008AE692E0909355048093540485EC90E0BD
:10099000909357048093560484EC90E0909359040C
:1009A0008093580480EC90E090935B0480935A0409
:1009B00081EC90E090935D0480935C0482EC90E085
:1009C00090935F0480935E0486EC90E090936104C2
:1009D0008093600414E010936204B3E0B093630466
:1009E000A7E0A0936404F5E0F0936504E1E0E093F0
:1009F000660410926B0410926A0420936C04309386
:100A00006D0440936E0450936F0470936904609377
:100A100068048EEA92E0909375048093740482EFE8
:100A200092E090937704809376048DEC90E090931D
:100A30007904809378048CEC90E090937B0480930D
:100A40007A0488EC90E090937D0480937C0489EC98
:100A500090E090937F0480937E048AEC90E09093E2
:100A60008104809380048EEC90E0909383048093C3
:100A7000820410938404B0938504A0938604F093B9
:100A80008704E093880410928D0410928C042093C4
:100A90008E0430938F04409390045093910470938C
:100AA0008B0460938A0486E393E090939704809389
:100AB00096048AE793E0909399048093980485EDD7
:100AC00090E090939B0480939A0484ED90E090933F
:100AD0009D0480939C0480ED90E090939F0480930C
:100AE0009E0481ED90E09093A1048093A00482ED98
:100AF00090E09093A3048093A20486ED90E09093FD
:100B0000A5048093A4041093A604B093A704A09313
:100B1000A804F093A904E093AA041092AF041092E1
:100B2000AE042093B0043093B1044093B2045093C8
:100B3000B3047093AD046093AC048EEB93E0909398
:100B4000B9048093B80482E094E09093BB0480934E
:100B5000BA0485E391E09093BD048093BC0484E3E0
:100B600091E09093BF048093BE0480E391E0909362
:100B7000C1048093C00481E391E09093C304809307
:100B8000C20482E391E09093C5048093C40486E399
:100B900091E09093C7048093C6041093C804B09367
:100BA000C904A093CA04F093CB04E093CC041F9132
:100BB00008958FE192E09093CF048093CE04109239
:100BC000D0041092D1041092D2041092D30408954C
:100BD0008F929F92AF92BF92CF92DF92EF92FF924D
:100BE0000F931F93CF93DF934C016B017C01AA24D9
:100BF000BB24C0E0D0E0C601F70162814AE050E0CA
:100C00000E94EB068C01C6016EE20E945406080F9A
:100C1000191FA00EB11E21960894E11CF11CC330CF
:100C2000D10549F7C601F40165814AE050E00E9410
:100C3000EB069501280F391FC901DF91CF911F9154
:100C40000F91FF90EF90DF90CF90BF90AF909F906B
:100C50008F900895CF92DF92EF92FF920F931F93A0
:100C6000CF93DF937C016B018A01C0E0D0E00FC01D
:100C7000D6016D916D01D701ED91FC910190F0814C
:100C8000E02DC7011995C80FD91F0150104001155B
:100C9000110571F7CE01DF91CF911F910F91FF9058
:100CA000EF90DF90CF900895DC01ED91FC910190E1
:100CB000F081E02D19950895CF93DF93EC01611534
:100CC000710519F420E030E00FC0DB010D90002029
:100CD000E9F71197A61BB70BE881F9810280F38130
:100CE000E02DAD0119959C01C901DF91CF910895C7
:100CF0004F925F927F928F929F92AF92BF92CF92CC
:100D0000DF92EF92FF920F931F93DF93CF93CDB7B4
:100D1000DEB7A1970FB6F894DEBF0FBECDBF2C0192
:100D2000742ECB01223008F42AE019A231E2C32E3E
:100D3000D12CCC0EDD1E822E9924AA24BB24672D33
:100D4000752FA50194010E94250E79018A01C80121
:100D5000B701A50194010E94E70D472D461B089499
:100D6000C108D1084A3014F4405D01C0495CF60165
:100D70004083E114F1040105110521F07E2C5F2D63
:100D8000C801DDCFC201B6010E945C06A1960FB674
:100D9000F894DEBF0FBECDBFCF91DF911F910F91B1
:100DA000FF90EF90DF90CF90BF90AF909F908F908B
:100DB0007F905F904F900895DC012115310541F43B
:100DC000ED91FC910190F081E02D642F199508952B
:100DD0000E9478060895EF92FF920F931F939A0155
:100DE000E62EFF2400E010E0B801A7010E94DC0617
:100DF0001F910F91FF90EF9008951F920F920FB6E1
:100E00000F920BB60F9211242F933F934F935F9342
:100E10006F937F938F939F93AF93BF93EF93FF93C2
:100E20008091D8049091D904892B29F0E091D804BD
:100E3000F091D9041995FF91EF91BF91AF919F91D6
:100E40008F917F916F915F914F913F912F910F9073
:100E50000BBE0F900FBE0F901F9018951F920F9210
:100E60000FB60F920BB60F9211242F933F934F930F
:100E70005F936F937F938F939F93AF93BF93EF9302
:100E8000FF938091DA049091DB04892B29F0E091A3
:100E9000DA04F091DB041995FF91EF91BF91AF91C6
:100EA0009F918F917F916F915F914F913F912F9182
:100EB0000F900BBE0F900FBE0F901F9018951F92B2
:100EC0000F920FB60F920BB60F9211242F933F93F0
:100ED0004F935F936F937F938F939F93AF93BF9342
:100EE000EF93FF938091DC049091DD04892B29F02E
:100EF000E091DC04F091DD041995FF91EF91BF9131
:100F0000AF919F918F917F916F915F914F913F91A1
:100F10002F910F900BBE0F900FBE0F901F90189542
:100F20001F920F920FB60F920BB60F9211242F93B0
:100F30003F934F935F936F937F938F939F93AF9361
:100F4000BF93EF93FF938091DE049091DF04892B90
:100F500029F0E091DE04F091DF041995FF91EF9103
:100F6000BF91AF919F918F917F916F915F914F91C1
:100F70003F912F910F900BBE0F900FBE0F901F90BF
:100F800018951F920F920FB60F920BB60F92112465
:100F90002F933F934F935F936F937F938F939F9381
:100FA000AF93BF93EF93FF938091D4049091D504B6
:100FB000892B29F0E091D404F091D5041995FF9183
:100FC000EF91BF91AF919F918F917F916F915F91C1
:100FD0004F913F912F910F900BBE0F900FBE0F902E
:100FE0001F9018951F920F920FB60F920BB60F928B
:100FF00011242F933F934F935F936F937F938F931E
:101000009F93AF93BF93EF93FF938091D6049091FA
:10101000D704892B29F0E091D604F091D7041995D3
:10102000FF91EF91BF91AF919F918F917F916F91C0
:101030005F914F913F912F910F900BBE0F900FBE7C
:101040000F901F9018951F920F920FB60F920BB62C
:101050000F9211242F933F934F935F936F937F933E
:101060008F939F93AF93BF93EF93FF938091E0048F
:101070009091E104892B29F0E091E004F091E104E2
:101080001995FF91EF91BF91AF919F918F917F91B2
:101090006F915F914F913F912F910F900BBE0F90E9
:1010A0000FBE0F901F9018951F920F920FB60F92C0
:1010B0000BB60F9211242F933F934F935F936F932F
:1010C0007F938F939F93AF93BF93EF93FF93809101
:1010D000E2049091E304892B29F0E091E204F0917D
:1010E000E3041995FF91EF91BF91AF919F918F917B
:1010F0007F916F915F914F913F912F910F900BBE18
:101100000F900FBE0F901F9018952F923F924F9205
:101110005F926F927F928F929F92AF92BF92CF9287
:10112000DF92EF92FF920F931F93DF93CF93CDB790
:10113000DEB73B014C0119012A016E897F89888D38
:10114000998D6A197B098C099D09621A730A840AB0
:10115000950AA40193010E94E70DE218F30804091F
:101160001509A80197010E94470E2A0D3B1D4C1D31
:101170005D1DB901CA01CF91DF911F910F91FF90C1
:10118000EF90DF90CF90BF90AF909F908F907F9027
:101190006F905F904F903F902F9008951F920F9205
:1011A0000FB60F9211242F933F938F939F93AF937A
:1011B000BF938091E8049091E904A091EA04B09172
:1011C000EB043091EC040196A11DB11D232F2D5F7E
:1011D0002D3720F02D570196A11DB11D2093EC0451
:1011E0008093E8049093E904A093EA04B093EB049D
:1011F0008091E4049091E504A091E604B091E704A5
:101200000196A11DB11D8093E4049093E504A09381
:10121000E604B093E704BF91AF919F918F913F9106
:101220002F910F900FBE0F901F901895789484B552
:10123000826084BD84B5816084BD85B5826085BDD2
:1012400085B5816085BDEEE6F0E0808181608083B8
:10125000E1E8F0E01082808182608083808181609B
:101260008083E0E8F0E0808181608083E1EBF0E062
:10127000808184608083E0EBF0E080818160808306
:10128000E1E9F0E0808182608083808181608083F9
:10129000E0E9F0E0808181608083E1EAF0E0808134
:1012A00082608083808181608083E0EAF0E08081D9
:1012B00081608083E1E2F1E08081826080838081CF
:1012C00081608083E0E2F1E0808181608083EAE7F1
:1012D000F0E080818460808380818260808380816F
:1012E000816080838081806880831092C10008952E
:1012F000CF93DF93482F50E0CA0188589E4FFC01DE
:1013000034914E5C5E4FFA018491882369F190E03C
:10131000880F991FFC01EC51FF4FA591B491FC017E
:10132000E250FF4FC591D491662351F42FB7F89442
:101330008C91932F909589238C93888189230BC05E
:10134000623061F42FB7F8948C91932F9095892394
:101350008C938881832B88832FBF06C09FB7F89416
:101360008C91832B8C939FBFDF91CF91089589300F
:1013700009F449C08A30A0F4843051F1853040F43A
:10138000823079F1833000F5813009F063C026C0E6
:10139000873079F1883098F5863009F05BC025C038
:1013A0008D3009F442C08E3028F48B30B1F18C308E
:1013B000C0F52DC0803109F442C0813109F445C027
:1013C0008F3009F047C037C0809180008F7703C00D
:1013D000809180008F7D80938000089584B58F7701
:1013E00002C084B58F7D84BD08958091B0008F7751
:1013F00003C08091B0008F7D8093B00008958091EC
:1014000090008F7707C0809190008F7D03C08091FE
:101410009000877F8093900008958091A0008F773F
:1014200007C08091A0008F7D03C08091A000877FBE
:101430008093A0000895809120018F7703C0809150
:1014400020018F7D80932001089580912001877F66
:10145000809320010895FF920F931F93F62E482F3B
:1014600050E0CA0182549E4FFC012491CA01885861
:101470009E4FFC0114914E5C5E4FFA0104910023D3
:10148000C9F0222319F0822F0E94B709E02FF0E063
:10149000EE0FFF1FE250FF4FA591B4919FB7F89454
:1014A000FF2021F48C911095812302C08C91812B17
:1014B0008C939FBF1F910F91FF900895FC01809125
:1014C000ED04803390F480838F5F8093ED0481502E
:1014D00090E0FC01EE0FFF1FE80FF91FE251FB4FF8
:1014E00088EB9BE09283818308958FEF808308953A
:1014F000FC0120812033B8F58181992787FD9095E3
:1015000048E850E0481B590B440F551F440F551F26
:101510006417750784F08281992787FD909548E5C7
:1015200052E0481B590B440F551F440F551F6417B9
:1015300075070CF4AB0142505040CA01AA2797FD31
:10154000A095BA2F880F991FAA1FBB1F4FB7F894F9
:1015500030E0F901EE0FFF1FE20FF31FE251FB4FE6
:10156000928381834FBF0895AF92BF92CF92DF9253
:10157000EF92FF920F931F93CF93DF93EC019B01A8
:1015800082E0603278070CF048C077FF03C020E0AB
:1015900030E005C0653B710514F024EB30E000D06D
:1015A0000F92B901882777FD8095982F29813327DD
:1015B00027FD3095E8E8AE2EB12CA21AB30AAA0C8A
:1015C000BB1CAA0CBB1CCC24B7FCC094DC2CEA814D
:1015D000FF27E7FDF09528E532E02E1B3F0B220F99
:1015E000331F220F331F442737FD4095542FEDB78B
:1015F000FEB7218332834383548320E030E040E010
:1016000050E004EBE02EF12C012D112D0E948508F5
:101610009B010F900F900F900F90CE01B9010E9487
:10162000780ADF91CF911F910F91FF90EF90DF909B
:10163000CF90BF90AF900895CF92DF92EF92FF923C
:101640001F93CF93DF93EC01162F7A0169018881F4
:10165000803308F093C0862F61E00E94780988816A
:1016600090E0FC01EE0FFF1FE80FF91FE251FB4F66
:101670001F738081807C812B808380E292E08E19B1
:101680009F0964E070E00E94120E698380E699E091
:101690008C199D0964E070E00E94120E6A83A88193
:1016A0008A2F6CE00E94060E682F70E0AB01440F99
:1016B000551F460F571F440F551F440F551F20E05D
:1016C00030E0C901840F951FFC01EE0FFF1FE80FEA
:1016D000F91FE251FB4F808186FD44C02F5F3F4FD1
:1016E0002C30310571F753C01092800082E0809356
:1016F00081001092850010928400B19A80916F0051
:10170000826080936F002EC06230710569F4109280
:10171000900082E0809391001092950010929400C6
:1017200088BB809371001EC06330710569F410920C
:10173000A00082E08093A1001092A5001092A40066
:1017400089BB809372000EC0672B61F41092200158
:1017500082E08093210110922501109224018ABB1E
:10176000809373008A2F90E0FC01EE0FFF1FE80FBB
:10177000F91FE251FB4F8081806480838881DF9173
:10178000CF911F91FF90EF90DF90CF90089561303F
:10179000710509F0B9CFA8CF40E252E020E639E068
:1017A0000E941C0B0895EF92FF920F931F93CF930B
:1017B000DF938B017A01EC01DC01A258BA4F8C91C6
:1017C00087FF04C0FB011182108237C0AE01440FB5
:1017D000551F4C0F5D1F440F551F440F551F2C9173
:1017E000332727FD3095240F351F8091ED0490E0BD
:1017F0002817390714F58C91992787FD9095840F48
:10180000951FFC01EE0FFF1FE80FF91FE251FB4F80
:10181000808186FF12C08C91992787FD9095840F57
:10182000951FFC01EE0FFF1FE80FF91FE251FB4F60
:1018300080818F7360E00E942B0ADE01A258BA4FAC
:101840008C918F5F8C93AE01440F551F4C0F5D1F21
:10185000440F551F440F551F2C91332727FD3095FA
:10186000240F351F8091ED0490E0281739070CF004
:101870004DC08C918C300CF049C0F8012081318131
:101880008C91992787FD9095840F951FFC01EE0F91
:10189000FF1FE80FF91FE251FB4F81819281280F52
:1018A000391FF701318320838C91992787FD90950B
:1018B000840F951FFC01EE0FFF1FE80FF91FE25187
:1018C000FB4F808186FF2AC08C91992787FD9095D8
:1018D000840F951FFC01EE0FFF1FE80FF91FE25167
:1018E000FB4F80818F7361E00E942B0A17C080E458
:1018F0009CE904C0F801808191810496F7019183ED
:101900008083C258DA4F8FEF888308C0F801808146
:101910009181049680549C4950F3ECCFDF91CF9194
:101920001F910F91FF90EF9008951F920F920FB6A5
:101930000F920BB60F9211242F933F934F935F9307
:101940006F937F938F939F93AF93BF93EF93FF9387
:1019500080E090E064E271E048E251E00E94D30B45
:10196000FF91EF91BF91AF919F918F917F916F9177
:101970005F914F913F912F910F900BBE0F900FBE33
:101980000F901F9018951F920F920FB60F920BB6E3
:101990000F9211242F933F934F935F936F937F93F5
:1019A0008F939F93AF93BF93EF93FF9383E090E068
:1019B00064EA70E048EA50E00E94D30BFF91EF9197
:1019C000BF91AF919F918F917F916F915F914F9157
:1019D0003F912F910F900BBE0F900FBE0F901F9055
:1019E00018951F920F920FB60F920BB60F921124FB
:1019F0002F933F934F935F936F937F938F939F9317
:101A0000AF93BF93EF93FF9382E090E064E970E0BF
:101A100048E950E00E94D30BFF91EF91BF91AF9145
:101A20009F918F917F916F915F914F913F912F91F6
:101A30000F900BBE0F900FBE0F901F9018951F9226
:101A40000F920FB60F920BB60F9211242F933F9364
:101A50004F935F936F937F938F939F93AF93BF93B6
:101A6000EF93FF9381E090E064E870E048E850E095
:101A70000E94D30BFF91EF91BF91AF919F918F91F6
:101A80007F916F915F914F913F912F910F900BBE7E
:101A90000F900FBE0F901F90189582E895E00E945E
:101AA0005E0A089593E0899FC00111248E579A4FD2
:101AB00070E00E94B40A089593E0899FC001112448
:101AC0008E579A4F70E00E94CC0B08952FD008F4E7
:101AD00081E0089557D088F09F5790F0B92F99274B
:101AE000B751A0F0D1F0660F771F881F991F1AF029
:101AF000BA95C9F712C0B13081F05ED0B1E0089557
:101B00005BC0672F782F8827B85F39F0B93FCCF3D7
:101B1000869577956795B395D9F73EF4909580951E
:101B2000709561957F4F8F4F9F4F0895990F0008D3
:101B3000550FAA0BE0E8FEEF16161706E807F9079F
:101B4000C0F012161306E407F50798F0621B730B3A
:101B5000840B950B39F40A2661F0232B242B252BBB
:101B600021F408950A2609F4A140A6958FEF811D5E
:101B7000811D089557FD9058440F551F59F05F3F40
:101B800071F04795880F97FB991F61F09F3F79F09F
:101B900087950895121613061406551FF2CF469521
:101BA000F1DF08C0161617061806991FF1CF8695A3
:101BB0007105610508940895E894BB276627772787
:101BC000CB0197F90895B2DF08F48FEF0895629F73
:101BD000D001739FF001829FE00DF11D649FE00D25
:101BE000F11D929FF00D839FF00D749FF00D659F86
:101BF000F00D9927729FB00DE11DF91F639FB00D85
:101C0000E11DF91FBD01CF0111240895991B79E051
:101C100004C0991F961708F0961B881F7A95C9F77C
:101C20008095089597FB092E07260AD077FD04D0EA
:101C300049D006D000201AF4709561957F4F089521
:101C4000F6F7909581959F4F0895A1E21A2EAA1B51
:101C5000BB1BFD010DC0AA1FBB1FEE1FFF1FA2175C
:101C6000B307E407F50720F0A21BB30BE40BF50B59
:101C7000661F771F881F991F1A9469F760957095E2
:101C8000809590959B01AC01BD01CF01089597FB14
:101C9000092E05260ED057FD04D0D7DF0AD0001C30
:101CA00038F450954095309521953F4F4F4F5F4FF9
:101CB0000895F6F790958095709561957F4F8F4FB9
:101CC0009F4F0895AA1BBB1B51E107C0AA1FBB1F52
:101CD000A617B70710F0A61BB70B881F991F5A95B8
:101CE000A9F780959095BC01CD010895EE0FFF1FD7
:0C1CF0000590F491E02D1994F894FFCFBA
:101CFC00020000000000B4420085050000000063F3
:101D0C00042A06F9032A040A04530400000000E81C
:021D1C000500C0
:00000001FF
